:20000000AA0A00000000000000000000000100000001000001000000000000000200000027
:200020000000000000000000000000000100000000000000000000000000000002000101BB
:20004000808000000000100001000000005400011BFFFFFF0220F000000000000000000010
:200060000D0D0D0000000000000048ADC000C00000000000000000000000000000000000E4
:2000800000000000000000000001000000020000000200000000000000000000000000005B
:2000A00000000000000000000001000000000000000000000000000000010000000200003C
:2000C000802200000000400001000000004100502BFFFFFF0220F000000000000000000072
:2000E000040D0D0000000000000048ADC000C000000000000000000000000000000000006D
:200100000000000000000000000000000000000000000000000000000200000000000000DD
:200120000000000002000000000000000100000001000000000000000000000002000100B8
:20014000A00000000000000001000000000041051EFFFFFF0220F00000000000000000008B
:200160000D000D0000000000000048ADC000C00000000000000000000000000000000000F0
:2001800000000000000000000000000000020000000000000002000000010000000000005A
:2001A00000010000000000000000000000000000000000000000000000020001000000003B
:2001C000080A000000000000010000000045000117FFFFFF0220F0000000000000000000A0
:2001E000040D0D0000000000000048ADC000C000000000000000000000000000000000006C
:200200000000000000000000000200000001000000020000000000000100000000000000D8
:200220000000000000000000000100000000000001000000000000000001000201000000B8
:20024000200A00000000000004000000000010543AFFFFFF0220F0000000000000000000C3
:200260000D0D0D0000000000000048ADC000C00000000000000000000000000000000000E2
:2002800000000000000000004F0090004C00A3030000B303FF03000003020004000140008B
:2002A00001080000F3030C0008000003040000000C000000420300000F0300047C088C00AD
:2002C0000000AA0000000010040000000001500009FF07FF4020F0050800000000000000A4
:2002E000040404001102000040A84020000000000000000000000000000000000000000097
:200300000000000000000000000000010A0C51000004000001002610800000108000000228
:20032000002E800000088000002C00021F2E00001F0000011422490C070E80101801602023
:2003400008000000000040542306050001E00C0006FFFFFF62A0F0410C0000000000021092
:20036000040404041111000000000000000040020010301000101012000000000000000087
:2003800000000000000000000000000000010000000100000000000000010000000000005A
:2003A00000000000000000000000000000000000000000000000000000000000000100003C
:2003C0000000000000000000060000000054000133FFFFFF0220F000000000000000000080
:2003E00000040D0010000000000048ADC000C0000000000000000000000000000000000067
:20040000000000000000000000010000000100000C0211000900100000000300000000009F
:2004200000000000000000001C020200140000000004100010040C001F04000100001F020F
:20044000008A00000000000004000000000140502BFFFFFF0220F00000000000000008003B
:20046000040D0D0402900000000048ADC000C0000000000000000000000000000000000053
:2004800000000000000000000000000004020000000200000000000000000E000000000046
:2004A00000010600000100000C000000010000000000000000000A00010100020E0000000B
:2004C000000A20000000000004000000005400011BFFFFFF0220F000000000001800000057
:2004E000040D0D0402100000000048ADC000C0000000000000000000000000000000000053
:200500000000000000000000000000000002000000020000000400000000000000010000D2
:2005200000040000001807000400011004000000011806000108020000180001000207042F
:2005400000A280000000000504000000000504011DFFFFFF0220F00000000000000000003A
:20056000040D0D0002000000000048ADC000C00000000000000000000000000000000000E6
:200580000000000000000000000302040000000002000000000002000000000E0000000040
:2005A000000300040003020C01090000000000000000000002000000020F00000100000005
:2005C00000000002000011005206000000E0B0C02AFFFFFF0000F0440C00000001000000F8
:2005E0000404040420220000000000000000C00000004002000000000000000000000000A7
:200600000000000000000000000000000001000000010000000004000000010000000000D3
:200620000000010000000000020000000200000000000400000000000200000001000401A9
:20064000028000000000500001000000005400011BFFFFFF0220F000000000001800000030
:200660000D0D0D0400200000000048ADC000C00000000000000000000000000000000000BA
:20068000000000000000000000000000000000000000000000000000010000000000000059
:2006A000000000000100000000000000000000000000000000000000010000000000000038
:2006C0000200000000000000010000000000010006FFFFFF0220F000000000000000000001
:2006E0000D000D0000000000000048ADC000C000000000000000000000000000000000006B
:200700000000000000000000000100000000000000010000000000000100000000000000D6
:200720000000000000000000000000000000000001000000000000000001000001000000B6
:20074000200200000000000001000000000010543AFFFFFF0220F0000000000000000000C9
:200760000D0D0D0000000000000048ADC000C00000000000000000000000000000000000DD
:20078000000000000000000001000000000100000001000000000000000000000000000056
:2007A000000000000000000000000000010000000000000000000000000000010000010036
:2007C000800800000000000001000000000405011DFFFFFF0220F00000000000000000005A
:2007E0000D0D0D0000000000000048ADC000C000000000000000000000000000000000005D
:20080000000000000000000009011000000100000000000013000C00000200001300040085
:20082000000000000000000000041E000000000000040000030014001004000200000F0155
:200840000082800000000104040000000050001433FFFFFF0220F0000000000001000000E6
:20086000040D0D0401100000000048ADC000C00000000000000000000000000000000000D0
:2008800000000000000000000000001E00200000000800009C00220030004C002C03D10CCC
:2008A00000000300000000000919F000140000008000100000030014E020001C1F2000030A
:2008C00000800208000000505203000000EB0C0007FFFFFF0000F0440C00000000000000AE
:2008E0000404040011010000000000000000C00000004002000000000000000000000000D8
:2009000000000000000000000A001102000000000000000000000000140009000100060096
:200920000000000000000000000000023F0000003F000001200000001800070320000000D4
:200940000000000200000004050000000000500118FF07FF4020F0050800000000000800B9
:20096000040404042291000040A8402000000000000000000000000000000000000000006C
:20098000000000000000000020808000004000007900063326FF490000222000003F59C03D
:2009A00027C0500000F4000B0411000002C4003B063300007F000000800407033EF0460829
:2009C0000080A020000000012604050003C0E0000AFFFFFF62A0F0410C00000000000213A9
:2009E0000404040422220000000000000000400200103010001010120000000000000000DF
:200A00000000000000000000000000000000000000000000000000000000000000000000D6
:200A2000000072000038000F000000000000000000000000000000000000000038000000C5
:200A40000F0000720000000000000400000000008000000000000000000000000000000091
:200A6000000000000000000000000000000000000000000000000000000000000000000076
:200A8000000000000000000000000000000000000000000000000000000000000000000056
:200AA0000000000000000040000000000900000000000000000000000000000000000000ED
:200AC000000000000000000080000000000000000000000000000000000000400000000056
:200AE0000900000000000400000000000000000000000000004000000100000000000000A8
:200B00000000000000000000020002000000000000000000000000000000000000000500CC
:200B20000100000000000000000000000000000000000000040000000000000000000000B0
:200B4000000000000000000000000000000000000000000000000000000000000000000095
:200B6000000000000000000000000000000000000000000000000000000000000000000075
:200B80000000000000000000000000000000000000000000000000000000100000000080C5
:200BA000004000000000800000000000000000000000000000000000000000000000000075
:200BC000000000000000000000000000000000000000001000000080000000400000002025
:200BE000080010000000040000004000000000000000000000001000000000000000000089
:200C00000000000000000000000000000000000000000000000000000000000007000400C9
:200C20000000000000000000060000000000000000000000000000000000000000000000AE
:200C4000000000000000000000000000000000000000000000000000000000000000000094
:200C6000000000000000000000000000000000000000000000000000000000000000000074
:200C8000000000000000000000000000000000000000000000000000000000100000000044
:200CA000000000000000000020000000000000000000000000000000000000000000000014
:200CC000000000000000000000000000000040000000004000000004000000000000000090
:200CE0002800000000000404000000000000000000000400000000000800000000000000B8
:200D00000000000000000000000000000000000000000000000000000000000004000000CF
:200D20000200000000000000040000000800000001000000000000000000000000000000A4
:200D4000000000000000000000000000000020004000000000000000000000000000000033
:200D60002000000000000004000000004000200000000000000000000000000020000000CF
:200D8000000000000000000000000000000000000000000000000000000000000000000053
:200DA00000000000000000000000000004000000020000000000000000000000000000002D
:200DC000000000000000000000000000000000000000000000000000000000000000000013
:200DE0000000000000000000000000000000000000000000000000000000000000000000F3
:200E00000000000000000000000000000000000000000000000000000000200000000000B2
:200E20000000000400000200000000000000000000000000000000000000000000000000AC
:200E4000000000000000000000090000000000000000020001000000000000000100000085
:200E6000000000000008000000000100400102000000000000000000020000000000010023
:200E800000000000000000000000000000000000000000000000000000000000040003004B
:200EA0000000000000000000000000000C0000000C0000000000000000000000000000001A
:200EC000000000000000000000000000000000000000000000000000000000000000000012
:200EE0000000000000000000000000000000000000000000000000000000000000000000F2
:200F000000000000000000000000000000000000000000000000000000000200400100008E
:200F20000000000002000000010000000008000000000000000000000000000000000000A6
:200F4000000000000000000000000000000000000000000000000000000000000000000091
:200F6000000000000000000000000000000000000000000000000000000000000000000071
:200F8000000000000000000000000000000000000000000000000000000000000300070047
:200FA000010000000000000000000000000000000000000000000000000000000000000030
:200FC000000000000000000000020000014000040200200000020420284000000000009A80
:200FE0000002201C00421400000800C0002481040002000400020408000000000240001482
:201000000100000000008A60000000000028800001000000400002201400000000001000B6
:201020000000004000000200030000000000000000000000284000000000000000000A1ADF
:20104000000000000000000000001240000090000000000040040000000000002800000042
:2010600000000000000000000100000000000000004010000000000000100000000000000F
:201080000000000000000000D8007C00F70000000000E500F000F100E0003800000088009F
:2010A0000800000000000000000000000000510000000000080000000000000000000000CF
:2010C000000000000000000000000200000000000002000800000082A800000000000000DA
:2010E0000500000200000001004000000000000000000000000000000000000000000000A8
:2011000028000000000000000080000000800000A0000000000000021400000000000040B1
:201120000001000000000000050000000000000000000000000000000000000000000000A9
:201140000000000800000008080000000002000400000002000102010000000000800000EB
:201160000000000000000000008000080000000000000000010000000000000010000000D6
:20118000000000000000000001009A000E0000000000000000000600180000000000010087
:2011A0000C000000000024000000430000008800000010000800000000000000000000001C
:2011C0000000000000000000400000000041000000080480000800006000001040820000C8
:2011E000401104000040404006090000804004000041000080000008000800000002000034
:20120000280200100000000A040800008000000020420000800000080040000000000009CB
:20122000000000000002580000000000000000000000000000000000000000000000000054
:20124000000000000000080040000000000000000000000000000000002000000000000026
:20126000800000000010000000000800004000000000000000020000000000000000000094
:20128000000000000000000091002E009E0000000000A9008200C700860008000000F00081
:2012A0000000000000002000600000000000000002000000000000000000000000000000AC
:2012C0000000000000000000000040000000000000000000000200002000000000000800A4
:2012E00000400000000000101000000000000080000000000000000000000000000000000E
:201300002800000000000022008000000080000020000000000000021400400000020810F3
:201320000000000000000000000000000000000000000000000000000000000000000000AD
:2013400000000008000000080000000000000000004000100000008000000000008000002D
:201360000000000000000080018000880000000000000000000000000000000000000000E4
:2013800000000000000000000800100044000000000000000000A600180000000000000033
:2013A000000000000000240000008100000000000000000000000000000000000000000088
:2013C000000000000000000004500084000000004008C80042000002810000180000080040
:2013E000040020A1080000000018010000020020000000810001000001104400000000000E
:20140000045000000000200500010000800000000004000000000001000020000200280083
:201420000000000000000000000000000000000000000000000000000000000000000000AC
:2014400000000000000008000000080000000000000000000040102000034814000022008B
:201460008100000C0004000080000000044028A10000008008000001000000008000001035
:2014800000000000000000000F001F004F000000000089000F00EE008100000000000000C8
:2014A000000000000000200020000000020000009000010000000000000000000000000059
:2014C000000000000000000000000000000000000000000000000082000000000000280062
:2014E0002000000808000080400008000000000000000000000000002001000000000000D3
:20150000880000000000000000800000008000002001000000000002440000000000284074
:201520000000000000000000000000000000000000000000000000000000000000000000AB
:201540000000000800000008100000000400000800000100004000000000020040000000DC
:201560000000000800000080018000000000080800000000000000000000082000800000AA
:20158000000000000000000000009000600000000000000005000A00180000000000000034
:2015A000000000000000240004000000020010000000000000008000000000000000000071
:2015C000000000000000000044000000000000005200200000000000011400000000000040
:2015E00045004804000000001020420000000004520000A500000000801012040000000245
:20160000A8000002000014000900000400000000001002020001002440000000020000087C
:20162000000080000000000000000000000000000014140200000000940000180000000054
:2016400000000000000008000000000004000000004000000000000000020000100002002A
:20166000010000008004008000000000022028080000008000000000000000005200000041
:20168000000000000000000005000F000700000000000F008F006F000E002C0000000800E0
:2016A000000000000000200000000000020000000000000000000000000000000000000008
:2016C000000000000000000080000000000000000800000000000000200000000000000062
:2016E00000000220008000000200000000000108000000000000020000000000000000003B
:201700002800000000000029008000000080000060000000000000091400000000000210E9
:201720000000000000000000000000000000000000000000000000000000000000000000A9
:201740000000000800000008400001800000000000000000000000000000000000000000B8
:20176000080000000000000000000000000000000800000000000000000000000000000059
:2017800000000000000000000100040004000000000080000000E6001800000000000000C2
:2017A000000000000000240000000000000000000000000000000400000000000000000001
:2017C0000000000000000000000020108020000000004400000080001000020200001052FF
:2017E000802144000000808080000020408004001004000002000208A000000000000000E0
:2018000028000000000020058000000080000000A0000000000000051400000000002200A0
:20182000000002000000008002200000010000000000000000000000000000000000000003
:20184000000008000000080000800400000000004000000000000020000200000000000092
:201860000000104280250000000002000000280000000000001000010400000000004000F2
:201880000000000000000000C4001A00FD0000000000B0000C00E600810000000000110039
:2018A0001C00000000002400000000000500000000000000000000000000000000000000E3
:2018C0000000000000000000000000000061040240000000000000020000260200010040F6
:2018E00000400080000088000801402000000240406100000000008020040040002100400F
:20190000A800000000000002800000000000002020000000002102005400000000001001D5
:2019200000000000001188000000000000000000000000000000000000000000000000000E
:2019400000000800000000000000000000000000000000000000000000000000000000007F
:20196000000000000000000000000000000000000000000000000000000000000000000067
:201980000000000000000000D00081009F00000000008D00BE008E00210030000000F0003D
:2019A000000000000000040000000000000000000000000000000000000000000000000023
:2019C000000000000000000000000000000000000000000000000000000000000000000007
:2019E000000000000000000000000200000041000000800000000002000000000000000022
:201A00000000000000000000000000000000000000000000000000000000000000000000C6
:201A200000000002000100000000000000000800000000000000000000000000000000009B
:201A4000000000000000000000000012000000000000004000000080000100000000008033
:201A6000000008020000801000000000000043800000000000000000000000000000000207
:201A800000000000000000000000000000000000E000300000000000000000000000C00076
:201AA0008000000000000000000000000000000000000000000000000000000000000000A6
:201AC000000000000000000000000000000000000000000000000000000000000000000006
:201AE0000000000000000000000000100000000000000000000000000000000000000000D6
:201B0000000000000000000000000000000000000000000000000000000000800000000045
:201B2000000000000010000000000000000000000000000000000000000000000000000095
:201B40000000000000000000000000200000000000300010000000000001000000000080A4
:201B600000000800000080300000000000204300000000000000000000000000000000004A
:201B80000000000000000000000000000000000040000000000000000000000020002000C5
:201BA0000000000000000000000080000000000000000000000000000000000000000000A5
:201BC000000000000000000000000000000100000000000000100000000000000000008074
:201BE0000000080000008030000000000030430000000000000000000000010000000000B9
:201C00000000000000000000000000000000000000000000000000000000000000000000C4
:201C2000000000000000000000001000000000000000000000000000000000000000000094
:201C4000000000000000000000000000000000000000000000000000000000000000000084
:201C6000000000000000000000000000000000000000000000000000000000000000000064
:201C8000000000000000000000000000000000000000000000000000000000000000000044
:201CA000000000000000010000000000000000000000000000000000000000000000000023
:201CC000000000000000000000020804000000000000000000000000000000000000008076
:201CE0000000000000008030000000000032430400000000000000000000000000000000BB
:201D0000000000000000000000000000000000000000000000000000000000000000800043
:201D20000000000000000000000080000000A0000000000000000000000000000000000083
:201D4000000000000000000000000000000000000000000000000000000000000000000083
:201D6000000000000000000000000000000000000000000000000000002000000000000043
:201D8000000000000000000000000000000000000000000000000000000000000000000043
:201DA000000000000000000000000000000000000000000000000000000000000000000023
:201DC000000000000000000000000000000000000000000000000000000000000000008083
:201DE0000000000000008030000000000012430400000000000000000000000000000000DA
:201E00000000000000000000000000000000000000000000100000000000000000000000B2
:201E20000000000000000000000000000000000000000000000000000000000000000000A2
:201E4000000000000000000000000000000000000000000000000000000000000000000082
:201E600000000000000000000000000000000000000000000000000000000210000041000F
:201E80000000800000000000000000000000000000000000000000000002000000100000B0
:201EA00000000000000000200000000800000080000000000000000000000000000000007A
:201EC000000000000000000000000000000000000000000000000000000000000000000002
:201EE0000000000000000000000000000000000000000000000000000000000000000000E2
:201F00000000000000000000000000000000000000000000F000100000000000C0002000E1
:201F2000C000000000000000000000000000000000000000000000000000000000000000E1
:201F4000000000000000000007011000000000000000050007010000070110000000000044
:201F6000000001000700070100DEDE00DE00000000E0E000E0000000004040004000000057
:201F80000000002424002400C0000000300044B1B100310000000000005B5B005B000000FD
:201FA00000545400540000000007070006000000409F9F000F0000009C1A000000000000CE
:201FC000C0400000000000003121000000000000435A0000000000004000000000000000D2
:201FE00004040000000000000506000040000000400000000000000000200000000000002E
:00000001FF
