:20000000AA0A0000000000001000000000040000000000010004000000000000030104000B
:200020000300040103020C000900000100000E0000000000000100000002000110040F0068
:2000400000208000000010055403000000E0C00B1AFFFFFF0000F0440C0000000100000091
:20006000040E040402220000000000000000C0000000400200000000000000000000000040
:2000800000000000000000000001000000020000000200000000000000000000000000005B
:2000A00000000000000000000001000000000000000000000000000000020000000000013C
:2000C000008200000000000006000000004100502BFFFFFF0220F0000000000000000000CD
:2000E000000E0E0000000000000048ADC000C000000000000000000000000000000000006F
:200100000000000000000000000000000000000000000000000000000200000000000000DD
:200120000000000002000000000000000100000001000000000000000100000000000200B8
:20014000820000000000000006000000000041051EFFFFFF0220F0000000000000000000A4
:200160000E000E0000000000000048ADC000C00000000000000000000000000000000000EE
:20018000000000000000000000000600000000010000200100000000381804001800220C9D
:2001A0001200201C20001800010200000000000028080000000000143E01001C0102000014
:2001C0000000000800000011040000000010000512FF07FF4020F005080000001800000061
:2001E000040404042222000040A84020000000000000000000000000000000000000000063
:2002000000000000000000000001000000010000000004002001C80000000000410032007C
:20022000000204008200310000000000E3000000E301000000020000E0010302180004003A
:20024000000800000000500163040500020E00C021FFFFFF62A0F0410C000000000002109A
:20026000040D0404022200000000000000004002001030100010101200000000000000007D
:2002800000000000000000000000000000000001000000000002000000000000000000015A
:2002A000000000000000000000020000000000000000000000000000000200000001000039
:2002C000000200000000001001000000005004011EFFFFFF0220F000000000000000080081
:2002E000000D0D0400900000000048ADC000C00000000000000000000000000000000000DB
:200300000000000000000000020001000302000000020000000000000000000000000000D3
:200320000100020000000001000000010300000000000000000000000000000003020001AF
:20034000002000000000004001000000000504011DFFFFFF0220F0000000000018000000EE
:20036000040D0D0401100000000048ADC000C00000000000000000000000000000000000D5
:200380000000000000000000000100000C04000004040000080000000C000300000000002D
:2003A0000E0001000F000000000200000002020003010C00000000000000000101020E04F3
:2003C00020A800000000000001000000005010041BFFFFFF0220F0000000000000000800BE
:2003E000040D0D0402900000000048ADC000C00000000000000000000000000000000000D4
:2004000000000000000000004F0490080C000006040600000806000042000006F3000C067A
:200420004C02A300FF060000030000000001B30001010000000140008C080F007C010006A6
:200440000000AA000000000001000000004150002BFFFFFF0220F000000000000000000026
:2004600004040D0022000000000048ADC000C00000000000000000000000000000000000D0
:2004800000000000000000000000000000000000000000000000000000000000000100005B
:2004A000000100000000000000000000010000000100000000000000000000000001010037
:2004C000802000000000000001000000000045011DFFFFFF0220F000000000000000000009
:2004E0000D0D0D0000000000000048ADC000C0000000000000000000000000000000000060
:200500000000000000000000000000000001000000010000000000000102000000020000D4
:200520000100000000000000020000000200000000000000000000000002000001010200B0
:20054000A02200000000000001000000004500011BFFFFFF0220F000000000000000000068
:200560000D0D0D0000000000000048ADC000C00000000000000000000000000000000000DF
:20058000000000000000000000010000000000000001000000000000010000000200000056
:2005A000000000000000000000000000000000000100000000000000010002000000000136
:2005C000028000000000040001000000000010543AFFFFFF0220F0000000000000000000E7
:2005E0000D0D0D0000000000000048ADC000C000000000000000000000000000000000005F
:200600000000000000000000010000000001000000010000000000000000000000000000D7
:200620000000000000000000000000000100000000000000000000000100000000010000B7
:20064000022000000000000006000000000405011DFFFFFF0220F00000000000000000003C
:200660000E0E0E0000000000000048ADC000C00000000000000000000000000000000000DB
:20068000000000000000000000010000000000000001000000000000010000000000000057
:2006A000000000000000000000000000000000000100000000000000010000010000000037
:2006C000020800000000000006000000000010543AFFFFFF0220F00000000000000000005D
:2006E0000E0E0E0000000000000048ADC000C000000000000000000000000000000000005B
:200700000000000000000000000000000001000000000000000000000000000000000000D8
:200720000000000001000000000000000100000000000000000100000000000100000100B4
:20074000800800000000000006000000001000543AFFFFFF0220F00000000000000000005E
:200760000E0E0E0000000000000048ADC000C00000000000000000000000000000000000DA
:2007800000000000000000000400010000080000040800000004000001030200010306002C
:2007A000000000000004000000010000000000000000070200000000070300000008000415
:2007C00000AA02000000000506000000005004011EFFFFFF0220F0000000000000000000E0
:2007E000040E0E0002000000000048ADC000C0000000000000000000000000000000000062
:200800000000000000000000000100000000000000000000000000000000000000000000D7
:200820000100000000000000000000000000000000000000000000000000000000010100B5
:200840000008000000000010010000000000010005FFFFFF0220F000000000000100000069
:2008600004040D0401100000000048ADC000C00000000000000000000000000000000000D9
:200880000000000000000000420200004C30A30000104000F37F0C004F00900B0070B30F0B
:2008A0000300000001200000084F0030040300000C780007FF0100000F408C047C03003865
:2008C00000082A0000000001020000000001000511FF07FF4020F005080000000000021355
:2008E000040404041111000040A8402000000000000000000000000000000000000000007E
:2009000000000000000000000004002901070000000000001800020000002E000002002137
:2009200032000C0000010016320004000107000008000000010000000E000108303000079D
:2009400020000202000010106304050002CE000003FFFFFF62A0F0410C00000000000000D8
:20096000040404001101000000000000000040020010301000101012000000000000000095
:20098000000000000000000000000000000100000C0071001006AC280026001800000300AE
:2009A00014000000DC0002000900F03C00260008400010000012002000201F00E001001E22
:2009C00000002080000000114302000000EB0C0007FFFFFF0000F0440C00000000000000E6
:2009E0000404040011010000000000000000C00000004002000000000000000000000000D7
:200A0000000000000000000000000000000000000000000000000000000000000F0000388F
:200A200072003800000000000000000000000000000000000000000000000000000000000C
:200A40000F7200000000000080000000000000000000000000002000000000000000000075
:200A6000000000000000000000000000000000000000000000000000000000000000000076
:200A8000000000000000000000000000000000000000000000000000000000020000000054
:200AA00000000000000000000000000804000000000000000000000000000000000000002A
:200AC000000000000000000000000000000000000000000000000000000000000000000016
:200AE00004000000000000000000000640001000000000000000000000000000000000009C
:200B00000000000000000000020004000000000000000000000000000000000001000000CE
:200B20000300000000000000000000000000000000000000000000000000000000000000B2
:200B4000000000000000000000000000000000000000000000000000000000000000000095
:200B6000000000000000000000000000000000000000000000000000000000000000000075
:200B8000000000000000000000000000000000000000000000000000000120000000100024
:200BA0000000000080000000000000000000000000000000000000000000000000000000B5
:200BC000000000000000000000000000000000000000000000000000000200000000000013
:200BE0008400100000000000000020064000100000000000000020000800000000000004BF
:200C00000000000000000000000000000000000000000000000000000000000007000400C9
:200C20000000000000000000000000000000000002000000040000000000000000000000AE
:200C4000000000000000000000000000000000000000000000000000000000000000000094
:200C6000000000000000000000000000000000000000000000000000000000000000000074
:200C800000000000000000000000000000000000000000000000000000000000080000004C
:200CA0000000000000000000000000400000000000000000000000000000000000000000F4
:200CC0000000000000000000000000000000100000000000000000000002004000000000C2
:200CE0008400100000000000000000024000000000000000400000000000000000000000DE
:200D00000000000000000000000000000000000000000000000000000000000002000000D1
:200D20000200000000000000000000000000000000000000000000000000000000000000B1
:200D400000000000000000000000000200001000000000020000200000020040000000001D
:200D60008400000000002002000000000000000000000000000000000000040000000000C9
:200D8000000000000000000000000000000000000000000000000000000000000000000053
:200DA000000000000000000004000000020000000000000004000000000000000000000029
:200DC000000000000000000000000000000000000000000000000000000000000000000013
:200DE0000000000000000000000000000000000000000000000000000000000000000000F3
:200E00000000000000000000000000000000000000000000000000000000000000100000C2
:200E2000000000020000000000000000000020000000000000000000000000000000000090
:200E400000000000000000000000000000000000000000400808000000020000000004003C
:200E600084000000080000000010000000080000000000008000000004000000000000004A
:200E800000000000000000000000000000000000000000000000000000000000020002004E
:200EA000010000000000000006000000080000000000000001000000000000000000000022
:200EC000000000000000000000000000000000000000000000000000000000000000000012
:200EE0000000000000000000000000000000000000000000000000000000000000000000F2
:200F00000000000000000000000000000000000000000000000000000008020000000000C7
:200F2000000004000000004008000000000010000000000000000000000000000000000055
:200F400000000000000000000000020000001040000100000010000000000000000000002E
:200F6000000000000000000000000000000000000000000000000000000000000000000071
:200F8000000000000000000000000000000000000000000000000000000000000500060046
:200FA000030000000000000004000000080000000000000000000000000000000000000022
:200FC00000000000000000004800002000100002002000800000200A00440402000104007E
:200FE0004000140300302010240140400000008A00000020000100520000448000000002D2
:201000000104000000000084040110000020000A0105040000000009000000000000404075
:201020000000000000000000000000000000000000000000000000000000000000000000B0
:201040000000000000000000000000000000000020000080000000000144088400001441CA
:201060000000040020054080050004001000100000000000000040100010000100000000FD
:201080000000000000000000C500EA005F0000000000D2008A005300E7000C0000000000A0
:2010A000000000000000000000000000000000000000000000000000000000000000000030
:2010C0000000000000000000000040000000000000000000000200002000000000000800A6
:2010E000000080000001000000000008000000200000000000000000000000000000000047
:201100002800000000000022000000000000000020000010000004121400400000020810D1
:201120000000000000000000000000000000000000000000000000000000000000000000AF
:20114000080000000808000000004020000000080000000000010000000008000000000006
:2011600000000000000000000004000000000000000000000000000000000000000000006B
:2011800000000000000000000800100044000000000000000000A600000024000000000029
:2011A0000000000000004200000000000000400000000000000000000000000000000000AD
:2011C000000000000000000061001000000000006200100000000004A80000400000000040
:2011E000401200080000004002144100000008082012100100000000800002080000000021
:201200002900004000000001000004000000020000000004000020000000040000008000B6
:20122000000002000000009900000000000000000444000000000000BC000000000000000F
:2012400000000000000008000000000000000200420004090002160001000800000C800088
:201260000000000000058201000000000400380000000000000100000000000000000000A9
:2012800000000000000000000F004F000F00000000000F000B008F00140000000000F10033
:2012A0000000000000002000000000000000000040000000220000000000000000000000AC
:2012C0000000000000000000000200080000000001080000000000020400000000002000D5
:2012E00000030000000000804000A4100000001004110000000000028108010000000000C6
:20130000A80000000000080000000000000000008000001000000402540000000000280209
:201320000000000000000000000000000000000000000000000000000000000000000000AD
:20134000080000000808000000008000000024000000000000000080000002004000080007
:201360000010000000010010000C00080000000000000000000000004000000000001000E8
:2013800000000000000000000A008C0022000000000015000B004E00000024000000000003
:2013A0000000000000004200000040000800000000000000000000000000000000000000A3
:2013C000000000000000000000000000401000000000000000080009000000000000001498
:2013E0000000000040280040040100001000008000020000001080040004000000002000F6
:20140000800800000002450020080200002100080002000000100208680000000100000025
:2014200040000000000000800100000000000000000000000040003C0000000000A80000C7
:2014400000000800000008001000000040000000010000400000000000004D09455480007C
:201460000010000820A90201000002002C0018280000090000000080000000000000000091
:201480000000000000000000C000E00060000000000031002200DA00E800300000001800EF
:2014A0000800000000002400000080000000880000000200000000000000000000000000F6
:2014C00000000000000000000002000800000000000A0600000000828800000000002800C0
:2014E000001204008000008000081080000000000042000800000000001B000000008080D9
:2015000008100000000000004000000000000000800000000000040200000008000028407D
:2015200001000000000000000020800000000000000000000000000000000000000000000A
:20154000000000000008000000000000000000000030000000000010080002000000080031
:201560000140000000110000080400008008008004040080008400000000000000000000F9
:2015800000000000000000000A009F006A00000000000D00070006000100200000000100FC
:2015A0000C0000000000400000000000000041000000040000000100000000000000000099
:2015C00000000000000000000900000000A8000000000800000045000004000000100008F1
:2015E000000008000010020000802000006400000001000000012800000040000000030060
:20160000280000000000002A000002000000020000000004000100089400000000000810BB
:201620000000000100000080048000000100000100000000000000000000000000000000A3
:20164000000008000000080000040000000000000000200000200000000045084040000564
:201660000000200821A8020000000001A84018280000010400000001004000000000000008
:201680000000000000000000EC00D200640000000000E1000800E600180000000000110030
:2016A0001C00000000002400060000000000000000000000000000000000000000000000E4
:2016C00000000000000000000002000000000000102802000000000060000000000000006E
:2016E000004006000000000000060004000082004041000000000200A018000000000000DD
:201700006400000000000029000A0000000000000042000000000409182000000000021099
:20172000108204000000000000000000000000000000000000000000000000000000000013
:201740000800000008080000000000000000800400000000000000004400000000000000A9
:20176000010000000000000000000000000002004400000001000000000000000000000021
:201780000000000000000000080007000C000000000089000E00EE000300280000000F006F
:2017A0000000000000004200020000000000000000000600000004000000000000000000DB
:2017C00000000000000000000000000000A900000000000001080500000024000000805856
:2017E0000200000010494504080000000000004900000000004000282800000020410018EB
:2018000000000000500084010000020000000200000020000000000A002004400000210040
:201820000000000000000000000000000000000000000000000000000000000000000000A8
:201840000000080000000800000000000000000004000000010000000000000000000084EF
:2018600000000000000002000000000080201800000000000000010010000000000000009D
:201880000000000000000000F000F000F600000000007000F600F000180000000000000004
:2018A0000000000000002400000000001000000000000000020000000000000000000000F2
:2018C000000000000000000000000000000000000000000000000200000000000000000006
:2018E0000000000000000000000000000000000000000000000000000000000000000000E8
:201900000000000000000000000000000000000000000000000000000000000000000000C7
:201920000000000000000000000000000000000000000000000000000000000000000000A7
:20194000000000000000000000000000000000000020008002002000800000040000080039
:201960000120000020020000000021000000000100000000000000000005000000000000FD
:201980002800000000000021000002000000020000050000000000011400000002000810C6
:2019A000000000000000000000000000000000000000000000000000000000000000000027
:2019C0000000080000000800000200000020000100002000010000000000000000000000B3
:2019E0000000000000000000000000000000000000000000000000000000000000000000E7
:201A0000000000000000000000003A004C000000000000000300A60018000000000000007F
:201A200000000000000024000300000002000000000000000000000000000000000000007D
:201A4000000000000000000000000000000000000000000000000000000000000000000086
:201A600000000000000000000008000000008100000080000000000200000000000000005B
:201A8000000000000000000000000000000000000000000000000000000000000000000046
:201AA000040000000100000000000000000001000000000000000000000000000000000020
:201AC00000000000000000000100001A0400000000000000000001000000000000000000E6
:201AE0000000000000008010000000000008810800000000000021000000000000000000A4
:201B000000000000000000000000000000000000E000300000000000000000000000C000F5
:201B2000800000000000000000009000000080000000000000000000000000000000000015
:201B4000000000000000000000000000000000000000000000000000000000000000000085
:201B6000000000000000000000000100000000000000000000000000000000000000000064
:201B800000000000000000000000000000000000000000000000000000000000000000083D
:201BA000000000001000000000000000000000000000000000000000000000000000000015
:201BC0000000000000000000200000000400000000000000000004001000000000000000CD
:201BE0000000000020008010000000000408A5000000000000000000000000000000000084
:201C0000000000000000000000000000000000004000000000000000000000004000200024
:201C2000000000000000000000000000000060000000000000000000000000000000000044
:201C4000000000000000000010000000000000000000000000000040000000000000000034
:201C60000000000020008010000000000408A54000000001000000000000000000000000C2
:201C8000000000000000000000000000000000000000000000000000000000000000000044
:201CA000000000000000000000000000000080000000000000002000000000000000000084
:201CC000000000000000000000000000000000000000000000000000000000000000000004
:201CE0000000000000000000000000000000000000000000000000000000000000000000E4
:201D00000000000000000000000000000000000000000000000000000000000000000000C3
:201D2000000000000000000000000080000000000000000000000000000000000000000023
:201D400000000000000000000000000000000200000000000000000000000000000000027F
:201D60000000000020008210000000000408A5000000000000000000000000000000000000
:201D8000000000000000000000000000000000000000000000000000000000000000000043
:201DA0004000000000000000000000000000100000000000000000000000000000000000D3
:201DC000000000000000000000000000000000000000000000000000000000000000000003
:201DE0000000000000000000000000000000000000000000000000000000200000000000C3
:201E00000000000000000000000000000000000000000000000000000000000000000000C2
:201E20000000000000000000000000000000000000000000000000000000000000000000A2
:201E4000000000000000000000000000000000000000000000000000000000000000000280
:201E600000000000200082100000000004088500000000000000000000000000000000001F
:201E8000000000000000000000000000000000000000000010000000000000000000000032
:201EA000000000000000000000000000000000000000000000000000000000000000000022
:201EC000000000000000000000000000000000000000000000000000000000000000000002
:201EE000000000000000000000000000000000000000000000000000000800100000810049
:201F000000008000000000000000000000000000000000000000000000000001040002003A
:201F2000000000000000080020000000000000000000000000000000000000000000000079
:201F4000000000000000000000000000000000000000000000000000000000000000000081
:201F6000000000000000000000000000000000000000000000000000000000000000000061
:201F80000000000000000000000000000000000000000000F000100000000000C000A000E1
:201FA0004000000000000000000000000000000000000000000000000000000000000000E1
:201FC0000000000000000000070010000000000000000500030000000701100000000000CA
:201FE000000005000701050000DEDE00DE0000000040400040000000000000242400240009
:20200000C000000000E0E000E0000000500024D1D100510000000000005B5B005B000000E8
:2020200000545400540000000007070006000000409F9F000F000000485A00000000000061
:20204000C0400000000000004051000000000000134A00000000000044400000000000000E
:202060000602000000000000030500004000000000400000000000000420000000000000AC
:00000001FF
