:20000000AFAA0F000000000000000000000000210000020000000000001000000200000043
:200020000203000C0009000000030004000000000100000E00000200000002000003000485
:20004000010F00000010020000000002000040105204000000EC000B13FFFFFF0000F0449B
:200060000C000000000008000404040433930000000000000000C000000040020000000094
:200080000000000000000000000000000000000000000000200000000000001800041E8086
:2000A00003810C6200A0000008E40011000000000361148E000000001900000000480087C3
:2000C0001C00200703F80000200002080000140002000000001515000FFF07FF4020F0050F
:2000E0000800000000000000040404003303000040A840200000000000000000000000006E
:200100000000000000000000000000000000000000000000030004000330044C0014000041
:2001200000000003032C0CD1009C0022000000001000000000000E00090900F00080001042
:2001400000000FE01000001F00000808000010003402000000E00B0C16FFFFFF0000F044ED
:200160000C000000000000000404040022020000000000000000C000000040020000000041
:200180000000000000000000000000000000000000000000670000000000000010000000E8
:2001A0004400290100000000220041000100060000000000670000000000000200000002FC
:2001C00008001000600307000000000200000410650403000200E0C028FFFFFF62A0F04121
:2001E0000C00000001000000040404042232000000000000000040020010301000101012CA
:200200000000000000000000000000000000000000084000000CB30003040000FF0F0000C2
:20022000421000004C10A30001100000F3000C020803000C040000000C0F00004F0D900237
:200240000F0000017C0E8C100000A2000000000400000000000000000000000000000000C2
:2002600000000000000002120404000422200000000000000000000000000000000000001C
:20028000000000000000000000000000000000001001000003001800000000000000000032
:2002A000000000000300280000000000040000000000000000003A003100000000000000A4
:2002C00004003800030100002000080000001100020000000010050006FF07FF4020F0052E
:2002E0000800000000000000040404002202000040A840200000000000000000000000007E
:200300000000000000000000000000000000000000000000010000000000010000000000DB
:200320000000000001000000000000000000000000000000000001000000010000000000BA
:20034000010000000000000080000000000041006002000000D100523BFFFFFF00A000047A
:20036000180000000000000004000400000500004000C0004040C000C000C000C000C00018
:200380000000000000000000000000000000000000000C00000001100C0200040C20000002
:2003A000080F0000000D0102040200080C00002000200C00000F020000000C20000102026E
:2003C0000C0000000120021F00A0000000005040010000000000000210FFFFFF00A00000EF
:2003E000080000001800000004040404222500008000404040004000400040004000400006
:200400000000000000000000000000000000000000010000000200000000000000000000D9
:200420000000000003000000000003000000000000000000010000000202000000010000B0
:200440000002000100000300000A000000004000060000000000001022FFFFFF0220F00005
:200460000000000000000000040E0E0040040000000048ADC000C0000000000000000000A3
:20048000000000000000000000000000000000000000080000000303000008030000000043
:2004A000030000000000040001010000000300000000000000020300020300000000000026
:2004C0000700000308000000000000000000110434050000000600021100000000000000A3
:2004E00000000000180000000404040400310000000CF00C000C000C404C404C9058000C77
:200500000000000000000000000000000000000000000000000000000004000000000000D7
:200520000000000000060000000000060001000000000000000200000001000000060000A5
:200540000006000000010000002000000000000162000000004050021AFFFFFF0220000541
:2005600000100000000008000004040F10110000404080008000800000000000000000002B
:2005800000000000000000000000000000000000000202040278000000380040000002045B
:2005A000007000080248003002000003000800000001000000780100022000000010000090
:2005C00000780006020101000000000000000004030200000000000000FFFFFF020CF8008D
:2005E00000000000000002000404040411110900000048A100000000F000F000F000F00015
:20060000000000000000000000000000000000000A0C050007040808000208000100000495
:2006200000030008010200010E0D000201080004000006000000010801000004000C000061
:200640000C00010C0203000000000000000000000302000000000A0000FFFFFF030CF4006D
:2006600000000000000000000404040411010000000048A100000000F000F000F000F000AF
:20068000000000000000000000000000000000000000000000000001000102000000000056
:2006A000000000000001010000000001000000000000000000000100010000000000000035
:2006C000000000000301000000000000000010106205000000006002180000000000000015
:2006E00000000000000000000404040000010000000CF00C000C000C404C404C9058000CC1
:200700000000000000000000000000000000000000000000000004000000000100000000D4
:200720000100000000000200000100000000000000000000000100000701000007000001A4
:20074000070000010000000000080000000001040004000001000B0004FFFFFFEF551048D7
:200760001C0000000000000004040400000500000008000800080008500A40A8C00040A842
:20078000000000000000000000000000000000000000020000010000010200000000000053
:2007A00000000000000000000004000000000000000000000004000001000000010000012E
:2007C00001040001020200000800000000000010000500000100000000FFFFFFEF55124856
:2007E0001C0000002700000004040404555500000008000800080008500A40A8C00040A8F2
:200800000000000000000000000000000000000000000000000000000000000000000000D8
:200820000000000000000000000000000000000001000000000000000000000000000000B7
:2008400000000000010000000000000000001000000400000100000000FFFFFFEF551248E7
:200860001C0000000100000004000404002500000008000800080008500A40A8C00040A820
:200880000000000000000000000000000000000000000000022000000041040800040043A2
:2008A00000000A200200005C01410010000000000000000004400000020000000000000216
:2008C000003C06010802014000000000000040400004000001C0DE0F1EFFFFFFEA55924824
:2008E0001C0000000000000004040404555500000008000800080008500A40A8C00040A818
:200900000000000000000000000000000000000000000000000000000600010006000100C9
:2009200000000000060000000700000004000000000001000200000000000000010006009C
:20094000000000000000070000A0800000000000060000000000000111FFFFFF0220F00049
:20096000000000000000000004040E0043040000000048ADC000C0000000000000000000A5
:2009800000000000000000000000000000000000600C00301F3C00000030600C003C600028
:2009A0000000600C603000002A10110000200000540C09011F000000000400026108064290
:2009C000603C000318000740000000020000000454020600030E000C11FFFFFF62A0F04159
:2009E0000C0000000000080004040404339300000000000000004002001030100010101249
:200A000000000000000000000000000000000000080000007E01000078010400000C0602BE
:200A200078010200000C0100000E0100000808002002000C100E0000300400004E0030020F
:200A400001013E0E40000000000008000000110000000000000000000000000000000000EF
:200A60000000000000000211040400043330000000000000000000000000000000000000F4
:200A8000000000000000000000000000000000000000000000000000000000010000000055
:200AA000000100000100000000010000000000000000000100000000010000000000000031
:200AC00000010000000001008002000800000000060000000000000118FFFFFF0220F0005C
:200AE00000000000000000000F040F0034040000000048ADC000C000000000000000000027
:200B000000000000000000000000000000000000000000000000000000FFFF0000FF0000D8
:200B2000000000000000000000FF000000FF0000000000000000000000FF000000FF0000B9
:200B4000000000000000000000000000000000000000000000000000000000000000000095
:200B60000000000F720000380038001F000000000000000000000000000000000000000065
:200B800000000000002F0F0000007200000000000000000000000000400000000000000065
:200BA0000000000000000000000000004000000000000000000000000000000000000000F5
:200BC000000000000000000000000000000000000000000000000000000000000000000015
:200BE0000000000000000000000000000000000001000000000000000000000000000000F4
:200C00000000000000000000000000000000000000000000000000000000000000000000D4
:200C2000000000000000000000000000400000000000000000000000000000000000000074
:200C4000020000100000000000000000000000000000000000000000000000000000000082
:200C600000000000000000000000000000000000000000000000000004000000010000006F
:200C8000000000000000000000000000000000000000000000000000000000000000000054
:200CA000000000000000000000000000000000000000000000000000000000000000000034
:200CC0000000000000000000000000200000000000000000000000000000000000000000F4
:200CE0000000000000000000000000000000000000000000000000000000000000000000F4
:200D00000000000000000000000000000000000000000000000000000000000000000000D3
:200D200000000000000000000000000040000000000000000200000000000004000000006D
:200D4000040000000000000000000000000000000000000000000000000000000000080087
:200D6000000000000000000000000000000000000000000000000000000000000000010072
:200D8000000000000000000000000000000000000000000000000000000000000000000053
:200DA00000000000000000000000000000000000000000000000000000000004000000002F
:200DC000000000000000000000000000000000000000000000000000000000000000000013
:200DE0000000000000000000000000000000000000000000000000000000000000000000F3
:200E00000000000000000000000000000008000000000000000002001000000000040000B4
:200E200000000000000000000400000040000000000000001200020000000000000000005A
:200E4000000000000002000000000000000000000000000000000000000008000000000088
:200E6000000000000000000000000000000001000000000003000000000000000800000066
:200E800000000000000000000000000000000000000000000000000000000000040000004E
:200EA000000000000000000000000000000000000000000000000000000000000000000032
:200EC000000000000000000000000000000000000000000000000000000000000000000012
:200EE0000000020010000000000000000000000000000000000000000000000000000000E0
:200F00000000000000000000000000000000000000000000000000000000000000000000D1
:200F200000000000000000000000000040000000000000000202000000000000000000006D
:200F400000000000100000000000000000000000000004000000000000000000000000007D
:200F6000000000000300000000000000000000000000000000000000000008000000000066
:200F8000000000000000000000000000000000000000000000000000000000000000000051
:200FA000000000000000000000000000000000001000000000000000000000000000000021
:200FC00000000000000000000000000000000000000000000002000000000000000000000F
:200FE0000000000000000000400000000000000000000000000000000000000000000000B1
:201000000000000002000000000000000000000000000000000000000000000000000000CE
:201020000000000000000000000000000000000000000000000000000000000000000000B0
:2010400000000000000000000000000000000000000000000000000002000000000000008E
:2010600001000000010000000000000000000400000000000000000000000000000000006A
:2010800000000000000000000000000000000000908040100000000000080881000000203F
:2010A000A800030000000400102400010200000080020C0000000050009401000000004097
:2010C0008800001100000210001400801000000000000000000000000000000000000010B1
:2010E0000000000000000410002000000000000000000000000000000414000100000000A3
:20110000A81000000000000000000000000080000000000000000000010000000000000096
:201120000000009110040000000040000000005000088200AC020801000000000000000039
:20114000000000000000000000000000000000000F002F004F00000000008F00AF002E0096
:201160000000200000000400000000000000800000000000000000000000000000000000CB
:20118000000000000000000000000000000000000000001000004800000040200000000097
:2011A0000000021000000090800000001000840000000800080000A000008808000008121F
:2011C000000000100000001000000010100004000240000102000000000000000460000022
:2011E0000000800000000000000000000800802100000000002000000000000000000000A6
:20120000000000000000000000000000000000004000000000000000000000000000080086
:2012200000C04031000000000800C011020000000000020A00008000000000000000000016
:201240000000000000000000000000000000000054000C00C300000000005E002400640085
:20126000190010000000F000200000000000000000000000000040000000000000000000F5
:20128000000000000000000000000000000000001A000001104000000800048088100000BF
:2012A00000044100100000810021048000400040000502810000A000022001800000000068
:2012C000B8020000000000001002088000000000081608110000000011000A000000001454
:2012E00000080000000000080080000000000000020040000000000000000000000000001C
:201300000000000000000000000000000000200000000000000000000000000000000000AD
:2013200000000010000000040080000000010040000000001000200900000000000000009F
:2013400002000010000000000000000000000000CF00EE00BD00000000000D000F000F00D6
:2013600007002C00000008000800000000004000000000000000000000000000800000006A
:201380000000000000000000000000000000000000000028000000000000401400000000D1
:2013A00000140000000100000048001800000800004006140000000000084002000000000C
:2013C0000000063000000000001480200000000000400001020000010002000000000000DD
:2013E000008810000000000000020000002188000088100000000000000000000000000012
:201400000000C00000000000000000000000000000000000000000000040000000000000CC
:20142000004500210000080008200001000880000000402200008210000000000000000099
:201440000000004000000000000000000000000006000E001600000000000A0007000E0003
:20146000990000000000F1000E000000000000000000800000000000000000000000000054
:201480000000000000000000000000000000000028000040000000001600000004002800A2
:2014A000201000001038040000104000000002001000000000020800040004000000000A32
:2014C00010400000000000000800002000000005100040000000000020000200000000110C
:2014E0000400000000000002000100000000000000100002000000000000000000000000D3
:201500000000000000000000000000000000200000000000000000000000000000000000AB
:20152000002800200000000002C0000000000000040016000002090000000000000000007C
:20154000008000000000840000000000000000000E006E0066000000000036000C00C6009D
:2015600003002800000001000C0000000000400000000000000000000000000000000400EF
:2015800000000000000000000000000000000000420010080024080082002400000010000F
:2015A0004400010800000014044200000000804001001000000000008408800000000000A7
:2015C000400006A0000000006804002000000000010000000800040000000000100000215B
:2015E00004000000000004220002000000000000044000000000000000400001000000003A
:2016000000000000000000000000000000000000000000001000000000000000000080003A
:2016200040011400000000008604191C0000000011000088000000000000000001080000F4
:20164000000000000000000000000000000000006F002F006F00000000000F000F000E0051
:2016600028002000000001000C0000000000000000004000000000000000000000000400D1
:20168000000000000000000000000000000000000000000080080041000000000000280059
:2016A000000000002000082000000000081008500000220080010018004014000008A0407B
:2016C00080180000200064410020200010000A8000200000003000088800000000000000F3
:2016E000080010000000000080000000000000000240000000000000000000000000000010
:2017000000000000000000400000400000200000000000000002000000000800000000100F
:20172000102800000000000080080620001000080028104000010100000000000000000031
:2017400001080000401080000000000000000000B0006000600000000000FE00FE00F40050
:201760006400040000000800080000000000210002000000000000000000000010000000BE
:2017800000000000000000000000000000000000400A0008000480208600040000001002B7
:2017A00081000414000020140061008000260000020044080000000485610000000000001D
:2017C0002800400100000000600006000000000200000000202000080000000000000002EE
:2017E0000000000000008000000008000000000000000000000000002C0000010000000034
:20180000900002140000000000000000000000000001080000000000000000000000000019
:201820004001140000000000020219102000A02010000008250208000000000000000108F6
:20184000000000100000000000000000000000003F00AF006F00000000000D000F008F0070
:20186000200000000000020000000000000000000000000000000000000020001000000016
:20188000000000000000000000000000000000001000000048090004000000200020200281
:2018A000100004000004002100000400102928000800000008042020000000000904000029
:2018C000101800000001A40000280000002A80020000040000200008040001000000000036
:2018E00008140410000000400000000000000000000000000000000000000000002400054F
:20190000000000000000020000000000000000000000000000000000001080000000000035
:20192000000000000000000080000000000000000000000000040000000000000000000023
:2019400000000000800000000000000000000000F200E4007600000000007000F600F6005F
:2019600064000C0000000000000000000000000000000000000000000000000000000000F7
:201980000000000000000000000000000000000008000001000008200200060000001000FE
:2019A000200000000000201200260600000810104400000000000012022000000000A00069
:2019C0000000010008000012000000000000108064000000080A00200100080000010000BC
:2019E000000011000000084000452001000000000000000000000000000000000000000028
:201A00000000000000000000000000000000000000000000000000000000000000000000C6
:201A20000000200000000000024100000000000010000000000000000080000000000000B3
:201A40000000000000000000000000000000000065002B007400000000003C00E100300035
:201A6000E7000C0000000F0000000000000000000000000000000000000000000000000064
:201A8000000000000000000000000000000000000004000000000000000000000000000042
:201AA000000000000000000000000000000000000000000000000000000000000000000026
:201AC000000000000000000000000000000000000000000000000000000000000000000006
:201AE0000000000000000000000000000000000000000000000000000000000000000000E6
:201B00000000000000000000000000000000000080020000880000000002008000008008B1
:201B2000A000002000020020804240002022800284010200081800200002000200004040B2
:201B40002008120000000A20000010000020008004020000002000002001020080000008A0
:201B600000000800000010400080000000000000020000000000000000000000000000008B
:201B8000000000000000000000000000000000000000000000000000000000000000000045
:201BA000000000000000000000000000000000000000000000000000000000000000000025
:201BC00000000000000000000000000000000000A90058005E00000000009900E7003400F2
:201BE0002500080000000800080000000000000000000400000000000000000000000000A4
:201C00000000000000000000000000000000000000000000000000000000000000000000C4
:201C200000000000000000000000000000000000400000000000004800800000010000009B
:201C4000000000000000000000000000000000000000000000000000000000000000000084
:201C6000000000000000000000000000000000000000000000000000000000000000000064
:201C8000000000000000000000000000000000000000000400000000000000000000004000
:201CA0000000000040000000000000000180004C00000000000000400000000000000000D7
:201CC000000000000000000000000000000000000000000000000000E000300000000000F4
:201CE000000000000000000000000000000000000000800000000000000000000000000064
:201D00000000000000000000000000000000000000000000000000000020000000000000A3
:201D200000000000000000000000000000000000000800000000000000000000000000009B
:201D4000000000000000000000000000000000000000000000000000000000000000000083
:201D6000000000000000000000000200000000100000000000000000000000000000000051
:201D8000000000000000000000000000000000000000000000000000001000000000000033
:201DA0000000021040100000000000000180004C000000000028004000000000000000008C
:201DC000000000000000000000000000000000000000400000000000400000000000000083
:201DE000000000000000600000000000000000000000000000000000000000000000000083
:201E0000000000000000000000000000000000000000000000000010000000000040000072
:201E20000000020040500000000000000180004C00000000002800400000002000000000BB
:201E4000000000000000000000000000000000000000000000000000000000000000000082
:201E6000000000000000000000000000000000000000100000000000000000000000200032
:201E8000000000000000000000000000000000000000000000000000000000000000000042
:201EA000000000000000000000000000000000000000000000000000000000000000000022
:201EC000000000000000000000000000000000000000000000000000000000000000000002
:201EE0000000000000000040000000000000000000000000000000000000000000000000A2
:201F00000000000000000000000000000000000000000000000000000000000000000000C1
:201F20000000020040500000000000000180004C00000000002800200000000000000000FA
:201F4000000001002000000000000000000000000000000000000000000000000000000060
:201F6000000000004000000000000000000000000000000000000000000000000000000021
:201F8000000000000000000000000000000000000000000000000000000000000000000041
:201FA000200000000000000000000000000000000000000000000000000000000000000001
:201FC0000008004000800004004000000000000000000000000000000000000000000000F5
:201FE0000000000000000000000000000000000000000000000000000000000000000000E1
:202000000000000000000000000000000000000000000000000000000000000000000000C0
:202020000000000040100000000000000100000800000000002000200020000000000000E7
:2020400000000000000000000000000000000000000000001000000000000000F000100070
:20206000000000000000000000000000000000000000000000000000200000000000000040
:20208000000000000000000000000000000000000000000000000000000000000000000040
:2020A000000000000000000000000000000000000000000000000000000000000000000020
:2020C000010000200080000840000000000000000000000000000000000000000000000017
:2020E0000000000000000000000000000010000000000000000000000000000000000000D0
:2021000000000000000000000000000000000000008000000000000000000000000000003F
:2021200000000000000000000000000000000000000000000000000000000000000000009F
:2021400000000000000000000000000000000000000000000000000000000000F00010007F
:2021600000000000000020000000000000000000000020000000000000000000000000001F
:20218000000000000000000000000000000000003C011000000000000000240018010000B5
:2021A0003E011000000000000C0124001A000200080038080800C20001000000010001006E
:2021C000000000000000000000000000C00000000100000001000100180000002C101C0CC0
:2021E0000C000000840050A6A6008400000000006000006000000000030000000008000064
:20220000000030000101000000000000080400000000000004040000100000000000000068
:202220006000000001000000000000000A00180110001801000000000000000000000000F1
:00000001FF
