:20000000AFAA0F000000000000000000000000210F000006030000400100008008080081ED
:2000200003000C080C3000000C100300003E0000020E0030043800020F3800040020030024
:200040000F0100C0003E0000000002200000000445020600030C00E021FFFFFF62A0F041DF
:200060000C00000000000800040404043393000000000000000040020010301000101012D2
:20008000000000000000000000000000000000000054000900000060002A00110060000008
:2000A0000000006000000060001F0000000000000060000000610006001F0000000000007B
:2000C0000000001800070060000000000000000000000000000000000000000000000000A1
:2000E0000000000000000000000400003000000000000000000000000000000000000000CC
:200100000000000000000000000000000000000000010000000000000000000000000000DE
:200120000000000000000000000000000000000000000000000100000000000000000000BE
:200140000001000000000000000200000000000004000000000010000AFFFFFF0220F0006F
:200160000000000018000000000F0F0440340000000048ADC000C00000000000000000005C
:2001800000000000000000000000000000000000020E000000010000000101000002000C3E
:2001A00000000000000C0000000400000001000002000002000C0002000E01000008000005
:2001C0000001020E000001000800000000004000040000000010000006FFFFFF0220F0009C
:2001E00000000000000002110F040F0434340000000048ADC000C0000000000000000000E9
:2002000000000000000000000000000000000000000000000C0002000001000000010200CC
:20022000010000000C0102000E0000000800000000000000040100000C00000002000C0079
:2002400000000E000101000000800800000010100004000005000B0004FFFFFFEF55104835
:200260001C0000001800000004040404432500000008000800080008500A40A8C00040A8C8
:2002800000000000000000000000000000000000000000000000000000000001000100005C
:2002A000000000020000000000010000000000000000000000000000000000010000000238
:2002C00000000000000200010080000800000010000400000500000000FFFFFFEF551248DF
:2002E0001C0000000000000000040400300500000008000800080008500A40A8C00040A89B
:200300000000000000000000000000000000000000000000000700000100000000000000D5
:200320000000000001070000000000040000010001010000000001000000000200000000AB
:2003400000070100000000000800000000000401000400000500000000FFFFFFEF551248E4
:200360001C0000000000080004040404009500000008000800080008500A40A8C00040A8AA
:2003800000000000000000000000000000000000000000000000000200000000010000005A
:2003A000000000000001000000010100000000000000000002010000020000000000000035
:2003C000000202000100000100000000000000000004000005C0DE0F1EFFFFFFEA5592482D
:2003E0001C0000000000000004040404555500000008000800080008500A40A8C00040A81D
:20040000000000000000000000000000000000000C00000008240000020000300000020070
:20042000003000080412000000000036003600000C0000000100000100000C0600000000E2
:20044000020001010C0E003000000000000014504302000000002006180000000000000067
:2004600000000000000008000404040411910000000CF00C000C000C404C404C9058000C96
:20048000000000000000000000000000000000000000000000000002000200150000000241
:2004A0000003000000100005000300000000000000130008000400110000000000010002EE
:2004C00000030010000C00000000000000000014620300000006000211000000000000006B
:2004E00000000000000008000004040C10110000000CF00C000C000C404C404C9058000C93
:200500000000000000000000000000000000000000000000000004000000000005000200D0
:200520000000000003000400070000000000000000000000000000000000000000000300AA
:2005400006000000010000000000000000000000060000000001500009FF07FF4020F005DA
:200560000800000000000000040004040102000040A840200000000000000000000000001C
:2005800000000000000000000000000000000000140000000001030000301040090030008A
:2005A000001C0000003020460030004A400000001C0022002C04110030000C000000006EA6
:2005C00000011F78400E200100000028000050012503000000E0CB000EFFFFFF0000F04489
:2005E0000C000000010000000404040422220000000000000000C000000040020000000098
:20060000000000000000000000000000000000001200210000002000000000003811050435
:200620001900221E000706180007000800000000400000000010010021001800280000007B
:2006400001003E034000001C80080080000051042605000000E0C0B02AFFFFFF0000F044C9
:200660000C000000010000000404040423330000000000000000C000000040020000000005
:20068000000000000000000000000000000000000078008300020000006000800000070076
:2006A00004000100007800850100020000000000000000D70400000008000000012E06001D
:2006C000080700E4081807000020800A00001010020000000005000111FF07FF4020F005C3
:2006E0000800000000000000040404003303000040A8402000000000000000000000000068
:200700000000000000000000000000000000000000000000000000000100000000000000D8
:200720000000000000000000000000000000000000000000000000000000000000000000B9
:20074000000000000100000008000000000010004005000000D502011FFFFFFF00A00004A3
:20076000180000002700000004000404055500004000C0004040C000C000C000C000C00094
:20078000000000000000000000000000000000000400090009001020350008008020000036
:2007A0003C0402430000001C024040100000000000000000090020023C4000080000000057
:2007C0000302803C00407C018000000000004400010000000002020005FFFFFF00A0000030
:2007E00008000000000008000404040455950000800040404000400040004000400040006F
:200800000000000000000000000000000000000001000000000000000000000000010000D6
:200820000000000001000001000100000000000100000000000000000001000000000000B3
:200840000001000001000000200000000000000104000000000010000CFFFFFF0220F00046
:2008600000000000000000000F040F0404040000000048ADC000C0000000000000000000D5
:20088000000000000000000000000000000000000000000000000001000000000000000057
:2008A000000000000000000000000200010000000000020001000000000000010000000031
:2008C0000000000002000101800000000000104023000000005420000BFFFFFF022000057E
:2008E00000100000000008000404040401910000404080008000800000000000000000003E
:2009000000000000000000000000000000000000000000021F0000001F0000000000000097
:200920000000E0052A001100E000000061000600000060000000E000E000000454000900CF
:20094000600018008001070620000000000000403406010005000C0E14FFFFFF62A0F04193
:200960000C0000000000000004040400220200000000000000004002001030100010101277
:200980000000000000000000000000000000000000000000012200000019006600010110A3
:2009A000010E001101000000001F000001000000007700080044010000000000011F000012
:2009C000010F0060001000000000000000000004040600000000000000FFFFFF020CF80086
:2009E00000000000000002000404040411110900000048A100000000F000F000F000F00011
:200A00000000000000000000000000000000000000000000020000000000000003000000D1
:200A2000000000000100020000000400000000000400080000000000020001000000080098
:200A40000C00030000000000000000000000010004060000000000A000FFFFFF030CF400DC
:200A600000000000000000000400040001010000000048A100000000F000F000F000F000C3
:200A8000000000000000000000000000000000004F1090000C080000FF1E0000080000042A
:200AA000010100004C01A300F3180C00030100000000B30000064018041E0000421A000496
:200AC0008C1C7C000F02000100002A0800000010000000000000000000000000000000009E
:200AE000000000000000021204040004222000000000000000000000000000000000000094
:200B0000000000000000000000000000000000000000000000000000FFFF000000000000D7
:200B20000000000000000000FFFF0000000000000000000000000000FFFF000000000000B9
:200B4000000000000000000000000000000000000000000000000000000000000000000095
:200B600000003872380000000000000F0F00000000000000000000FF000000000000000076
:200B8000000000000000000000000000000000000000000000000000000000000000000055
:200BA000000000000000000000000000000000000000000000000000000000000000000035
:200BC000000000002F000000001F00720000000000000000000000000000000000008000D5
:200BE0000000000000000000000000000000000000000000000000000000000000000000F5
:200C00000000000000000000000000000000000000000000000000000000000000000000D4
:200C2000000000000000000000000000000000000000000000008000000000000000000034
:200C4000000000000000000000000000000000000000000000000000000000000100000093
:200C60000000000001000000000080000000000000000000000040000000000000000000B3
:200C800000000000000200000000000000000000000004000000000000000000000000004E
:200CA000000000000000010000000000000000000000000008000000020000000000000029
:200CC000000000000000000000000000000000000000000000000000000000000000000014
:200CE0000000000000000000000000000000000000000000000000000000000000000000F4
:200D00000000000000000020000000000000000000000000000000000000000000000000B3
:200D20000000000000000000000000000002000000000000000000000000000000000000B1
:200D4000000000000000000000000000000000000000000000000000000040000000000053
:200D60000000000001000000000080200000000000000000000000000000000000000000D2
:200D800001000000004000000000000000000000000000000000000000000000040000000E
:200DA00000000000000001000000000000000000000004000000000002000100000000002B
:200DC000000000000000000000000000000000000000000000000000000000000000000013
:200DE0000000000000000000000000000200000000000000000000000000000000000000F1
:200E0000000000000000000000400000000000000000000000000000000000000000000092
:200E20000000000000000000000000000000000000000000000000000000000000000000B2
:200E4000000000000000000000000000000000000000000000000000000000000000000092
:200E60000000000001000000000080200000000000000000000000000000000000000000D1
:200E8000000000000000000000000000000000000000000000000100000000000000080049
:200EA000000000000000000000000000000000000000000000000000000000000000000032
:200EC000000000000000000000000000000000000000000000000000000000000000000012
:200EE0000000000000000000000000000000000000000000000000000000200000000000D2
:200F00000000000000000000000000000000000000000000000000000000000000000000D1
:200F20000000000000000000000000000000000000000000000000000000000000000000B1
:200F4000000000000000000000000000010000000000000000000000000080000000000010
:200F6000000000000000000000000020000020000000000000000000000000000000000031
:200F8000000000000000000000000000000000000000000000000000000008000000000049
:200FA00000000000000000000000000000000100000000000400000000000000000000002C
:200FC00000000000000000000000000000000000000080200002000000000000000000006F
:200FE0000000000000000000000000000000A000000000000002000000000000000020002F
:201000000000000000000000000000000000000000000000000000000000000000000000D0
:201020000000000000000000000000000000000000000000000000000000000000000000B0
:20104000000000000000000000000000000000000000000000000000000000000000000090
:20106000000000000000000000000000000000000000000000000000000000000000000070
:2010800000000000000000000000000000000000000000000002000000000000000000004E
:2010A000000000000000000000000000000000000000000000000000000000000000000030
:2010C000000000000000800000000000000000000000000000000000000000000000000090
:2010E0000000000000000000000000000000000000000000000000000000000000000000F0
:201100000000000000000000000000000000000000000000000000000000000000000000CF
:201120000100000000000000000000000000040000000000000000000000000000000000AA
:2011400000000000000000000000000000000000080000021001011000002400100121000D
:20116000820008000200080A8000200000032015000000001440004200000000100020151E
:2011800000000000800004110000000010800A2040000000000000000010080000000000A8
:2011A00002000000000000000000000004000000000000000000000000000000140008010C
:2011C0000000000000000B100000000000000000000000400000000000000000C4000000F0
:2011E000400205002800200002100008100020428400000200020010000000080000000034
:2012000040210000000000000000000000000000F500F600FB00000000007000F000F00037
:20122000010004000000400000000000000000000000000000000000400000000000200009
:201240000000000000000000000000000000000010000000480000440000000000020008E8
:201260000000000000001010140000008082100000000000400400150000000020000004AB
:20128000000000000001200400000000000800800000000100800000200200840000000872
:2012A0000400304400000040001280082080000004000000000060000000000000000000D8
:2012C0000000000000010040000000000000000000A0000020000048000040100000000075
:2012E000000080000000101C001000000020204400000000400420000001100000004000F9
:2013000009800040000000200000000000000000F20050006000000000006000E0005000B2
:201320001100080000003F003400000000000000000000000000010080000000000001009F
:201340000000000000000000000000000000000000002002280000000000620010021100BE
:201360002100020002102002000240008000111400182100020000080106000000200004C1
:201380000000110002000000002084000000010040000000100000420010040001100020BE
:2013A000000000000000400800000000000000000000000080010000000000000000000064
:2013C0000001800000000000000004000000000000000000000000100000404000100000E8
:2013E00040000400002022400214040081020000A4000202000820000000000000000000BA
:20140000400002000000800000000000000000006500FD00F500000000002B0085008E0075
:20142000D100340000000000000000000000040000004000000080000000000000002000C3
:2014400000000000000000000000000000000000000000000000400010000002000000201A
:201460002002000000000000040002000000002000000001000001000020000008000004F6
:20148000000000004000204400181000800080032010000000020000200000020000000029
:2014A00000100000000040108802200000110840008018800200221000000001000000007C
:2014C000000000000000000002000C40000080000002100010000000800400002000000078
:2014E000000180000400020400100200410080050002800008046101000010400401000044
:2015000000000000000000000000000000000000100023000C0000000000240070001200E6
:20152000860000000000FF00FF000000000080002000000000000200000000000000200065
:2015400000000000000000000000000000000000000000002006000200000000080000005B
:20156000000000000028400000000000402020000400021020000009010204000000041821
:20158000000411000002A80080240000000000240408000000200009000400140000000077
:2015A00008000C000000001840000000000000400000C000020000000000000000000000BD
:2015C000000000000000000080000000000000000000000000000000000010120000000069
:2015E000800C0000000020000010000000000000A400000200000000000000000000000089
:2016000000000000000000000000000000000000F00020007000000000006B00F7006E007A
:20162000E600040000001800180000000000080020008000000000000000000000000000E8
:201640000000000000000000000000000000000040000000002000000000000448000000DE
:2016600008002000000080040018000000000008400040000000004000080000480000008E
:201680000800200000202004000002050008000000000001000000010001030000000200C7
:2016A0000008500000000000000100000000900000085000040000010000000000000000E4
:2016C000000000000000000000000000000000000000000000000000000001000000000009
:2016E000000000000400000000000000010000010002800000000109000000040000000054
:20170000000000080000000000000000000000004100A200360000000000A200660042005E
:2017200081001800000031003E000000000000000000800000000000000020000000000001
:20174000000000000000000000000000000000000800000220844001000028000000102240
:201760000200000000000016801008020004044000000000000002150000000000800010C8
:20178000000000000000001600000000000000240000000000000014000008C4000102022A
:2017A00010000010000040100000000000011440000000000000000026040000000000003A
:2017C000800000000000000000000000000000000000000000000000000000000004000085
:2017E0000008000000000020000000020000001500000800000000000000000000000000A2
:2018000000000000000000000000000000000000F500A6007100000000005000E00060002C
:20182000600014000000F00000000000000000000000100020000000000000000000000014
:201840000000000000000000000000000000000080001000000000000001190000000000DE
:20186000284000000000000000041400000000000000900008080012000400000000100121
:2018800000080400000000128060B0000000A00000000001000000010200010006200000CF
:2018A0000000008000000000010000000000000004000002000000000000000000000000A1
:2018C000000000000000000000000000000000000000000000000000000004000001008083
:2018E0008020010200002000000000000024201068020004000080000000004000000000A3
:201900000000000000000000000000000000000005000F000700000000003200A2003C009C
:2019200081001800000001000C0000000000000000004000000000000000000000000000C1
:201940000000000000000000000000000000000040000000004500000100080000051000E4
:201960000800004400011120406100000100540004010460004008020141000000000010EE
:201980000000040000000015001210040080000004000000000000200004000400210040FB
:2019A0000800000000001100000000000011440000000000000000000000000000000000B9
:2019C000000000000000000000000000000000000100000000000000000000000000000006
:2019E0000000000000000000000000000000000000000000000000000000000000000000E7
:201A000000000000000000000000000000000000B1003A00F700000000004900E2001700A2
:201A2000240030000000F00000000000000000000300000000000000000008000000000057
:201A4000000000000000000000000000000000002002000000000000000000000000000064
:201A60008000080000000000008000040000000080000840000000400044210000000020CD
:201A800028004000000000008015000000000002000200000002000000020000000000023F
:201AA000800000000000002000002000000000020000000000A00000001480200000000010
:201AC000284801000000000000008000000080008002000000000000000000000000000013
:201AE00080210002001000400000010280442030100000002008080000000000000000009C
:201B0000000000000000000000000000000000000A0000000A00000000004F000E008F00C5
:201B20008100000000008400300000000000810002000100000000000000080000000000E4
:201B4000000000000000000000000000000000001401000200000000000840040000000022
:201B60002400414000000000800140000000000000140104140000020045200280110800D0
:201B8000A00801000404012014004900100040060004401000000000100009400000000013
:201BA000000000010000000080000000000000000000400200000000000000000000000062
:201BC000000000000000000000000000000000008000001000000000000000000000000075
:201BE0000000000000000000000000000000000000000000000000000000000000000000E5
:201C0000000000000000000000000000000000000F000E000F0000000000EF00EF00FF00BB
:201C200007000C000000080008000000000000000000000000000000000000000000000081
:201C4000000000000000000000000000000000000000000000000000008000008000000084
:201C6000000000000000000000000000000000000000004000000048008000000000000854
:201C8000000000000000000000000000000000000000000000000000000000000000000044
:201CA000000000000000000000000000000000000000000000000000000000000000000024
:201CC000000000000000000000000000000000008000000040000000000000000000000044
:201CE000000000000000004040000000008000480000000000800008000000010080000093
:201D0000000010000000000000000000000000000000C00000000000E000300000000000E3
:201D2000000000000000000000000000000000002000000010000000000000006000000013
:201D400000000000000000000000000000000000000000001000000000020002100020003F
:201D600000000000000000000000000000000000000008000000000000000000000000005B
:201D8000000000000000000000000000000000000000000000000000000000000000000043
:201DA00000000004000000000000000000000000000000000000000000000000000000001F
:201DC00000000000000000000000000000000000000080040000000010000000000000006F
:201DE0000000000810000040400000000080804800000004000208080002000200000000E9
:201E0000000000800000000000000000000000008000F00000000000400000000000000092
:201E20000000000020000000000000000000000000008000200000008000000000008000E2
:201E400000000000000000000000000000000000000000000000000000000004000000007E
:201E6000000000001000004040000000008080CA00000004000008080000000100000000F3
:201E8000000040000000000000000000000000000000000000000000000000000000000002
:201EA000000000000000000000000000000000000000000000000000000000000000200002
:201EC0000000000000000000000000000000000000000000000000004000000000000008BA
:201EE0000000000000000000000000000000000000000000000000000000000000000000E2
:201F00000000000000000000000000000000000000000000000000000000000000000000C1
:201F20000000000000000000000000000000800000000020000000020000000000000000FF
:201F4000000000000000000000000000000000000000000000000000000000004000000041
:201F6000000000005000004000000000008080CA00000010000008080000001000000000D7
:201F8000000000000000000000000000000000000000C00000000000000000000000000081
:201FA000000000000000A000400000000000000000000000000000000000000000008000C1
:201FC000000000000000000000000000000000000000000000000000000000000000000001
:201FE0002000000000000000000000000000000000000000000000000000000000000000C1
:202000000000084000800002400000000000000000000000000000000000000000000000B6
:202020000000000000000000000000000000000000000000000000000000000000000000A0
:20204000000000000000000000000000000000001000000020000000000000000000000050
:20206000000000000000004000000000000080880000000000000008000000008000000090
:2020800000000000000000000000000000000000000000001000000000000000F000100030
:2020A000000000000000000000000000000000004000000080000000000010000000000050
:2020C000000000000000000000000000000000000000000000000000000000000000000000
:2020E0000000000000000000000000000000000000000000000000000000000000000000E0
:2021000080000008000000880000004000000000000000000000000000000000000000006F
:2021200000000000000080000000000000000000000000000000000000000000000000001F
:2021400000000000000000000000000000000000000000000000000000000000000000007F
:2021600000000000000000000000000000000000000000000000000000000000000000005F
:2021800000000000000000000000000000000000000000000000000000000000F00010003F
:2021A0000000000040000000000000000000000000000000000000000000000000000000DF
:2021C00000000000000000000000000000000000360110000000000000003201060000007F
:2021E0003E0110000000000018013C0106010C00000030000000C200E40000E4000000006D
:2022000000000000C10000F031003100000000000000000000000000C0000000400020404B
:20222000400040000000000001000000010001001C0000000000000000000200F40008F70A
:202240000700040000000000A05050001000030000000000000030000000000024000000CC
:202260004000000000000000010000000000000010000000A000000021110000000000003B
:202280000A00180110001801000000000000000000000000000000000000000000000000F2
:00000001FF
