:20000000000000000000020000000000000000210B00000C0300ABA0000000000000000058
:200020000000000000000000000000000000000000000000000000000000000000000000C0
:20004000000000000000000000000000000000000000000000000000610000000005040234
:2000600015FFFFFF0220000500100000000000000000040000020000404080008000800031
:20008000000000000000000000000000000000000000000000000000000000000000000060
:2000A000000000000000000000000000000000000000000000000000000000000000000040
:2000C000000000000000000000000000000000000000000000000000000000000000000020
:2000E000000000000000000000000000000002000000000400200B000000000000000000CF
:20010000000000000000000000000000000000000000000000000000000020000D001200A0
:20012000000000000000000000000000200000001E0001001700080000000000100002004F
:20014000000000000000050020001800030004000000000000000000040100000000000056
:2001600000FFFFFF020CF80000000000000008000400040C02220000000048A10000000053
:20018000F000F000F000F0000000000000000000000000000000000000000008FF00000098
:2001A0005C00A1103C01C2004002000518020005000704000000E3011008001008000000AE
:2001C000E7071800040000001F0198185802380400802A0000000014040100000000A0004C
:2001E00000FFFFFF030CF40000000000000002110404040444420000000048A1000000006D
:20020000F000F000F000F0000000000000000000000000000000000000000000000100001D
:200220000008000000010000000000020000000000000004000000040200000000000000A9
:2002400000000000000001000201000201040008000200000000005064020100050CE000E1
:2002600009FFFFFF62A0F0410C000000180000000404040424440000000000000000400267
:200280000010301000101012000000000000000000000000000000000000000000000000DC
:2002A00000000000000000000000000000000000000000000000000000000000000000003E
:2002C0000000000000000000000000000000000000000000000000000200000000101005F7
:2002E0001AFF07FF4020F0050800000000000800000004040094000040A840200000000096
:2003000000000000000000000000000000000000000000000000000000F740080400016039
:2003200000FFB00001DF02200800000000003060017E0681200080003004001090E90016FB
:200340000002071004010080C0407080070F083000002000000045002405000000002060B3
:20036000280000000000000000000000000000000404040023020000000CF00C000C000C04
:20038000404C404C9058000C00000000000000000000000000000000000000000001000050
:2003A00000010000A00053005001A300000000020000000000000C0200000000F30404004A
:2003C00031080800C2000800F001000800020F04000080000000005441030000000BE00CF5
:2003E00019FFFFFF0000F0440C000000010000000404040444330000000000000000C0005F
:2004000000004002000000000000000000000000000000000000000014000000000700007F
:20042000000800000010000000000301000200050C1871001002AC05000000180900F00030
:2004400040071000DC0102001F040018E00200018002280000004014040000000000100531
:2004600018FF07FF4020F0050800000018000000040404043333000040A84020000000002C
:20048000000000000000000000000000000000000000000000000000000000000000000C50
:2004A00000010000000300000000000404000000000301000100000000000000000000002B
:2004C0000000000000000200020804020104000100000000000004004005000000D20125C3
:2004E0003FFFFFFF00A00004180000002700000004040404555500004000C0004040C000E3
:20050000C000C000C000C000000000000000000000000000000000000100000000180000C2
:2005200000E7001800100400020000E3003C00C200FF0800005C08A10004000001080000AC
:2005400001000004004000000138041F02580898000000A800005000240301000500C00E0D
:2005600018FFFFFF62A0F0410C00000000000212040404043333000000000000000040025B
:200580000010301000101012000000000000000000000000000000000400000000000800CD
:2005A00000000000000000000100000004000000000000000100000000000800020000002B
:2005C000020000000000000001000400080002008A2000000000100003000000000001004C
:2005E0000CFFFFFF0220F00000000000000000000E040E0000000000000048ADC000C0004B
:200600000000000000000000000000000000000000000000000000000000000000000000DA
:200620000000000000000000000000000000000000000000000000000000000000000000BA
:20064000000000000000000000000000000000000000000000000000030000000010000087
:2006600006FFFFFF0220F000000000000000000000000E0000000000000048ADC000C000E2
:20068000000000000000000000000000000000000000000000000000C20008003100080057
:2006A00000000000A000530000000000000000005000A30000000C0000000000F300040051
:2006C000000000000000000000000000F0000F00000080000000000000000000000000009B
:2006E0000000000000000000000000000000000004000000030000000000000000000000F3
:200700000000000000000000000000000000000000000000000000000000000000000000D9
:200720000000000000000000000000000000000000000000000000000000000000000000B9
:20074000000000000000000000000000000000000000000000000000010000000020000078
:2007600002FFFFFF00A0000008000000000000000000040000050000800040404000400049
:20078000400040004000400000000000000000000000000000000000000000000000000059
:2007A000000000000000000000000000000000000000000000000000000000000000000039
:2007C000000000000000000000000000000000000000000000000000030000000000000115
:2007E00018FFFFFF0220F000000000000000000000000E0000000000000048ADC000C0004F
:200800000000000000000000000000000000000000000000000000000000000000000000D8
:200820000000000000000000000000000000000000000000000000000000000000000000B8
:20084000000000000000000000000000000000000000000000000000000000000000000098
:200860000000000000000000000000000000080000000004009000000000000000000000DC
:20088000000000000000000000000000000000000000000000000000000000000000000058
:2008A000000000000000000000000000000000000000000000000000000000000000000038
:2008C000000000000000000000000000000000000000000000000000000000000000000018
:2008E0000000000000000000000000000000000000000004000000000000000000000000F4
:20090000000000000000000000000000000000000000000000000000781000AC014006104C
:200920000000F800F8000000000907F004140100000C00710100020300001800280080006B
:2009400004DC0002D0000000601F070080E0180000000828000051001304000000006200ED
:200960000C0000000000000000000000000008000404040444920000000CF00C000C000C5D
:20098000404C404C9058000C000000000000000000000000000000000000000000730004D4
:2009A00000000000000000000073000C0000000000030014008000000000005E00000000C3
:2009C0000029001000000000000F006000800010000800020000005415030000000CE00B72
:2009E00019FFFFFF0000F0440C000000000008000004040440940000000000000000C000F9
:200A000000004002000000000000000000000000000000000000000003001400000000007D
:200A200000005E002900100000000000000000007300040073000C008000000000000000A9
:200A400000000000000000006000100080000F000200800000001500000100000300000BF1
:200A600010FFFFFFEF5510481C00000001000000040004040345000000080008000800083C
:200A8000500A40A8C00040A800000000000000000000000000000000000000003C800200AE
:200AA00000000000020840008970100835000800008000443C000000001100808900200064
:200AC0000070008704808922000F808003807C70820800000000405400040000020000004E
:200AE00000FFFFFFEF5512481C0000000000000004040404550500000008000800080008B5
:200B0000500A40A8C00040A8000000000000000000000000000000000000000000000000EB
:200B20000000000000000000000000000000000000000000000000000000000000000000B5
:200B400000000000000000000000000000000000000000000000000000040000020000008F
:200B600000FFFFFFEF5512481C0000000000080000000404009500000008000800080008F9
:200B8000500A40A8C00040A80000000000000000000000000000000000000000000000006B
:200BA000000000000000000000000000010000000000000000000000000000000000000034
:200BC00000000000000000000000000001000000000000000000000000010000030DCE0F26
:200BE0001DFFFFFFEA5592481C000000000000000400040403550000000800080008000822
:200C0000500A40A8C00040A800000000000000000000000000000000FF0000000000FF00EC
:200C20000000000000000000000000000000FF000000000000000000000000000000FF00B6
:200C4000000000000000000000000000000000000000000000000000000000000000000094
:200C60000000000000000000001F00743800000F382F740000000000000000000000FF00C0
:200C80000000000000000000000000000000FF000000000000000000000000000000FF0056
:200CA000000000000000000000000000000000000000000000000000000000000000000034
:200CC000000000000000000000000000000000000F00000000000000000000000000000005
:200CE0000020000000000000000000000000000000000000000000000000000000000000D4
:200D00000000000000000000000000000000000000000000000000000000000000000000D3
:200D2000000000000000000000000000000000000000000000000000000000400000000073
:200D4000000000000000000000000000000000000000000000000000000000000000000093
:200D6000002000000000000000000040000000000000000000000000000000000000000013
:200D8000000000000000000000000000000000000000000000000000000002000000000051
:200DA000000000000000000000000000000000000200000000000000000000000000010030
:200DC000000000000000000000000000000000000000000000000000000000000000000013
:200DE0000000000000000000000000000000000000000000000000000000000000000000F3
:200E0000000000000000000000000000400000000000000000000000000000000000000092
:200E20000000000000000000000000000000000000000000000000000000000200000000B0
:200E4000000000000000000000000000000000000000000000000000000000000000004052
:200E6000000000000000000000000000000000004000000000000000000000010000000031
:200E80000000000040024000000000000000000000000000000000000000000000000000D0
:200EA00000000000040000000000000000000200000000000000000000000000000000002C
:200EC000000000000000000000000000000000000000000000000000000000000000000012
:200EE0000000000000000000000000000000000000000000000000000000000000000000F2
:200F0000000000000000000000000000000000000000400000000000000000000000000091
:200F20000000000000000000000000000000000000000000000000000000000000000000B1
:200F4000000000000000000000000000000000000000000000000000000000000000000091
:200F600000000001000000000000000000000000000000000002000000000000000000006E
:200F80000000800000000000000000000000000000000000000000000000000000000000D1
:200FA000000000000000080000000000000000000000000000000000010000000000000028
:200FC000000000000000000000000000000000000000000000000000000000000000000011
:200FE0000000000000000000000000000000000000000000000000000000000000000000F1
:20100000000080000000000000000000000000000000000000000000000000000000000050
:201020000000000000000000000000000000000000000000000000000000000000000000B0
:2010400000000000000000000000000000000000000000000001000000000000000000008F
:2010600000000000000000000001000000000000000000000002000000000000000000006D
:201080000000000000010000900000000000000000000000000000000000040000000000BB
:2010A000000008000000000000000000000000000000000000000100000000000000000027
:2010C00004000000000001000000000000000000000000000000000000000000000000000B
:2010E0000000000000000000000000000000000000000000000000002000000000000000D0
:201100000000000000000000000000000000000000000000000000000000000000000000CF
:201120000000000000000000000000000000000000000000000000000000000000000000AF
:2011400000000000000000000000000000000000000000000000000000000000000000008F
:201160000000000000000000000000000000000000000000800200000000000000000000ED
:2011800000000000000000000000000000000000000000000000000000000000000000004F
:2011A00002000000000000000000000000000000000000000000000000000000000000002D
:2011C00000000000000000000000000000000000000000000000000000000000000000000F
:2011E0000000000000000000000000000000000000000000000000000000000000000000EF
:2012000000000000000000000000000000000000000000000000000000000000800000004E
:201220000000000000000000000000000000000000000000000000000000000000000000AE
:2012400000000000000000000000000000020000000000000000000000000000000000008C
:2012600000000000000000000000000000000000000000000000000000000000000000006E
:2012800000000000000000000000000000000000000000000000000000000000000000004E
:2012A000000000000000000001000000000000000000000000000400000000000000000029
:2012C00000000000000000000000000000000000000000000000000000000000000000000E
:2012E0000000000000000020000000000000000000000000001000000000000000000000BE
:20130000000000000000000000000000000000000000000000000000002040000040000825
:20132000000000000000000400000000200048000000010001000000C00000000000480433
:2013400000000000000000000000000000000000000000000000000021000000000000006C
:201360000000010000000000000040004000000000000008801000000060001000000000E4
:201380000000000C0000000000000020000000000000000000000000000020000000000001
:2013A0000000000000000000550000000000810071000000000000000000000000000000E6
:2013C0000000000020000000000000000000000000000000000000000000000000000000ED
:2013E0000000000000000000000000000000000000000000000000000000000000000000ED
:201400000000000000000000000000000000000000000000000000000000000000000000CC
:20142000000001800000000000000000000000000000002820080280000400080A0402003D
:201440000000000000000000000000000000000000000000000000000000020C20400020FE
:20146000000010800000000000000080000000000A481000000000000000000000000000FA
:201480008000040000000008200100400A0400010000000000000000000000000000000050
:2014A0000000000000000000000000000000F600F600000000000000000000000000000040
:2014C000200001008000010000000000000000000000000000000000844000000010024450
:2014E0000100128000000600020020000002000005021004080203080220050800000000D0
:201500000101000400000000000021000202000004400000000000000020400000400008B4
:2015200000000000000000000000000000080000000000000009006000000000000000003A
:201540000000000000804000020100000000000000010080000000000000108005000100B1
:201560000000044000080000000204804100210000080240820000044000201002020000F3
:2015800000000A002100001000004000800005000000000000000000D500CD001500000094
:2015A00000000D0005000A00550000000000F0000000000000000000200080000200100018
:2015C00008005000C80000000000000000000000000000000000000000000000A800400003
:2015E0000000030000001180000000000000A9000000000000A21008000011220800105455
:2016000000010048000000082000014000011840080000000800090000000104008A000017
:2016200021000000000000000000082000008010010000000021004800000200004810808D
:20164000000000000000000000000000000000000000000000000000000000200100000267
:201660000000000200201000A000000200000000000561008000043005080000002002123B
:20168000020000201100500810000080104040000000000000000000F000B000F00000000F
:2016A00000002500FD00C200DA0008000000F100F1000000000000001000C800040018008E
:2016C00008008000040003000000000000000000000000000000000000000000000040003B
:2016E00000002208000185000200000000000A040018000202009410180041000000050A02
:201700000000000080009000020020000020880110000088000040140000000200020000FE
:201720000006020000000000000022440000083000168000000000020400000000801000D7
:201740000000000000000000000000000000000000000000000000000000406000001010C9
:201760000400100000200000040000044100100000808001A2000008400098000000000059
:201780000000000000000020000400200000000000000000000000001000D700E10000003D
:2017A0000000B000F5007E008100080000008F00340000000000000010002000000000008A
:2017C0000000010020008000000000000000000000000000000000000000020024000841F9
:2017E0000000420010000162021400000200640000804200040A00A000510400A041A14031
:20180000200010000000A900020048000000240000140000008A10000040000B0022000066
:20182000100000000040000004001000000021018120080000000000000000000000000079
:20184000000000000000000000000000000000000000000000000000242001000010200013
:20186000000080400000010000141002000200000005C0000080003007040C0000000200F1
:20188000000000000040000820000800000000000000000000000000F100F900F7000000F7
:2018A0000000F6006B00F600AB00100000000F0000000000000000000E0080000100040074
:2018C00000000100000008000000000000000000000000000000000042000000000040205D
:2018E00002A00200000000A2280000004000240004804008000120A00010890400002000CC
:20190000804088080000000010008801000000008820000000000000009050012000000035
:201920000040000000000000002400000000401010001008000000000000000000000000CB
:201940002D000000000000004400080000000000000000000000200000000000000000806E
:2019600000000000000100000000000041000000404024002000000040000041250020009B
:201980000000000000000000400000000000000000000000000000003900BB00760000009D
:2019A00000000F000F000E004F000800000002000000000000004000000000000000400022
:2019C000A800000000008000000000000000000000000000000000000000000000000000DF
:2019E0000000000000000000800002000000000000010400000000000206008400000000D4
:201A000000000000000000000002402000000000800010080000000080010090000000209B
:201A200020900080800000000000002004001000000002000000004800400004000400022E
:201A4000000000000000000000000000000000000000000000000000000000000000004046
:201A6000000000000000000080149208000804800010C00080000090020404800000020040
:201A8000000000000000080000C00000000000000000000000000000000000000900000075
:201AA000000000000D000E002D000C00000051005C000000000000000000000000004800DD
:201AC0002800000000000000000000000000000000000000000000004A0000000000000094
:201AE00000000500000000002000000000000000004005000000000000000000000000007C
:201B00000000000000000000000000000000000000000000000000000000000020000000A5
:201B2000000000000000000200000000000000400000000000000000000000000000000063
:201B4000000000000000000000000000000000000000000000002000000000000000000065
:201B60000000000000000000000000000100000000002400200000004000000000002000C0
:201B80000000000000000000000000000000000000000000000000000D0003000400000031
:201BA0000000000000000000400000000000000000000000000040000000000000000000A5
:201BC000000000000000000000000000000000000000000000000000000000190204008066
:201BE000C0080480008408008400020400400004005100880086180000005900000000006F
:201C000004100100000080024001001900000000020000A00000000000820000008200002D
:201C20000000000000000000000000100000000000002000008000000000000000004000B4
:201C4000021400000048000480080004000001000000000000000002000000000000000093
:201C60000000000000000000800000080000000000008000000000000000000000800000DC
:201C80000000000000000000000000000000000000000000000000003700EF00AF0000006F
:201CA000000005000F000D0099000000000014001000000000001000000000000000000036
:201CC000000000000000000000000000000000000000000000000000000000000000000004
:201CE0000000000000000000000000000000000000000000000000000000000000000000E4
:201D00000000000000000000000000000000000000000000000000000100000020000000A2
:201D200040000000000000000000000000002400000000000000000000000000000000003F
:201D4000000000000000000000000000000000000000000000002000000000000000000063
:201D6000000000000000000000000000000000000000000000000000000000000000000063
:201D8000000000000000000000000000000000000000000000000000000000000000000043
:201DA00000000000000000004800000000000000000000000000400000000000000000009B
:201DC000000000000000000000000000000000000000000000000000000000000000000003
:201DE0000000000000000000000000000000000000000000000000000000000000000000E3
:201E00000000000000000000000000000000000000000000000000000080008000000000C2
:201E200008000008000000004800000000000000000000000000000000000000000000004A
:201E4000000000000000000000000000000080000000000000000080000000000000000082
:201E6000000000000000000000000000000000000000000000000000000000000000000062
:201E8000000000000000000000000000000000000000000000000000000000000000000042
:201EA000000000000000000008000400000000000000000000008000000000000000000096
:201EC000000000000000000000000000000000000000000000000000000000000000000002
:201EE00000000004002000000000000000000000000000000000000000000080800080003E
:201F00000080000000008000000080000080000080000000000080000000000000000000C1
:201F200000000000000000000000000000000000000000000000000000000002000000009F
:201F400000000000000000000000000000000000000000000000000000200000000000045D
:201F60000000000000000000000000000000000000000000000000800000000100000000E0
:201F80000000000000000010800000400000000000000000000000000000C00000000000B1
:201FA000E00030003000300000000000000040000000000000000000600000000000000011
:201FC0001000000000000000000000000000000000000000000000000000000000000001F0
:201FE0008000008000000210000000000000000000000000000000001000000000000000BF
:202000000000000000000000000000000008000010000000000000000000000000000000A8
:2020200000000000000000000000000100000000000000000000000000000000000000009F
:20204000000000000000000000000000000000000000000000000000000000000008000177
:2020600000008000200001010000000000000000000000000000008000000001200080009D
:202080000000000000000000000000010000000000000000000000008000F00000000000CF
:2020A000400000008000100000000000800000000000000000000000400000000000100080
:2020C000000000000000000000000000000000000000000000000000000000000000000000
:2020E0000000000000000000000000000000000000000000000000000000000000000000E0
:2021000000000000000000000040000000000000000000000000000000000000000000007F
:2021200000000000000000000000000000000000000000000000000000000000000000009F
:2021400000000000000000000000000000000000000000000000000000000000000000007F
:202160000040000000000000000000000000000000000000000000800000000020008000FF
:2021800000000004002000000000000000000000000000000000000000001000000000000B
:2021A00000000000100000000000000000000000000000000000000000000000000000000F
:2021C00010008000000000000000000000000000000000000000000000000000000000006F
:2021E00080000000002000000000000000000000000000000000000000000000000000003F
:202200000000000000000000000000000000000400000000000000000000000000000000BA
:202220000000000000000000000080000000000000000000000000000040080000000000D6
:202240000000000000000000000000000000000000000000000000000000000080400000BE
:202260000000000000000800000000000000000000000000000000800000000020000000B6
:202280000000000000000000100000000000000000000000000000000000C000000000006E
:2022A0000000000080000000000000002000400040000000000000000000000040001000AE
:2022C0000000000000000000000000000000000000000000000000000000000000000000FE
:2022E0000000000000000000000000001000000000000000000000000000000000000000CE
:202300000000000000000000000000000000000000000000000000000000000000000000BD
:2023200000000000000000000000000000000000000000000000000000000000000000009D
:2023400000000000000000000000000000000000000000000000000000000000000000007D
:202360000000000000000000000000000000000000000000000000800000000020000000BD
:2023800000000000000000000000000000000000000000000000000000000000200010000D
:2023A00000000000000000000000000000000000000000000000000000000000000000001D
:2023C0000000000000000000000000000000000000000000000000000000000000000000FD
:2023E0000000000000000000000000000000000000000000000000000000000000000000DD
:2024000000000000000000002000000000000080000000000000000000000000000000001C
:2024200000000000000000000000000000000000000000000000000000000000000000009C
:2024400000000000000000000000000000000000000000000000000000000000000000007C
:2024600000000000000000000000000000000000000000000000000000000000000000005C
:2024800000000000000000000000000000000000000000000000000000000000000000003C
:2024A0000000000030000000000000000000000000000000000000000000000000000000EC
:2024C0000000000000000000000000000000000000000000000000003C01100000000000AF
:2024E00000001401380100003D0110000000000014001C0129002900000000000000C200FB
:20250000F40000E41000100000000000C10000F031003100000000000000000000000000B0
:20252000D00000002000402030002000000000000000000000001C000000000000000200DD
:20254000F40008F70700040000000000805051001000020000000000240000000020000006
:202560000000100000040000000000000000000080000100001000000000000000000000B6
:202580004000000007001901100018010000000000000000000000000000000000000000B1
:00000001FF
