:20000000AFAA0F000000000000000000000000210004000000000600000000000C00000041
:2000200000040001000000000001000200000E00000000070101000600000A00040000008D
:20004000000000000E0001070000208000000000030000000000105028FF07FF4020F00505
:200060000800000000000000040404002202000040A8402000000000000000000000000000
:20008000000000000000000000000000000000000000010000000100000100000000041C3D
:2000A0000012040000060018040600080000000002000000000604080400000000000000E2
:2000C0000401021E0000010000000008000045016402000000ECB0000BFFFFFF0000F0446E
:2000E0000C000000010000000404040420220000000000000000C00000004002000000009F
:20010000000000000000000000000000000000000080002000450008001E0000004500107F
:2001200000000000005A0004011E008000000000010000000000000000000000000200457A
:200140000100000100C0003E0080000000000040010000000000002020FFFFFF00A0000001
:20016000080000001800000004040404553500008000404040004000400040004000400045
:200180000000000000000000000000000000000012042000000300002800000038000400C2
:2001A000000100000003060000080000010000000000200220001800180022000000000098
:2001C00000003E0801030004002000000000101401000000001050000AFF07FF4020F005C8
:2001E0000800000000000000040404003203000040A840200000000000000000000000006E
:200200000000000000000000000000000000000000000000000000000000000000000002DC
:200220000000000000030200000100000200000001030000020000000000020000000200AC
:20024000020300000100000000020000000011014203000000E0CB000EFFFFFF0000F04455
:200260000C000000010000000404040400330000000000000000C00000004002000000002C
:2002800000000000000000000000000000000000000000000000000000010000000200005B
:2002A00000000000000200000000000000000000000000000000000000000000000200003A
:2002C000000000000001000200080000000000102006000000D520011FFFFFFF00A0000427
:2002E000180000002700000000040404505500004000C0004040C000C000C000C000C000CE
:200300000000000000000000000000000000000000020004000100000000000400000000D2
:200320000100000000000000000000020001000000000000000000000000030000000000B6
:200340000200000100060100000800000000001062000000005420000BFFFFFF0220000576
:2003600000100000000002000404040411110A00404080008000800000000000000000002F
:2003800000000000000000000000000000000000F7000800000080600000000C996F660004
:2003A000000000008E0011009F0000009F2500002200006F004A8000440000000163101018
:2003C000801C0F60600310000080000000001055340200000000600218000000000000000A
:2003E00000000000000008000404040C01110000000CF00C000C000C404C404C9058000C9F
:2004000000000000000000000000000000000000003100000000002000000000000000018A
:2004200000100020003000000E01010005040A12002000160B020414020108200032040863
:20044000003000020C01030C0000000000000044050200000000000000FFFFFF020CF80000
:2004600000000000000000000404040411010000000048A100000000F000F000F000F000B1
:20048000000000000000000000000000000000000000000200000002000000000000000058
:2004A000000000000005000000010004000000000005000000000000000000000001000428
:2004C00000000004000200010008800000000050050200000000A00000FFFFFF030CF40096
:2004E00000000000000002100404040433310000000048A100000000F000F000F000F000CD
:2005000000000000000000000000000000000000010200140C2300C04CE0A30308E3000018
:200520004F0190100003B30804C0000042C00023FF80000003400000F3000C230000400000
:200540008C047C030F1800E000002A000000001026050400030000EC30FFFFFF62A0F041CD
:200560000C00000000000800040404043393000000000000000040020010301000101012CD
:2005800000000000000000000000000000000000000000003F0000000100060020000000F5
:2005A0000A00110000000000000000001400090000000000000000003F00000000000000C4
:2005C00018000700200000000000000000000000350200000020000612000000000000006D
:2005E00000000000000000000400040003010000000CF00C000C000C404C404C9058000CC3
:200600000000000000000000000000000000000002000000000101000000000000020000D4
:20062000040001011C0100000000000600010000000010001C00000100000800000000005B
:200640000100020100021C04000800000000440400040000020B000001FFFFFFEF55104879
:200660001C0000000000000004040400550500000008000800080008500A40A8C00040A8EE
:2006800000000000000000000000000000000000000000000000000000000000000000005A
:2006A00000000000030104060004000103000C0000010002030004000904000000000E07EC
:2006C0000000000700000F000000800800000000000400000200000000FFFFFFEF551248DB
:2006E0001C0000000000000004040404330500000008000800080008500A40A8C00040A88C
:200700000000000000000000000000000000000014000005000010000000000000000000B0
:2007200000000300000000030006000010080C00000000000C0011001C020200090010072C
:200740001F000008000700000000002000000004000400000600000000FFFFFFEF551248A2
:200760001C0000000000000004040400330500000008000800080008500A40A8C00040A80F
:20078000000000000000000000000000000000000000000000000000000000080001001040
:2007A00000000100000001020100000000000004010800000000000001000007000000001F
:2007C0000000000F0110000000000000000010000004000002CFDE000FFFFFFFEA55924811
:2007E0001C0000000000000004040404505500000008000800080008500A40A8C00040A81E
:200800000000000000000000000000000000000016000920171F0800001F0000000000003C
:200820001F000000000A00111900060000010106000000000200002006000000041400090E
:2008400000070720101808008000020000001004010000000000000130FFFFFF0220F00063
:20086000000000001800000004040C0422240000000048ADC000C00000000000000000008D
:20088000000000000000000000000000000000000000000000000000000000000000000058
:2008A00000000000000100000000000000020000000200000100000001000000010100002F
:2008C00000010000000201000022000000000000010000000010000006FFFFFF0220F000CC
:2008E0000000000000000211040E0E0442240000000048ADC000C0000000000000000000E6
:200900000000000000000000000000000000000000000000000000000100000000000000D6
:200920000000000000000000000000000000000000000000000000000100000000000000B6
:200940000000000000000100800A000000000000010000000001000011FFFFFF0220F000EA
:2009600000000000000000000E040E0044040000000048ADC000C00000000000000000009A
:2009800000000000000000000000000000000000030000034C00A300010000200800002019
:2009A000FF00000300014010F3030C000003B3084F039000040000000C00000342020014D7
:2009C0008C037C180F04002000002A0000000044350406000200EC000CFFFFFF62A0F041EA
:2009E0000C000000000008000404040422920000000000000000400200103010001010125B
:200A0000000000000000000000000000000000000000000000000000FFFF000000FF0000D9
:200A2000000000000000000000FF000000FF0000000000000000000000FF000000FF0000BA
:200A4000000000000000000000000000000000000000000000000000000000000000000096
:200A60000000000F38000F2F1F000072000000000000000000000000000000000000000060
:200A800000000000000000003872000000000000000000000000000000000000400000006C
:200AA0000000000040000000000000000000000000000000000000000000000000000000F6
:200AC000000000000000000000000000000000000000000000000000000000000000000016
:200AE0000000000000000000000000000000000002000000000000000000000000000000F4
:200B00000000000000000000000000000000000000000000000000000000000000000000D5
:200B20000000000000000000000000000000000000000000000000000000000000000000B5
:200B4000000000000000002000000000000000000000000000000000000000000000000075
:200B6000000000000000000000000000000000000000000000000000000000000000000075
:200B8000000000000000000000000000000000000000000000000000000000000000004015
:200BA000000000004000000000000020000000000000000000000040000000000001000094
:200BC00000000400000080200000000000000000000000000000000000000000040000006D
:200BE0000000000000000000000000000000000000000000020000000000000008000400E7
:200C00000000000000000000000000000000000000000000000000000000000000000000D4
:200C20000000000000000000000000000000040000000000000000000000000000000000B0
:200C4000000000000000000000000000000000000000000000000000000000000000000094
:200C6000000000000000000000000000000000000000000000000000000000000000000074
:200C8000000000000000000000000000000000000000000000000000000000000000000054
:200CA00000000000400100000000000000008000000000000000004000000004000000002F
:200CC000000000000000000000000000000000000000000000000100000000000000000013
:200CE0000000000000000000000000000000000000000000000000000000000000000000F4
:200D00000000000000000000000000000000000000000000000000000000000000000000D3
:200D20000000000000000000000000000000000000000000000000000000000400000000AF
:200D4000000000000000000000000000000000000000000000000000000000000000000093
:200D6000000000000000000000000000000000000000000000000000000000000000000073
:200D8000000000000000000000000000000100000000000000000200000020000000000030
:200DA0000000000040000000000000000000A0000000000000000240000000000000000011
:200DC000000000000202000000000000000000000000000000000000000008000000000007
:200DE0000000000000000000000000000000010000000000010000000000000008000200E7
:200E00000000000000000000000000000000000000000000000000000000000002000000D0
:200E20000000000000000000000000000000000000000000000000000000000000000000B2
:200E4000000000000000000000002000000000000000000000000000000000000000000072
:200E6000000002000000000000000000400000000000000000000000000000000000000030
:200E8000000000000000000000000000000000000000000000000000000000000000000052
:200EA000000000000000000000000000000080000000000000020040000000000000000070
:200EC000000000000000000000000000000000000000040000000000000000000000080006
:200EE0000000000001000400000000000000000000000000000000000000000000000000ED
:200F00000000000000000000000000000000000000000000000000000000000000000000D1
:200F20000000000000000000000000000000000000000000000000000000000000000000B1
:200F400000000000000000000000000000000000000000000002000000000000000000008F
:200F6000000000000000004000000000000000000000000000000000000000000000000031
:200F80000000000000008000000000000000000000000000000000000000000000000000D1
:200FA000000000000000000000000000000000000000000000000000000000000000000031
:200FC000000000000000000000000000000000000000000000000000000000000000000011
:200FE0000100000002000000000000000000040000000000000000000000000000000000EA
:201000000000000000000000000000000000000020000000000402440040000100022900FA
:201020000800000002000029020000000005080400040200004011100000000040000005BE
:201040000000000020010045000000001000019000400000600200101000000000000110B6
:201060000800000000000060000000000000004000000000020000020000000000000000C4
:20108000000000000000000020080400000000000000000000000000000000000100000023
:2010A00010800340000800030000026C0005000000020000000007200000000000000000B6
:2010C00000000000000000000000000000000000F200F000F20000000000B000F000B000EC
:2010E000E800300000001000100000000000020000000000000000000000000000000000B6
:2011000000000000000000000000000000000000000220000000000000024010000001203A
:201120009008080000400028008210000000014000481000000000201000000000402040AC
:20114000800228000000002800800004000000000400080100000801000010000000000013
:2011600000000000000000000000000000000000000000000000000000000000000000016E
:201180000000000000000000000000000000000000000000008000000000000000080000C7
:2011A0000440401400003080000020080000002180042810000010000000000000000000D2
:2011C000000000000000040000000000000000000C00AC00EE0000000000B2006F000A003A
:2011E000A500000000000000000000000000000000000000000010000000400000000000FA
:20120000000000000000000000000000000000000000000000050000000000000000490080
:20122000021400000000022800000300111240008400000000080044000200010000002114
:2012400080000008000000440000000001140000024000000208200000020000000000003F
:2012600080000000000000090010000000000200000000000000200102140000000000009C
:201280000000022800000000000800000000020000000000000000000000004004000000D6
:2012A000008000000000000000000000000000000000000040000000000000000000000866
:2012C000000000800040000000000000000000003000D000E7000000000059005A00E000D4
:2012E0001800000000008400300000000000120020000000000000000800000000000000E8
:20130000000000000000000000000000000000000000000000006000040C40040000810098
:2013200080000800004000280C0000000000800000100010000004080400010000402000A0
:201340008000080000004028000080100000010004000001000000010005000004000000FD
:20136000000090000000000000010000000000000004900000000000000000000000000048
:2013800000000000000000000000000000000000000010000000000000000000000000003D
:2013A00000404104002020900000E1000000002880082810000010000000000000000000FF
:2013C0000000100000000000000000000000000030009E00EA000000000035007A008C000A
:2013E00085002000000001000E000000000000002000000000000000000080000000000099
:20140000000000000000000000000000000000000082002000000000200012000000800078
:20142000824404000000002000861481000082000055000000000028000004810000000023
:201440008000000000008020280040002000000900150000002000000000000000008028FE
:20146000140000000000001000000080000000000000400000000000000000000000000088
:20148000000000000200000000400000040000000000000000000000000000000000000006
:2014A000040402010000040020000400000440009020002040000181000000000000000023
:2014C000000000002100000000000000000000000D0017004F00000000000B003800EE0047
:2014E000270020000000080008000000000048000000000000000000000000000000040049
:2015000000000000000000000000000000000000000000000000000000000000000011209A
:201520000000000000410028000000000000880014004000000000400000000140000140A4
:2015400000000800000000289000000000C000000010000040200008000120200001000051
:20156000C0040810000040100801A0000001980004000000000000000000000000000000F9
:201580000000C0000000000000000000080000100000000000000000000000000000000073
:2015A0000000000480080010000021000000804000680001800000000000000000000000C5
:2015C000000000000000040000000000000000000000A000F00000000000880062001C0071
:2015E000E40004000000FF00040000000000000000000000000000000000400000000400BC
:201600000000000000000000000000000000000000000000000000000020010000000000A9
:20162000084010000000000002100120000000400624010000044008001014810000004182
:20164000802401000000140002440000000A000004000000002000000000014000000040DC
:2016600000000000100000000000000000008000000000000000000008440000002000115D
:2016800000000001200002200000000000000000000000084000000000004000000000007F
:2016A00000000002000806800000040000000231800114002110000000000000000000009D
:2016C00000000100000040000000000000000000000003000700000000009F006F00CB00E6
:2016E00024001800000010000000000000000000020000000000000000002000100000006C
:2017000000000000000000000000000000000000000000002002000100000008000020017D
:201720008000000000010804000000010020200001081004004004080000800000020040B0
:201740000008100000001805800A001800000C010100000000000040000000000000000163
:20176000000101000000200000000100000000000440000000000000000000000000000002
:20178000000000000000000000000000000000000400000000000000000000000000000045
:2017A000200105800000000000400001000000080000080000000000000000000000000032
:2017C00000000000000000000000000000000000D000A2007800000000008800E600CF00E2
:2017E00018000000000001000C000000000000000000040000000000000020001000000090
:201800000000000000000000000000000000000000000015100102200000800120020021BC
:201820000020000000004844002580101022A801000000000000884800000000202002005A
:201840000000000000054024000040C010000841000404004020080881000000000000606D
:2018600000000400000100080000000000004000000000000000000100000000000000001A
:20188000000000000000000000000000000000000000000040008808000000000000000078
:2018A000000000000000000000000000000000000000000000000000000000000000000028
:2018C00000000000000000000000000000000000F700F900F20000000000E000F000F00066
:2018E000E600380000001000100000000000000000000000000000000000000000000000AA
:20190000000000000000000000000000000000000A00000104000001000004800000020031
:20192000300088000000112000444000040006600001082000000001000000200000006026
:201940002000080100000021000010800001000200010400000000082001880000000000F4
:201960001000000000001101100540000000000000000000000000000000000000000000F0
:20198000000000000000000000000000000000000000000005000100000000000000000041
:2019A000000000000000000000000000000000000000000000000000000000000000000027
:2019C00000000000000000000000000000000000AD008A00EE0000000000C200A7008C00ED
:2019E0004500040000000F0000000000000000000000080000000A0000000000000000007D
:201A00000000000000000000000000000000000000000000000000000000000000000000C6
:201A200000000000000000000000000000000000400000000000004800800000010000009D
:201A4000000000000000000000000000000000000000000000000000000000000000000086
:201A6000000000000000000000000000000000000000000000000000000000000000000066
:201A8000000000000000000000000000000000000000000004000000000000000000002022
:201AA0000000000040000000000000000580006800000000000000000000000000000000F9
:201AC000000000000000008000000000000000000000000000000000E00030000000000076
:201AE0000000000000000000000000000000000000001000000000000000000000000000D6
:201B00000000000000000000000000000000000000000000000000000000000010000000B5
:201B200000000000000000000000000000000000000800000000000000000000000000009D
:201B4000000000000000000000000000000000000000000000000000000000000000000085
:201B60000000000000000080000000000000000000000008000000000000000000000000DD
:201B80000000000000000000000000000000000000008000000000001000000000000000B5
:201BA00000000000400000000000000005808068000000040008000000000000000000006C
:201BC000001000000000000000000000000000000000800000000000400000000000000035
:201BE0000000000040000000400000000000000000008000000000000000000000000000E5
:201C00000000000000000000000000000000000000000000000000000000000000000000C4
:201C20000000000040100000000000000580806800000004000800000000002000000000BB
:201C4000000000000000000400000000000000000000000000000000000000000000000080
:201C6000000000000000000000000000000000000000000000000000000000000000200044
:201C8000000000000000000000000000000000000000000000000000000000000000000044
:201CA000000000000000000000000000000000000000000000000000000000000000000024
:201CC000000000000000000000000000000000000000000000000000000000000000000004
:201CE0000000000000000000000000000000002000000000000000000000000000000000C4
:201D00000000000000000000000000000000000000000000000000000000000000000000C3
:201D20000000000040100000000000000580804800000000000800200000000000000000DE
:201D4000000020002000000000000000000000000000000000000000000000000000000043
:201D6000000000000000200000000000000000000000000000000000000000000000000043
:201D8000000000000000000000000000000000000000000000000000000000000000000043
:201DA000200000000000000000000000000000000000000000000000000000000000000003
:201DC000000800400480000000100000000000000000000000000000000000000000000027
:201DE0000000000000000000000000000000000000000000000000000000000000000000E3
:201E00000000000000000000000000000000000000000000000000000000000000000000C2
:201E2000000000004000000000000000010080080000000000002020000000000000000099
:201E400000000000000000000000000000000000000000001000000000000000F000100072
:201E6000000000000000000000000000000000000000000000000000000000000000000062
:201E8000000000000000000000000000000000000000000000000000000000000000000042
:201EA000000000000000000000000000000000000000000000000000000000000000000022
:201EC000010000200000200840000000000000000000000000000000000000000000000079
:201EE000000000000000800000000000000000000000000000000000000000000000000062
:201F00000000000000000000000000000000000000000000000000000000000000000000C1
:201F20000000000000000000000000000000000000000000000000000000000000000000A1
:201F400000000000000000000000000000000000000000000000000000000000F000100081
:201F6000000000004000000000000000000000000000000000000000000000000000000021
:201F8000000000000000000000000000000000003C011000000000000000280014010000B7
:201FA0002E0110000000000004002C000A000A01080038080800C200010000000100010088
:201FC000000000000000000000000000C00000000100000001000100180000002C101C0CC2
:201FE0000C0000004400906666004400000000006000006000000000030000000800000026
:20200000000030000100000000000000080C00000000000004400000100000000000000027
:202020006000000001010000000000000A00180110001801000000000000000000000000F2
:00000001FF
