:2000000000200000000000000000000000000021030CC000C0000000000000000000000010
:200020000000000000000000000000000001000000000000000000000000000000000000BF
:2000400000000000000000000000000000000001000000000000000000000000000000009F
:2000600000000000000000000000000000000000000400004000000000000000000000003C
:20008000000000000000000000000000000000000000000000000000000000000000000060
:2000A000000000000000000000000000000000000000000000000000000000000000000040
:2000C000000000000000000000000000000000000000000000000000040000000001000516
:2000E00011FF07FF4020F0050800000000000000000004000004000040A84020000000003D
:20010000000000000000000000000000000000000000000000000000000000037340041015
:2001200073100CAC00140000290010000000000000000000000900F0000C5E71030014004C
:200140000000000080DC0002601F0F0080E01000020808A00000510434060000000CEB000B
:200160000DFFFFFF0000F0440C000000010000000404040444440000000000000000C000DC
:2001800000004002000000000000000000000000000000000000000000000000000000001D
:2001A00000000000000000000000000000000000000000000000000000000000000000003F
:2001C00000000000000000000000000000000000000000000000000001020000000000001C
:2001E00000FFFFFF020CF80000000000000000000000040000020000000048A1000000000D
:20020000F000F000F000F000000000000000000000000000000000000000000020000000FE
:200220000000000000000500000100001E000100170108000D001202000420001000020022
:20024000000000000000000018000304040220010080000000000004010200000000A00031
:2002600000FFFFFF030CF40000000000000000000404040422020000000048A10000000061
:20028000F000F000F000F00000000000000000000000000000000000DF002000E9481680D8
:2002A00000906040001800007E008118F701080202801020FF0400010001000600046000BC
:2002C000040010D8010080070F80403880603007000000800000001562000000000500424E
:2002E00031FFFFFF022000050010000000000200040404044222090040408000800080001A
:2003000000000000000000000000000000000000000000000000000080000000500000000D
:2003200001000200000007000400000000001800780000000400010028000000780000007A
:200340000100060000007800600080001800070000008000000015003406000000EE0BC097
:2003600027FFFFFF0000F0440C000000010000000400040405550000000000000000C000F2
:2003800000004002000000000000000000000000000000000000000000000000000000001B
:2003A00000000000000000000000000000000000000000000000000000000000000000003D
:2003C0000000000000000000000000000000000000000000000000006204000000060002AF
:2003E000110000000000000000000000000008000000040F00220000000CF00C000C000C8F
:20040000404C404C9058000C000000000000000000000000000000000000000000000000D0
:200420000000000001000000000000000000000000000000000000000000000000000000BB
:2004400000000000000000000000000000000100000000000000000000000000000000009B
:20046000000000000000000000000000000000000400000005000000000000000000000073
:200480000000000000000000000000000000000000000000000000000903F014000000004C
:2004A00000000000DC800200000003000073000C0000000014290010000000001000AC0053
:2004C0000C7371044000105E1F10E060000F00800008282000000045020000000000015094
:2004E00024FF07FF4020F0050800000000000000040404005505000040A8402000000000C8
:200500000000000000000000000000000000000000000000000000001189802000000000A1
:20052000000000007002084000040089003C00020800000080354408703C8700800000007A
:2005400080892210000000000000807C70030F80020800000000140402000000000202003A
:2005600005FFFFFF00A00000080000000000000004040400660600008000404040004000D9
:2005800040004000400040000000000000000000000000000000000000000000000000005B
:2005A00000000000000000000000000000000000000000000000000000000000000000003B
:2005C0000000000000000000000000000000000000080000000000000600000000000010FD
:2005E00021FFFFFF0220F000000000000000000000040E0000000000000048ADC000C00044
:2006000000000000000000000000000000000000000000000000000000000000F3000400E3
:20062000A00053000000000000000000310008005000A30000000C0000000000000000008F
:2006400000000000C200080000000000F0000F000000800000000000000000000000000051
:20066000000000000000000000000000000000000400000005000000000000000000000071
:20068000000000000000000000000000000000000000000000000000FF0000001801000042
:2006A0000000E310100700005C00A1083C07C20004000000000804100000000008000001FD
:2006C000E70218054002000598021F185804380100202A000000000532040100050000CE0E
:2006E00030FFFFFF62A0F0410C000000000002100404040455550000000000000000400280
:20070000001030100010101200000000000000000000000000000000000000000101000055
:200720000004040000010200010000000000000000010000000002000000000000020000A8
:2007400000000408080000000202010404010808080000000000510546030000000260005E
:20076000090000000000000000000000180000000E04040450520000000CF00C000C000C7C
:20078000404C404C9058000C000000000000000000000000000000005007A300000200054C
:2007A000000200050010000000080000A000530000000C00000700000018000031010800C2
:2007C000F3000418C20008010002F0180F04000100202000000000050000000000000000DC
:2007E000000000000000000000000000180000000404000444400000000000000000000051
:2008000000000000000000000000000000000000000000000000000000100000003C02C2C8
:200820000108000001FF000000000000001808000040000000E70418005C04A1000008043F
:2008400001040000000000E30138021F08980458000000A8000050001406050002C0000E73
:2008600012FFFFFF62A0F0410C00000000000210040404044444000000000000000040023E
:200880000010301000101012000000000000000000000000000000000000040000000000D2
:2008A0000100000000000000030000000000000000000000000000000000000000000C0028
:2008C000030000000000000004000200080001000000000000000000000000000000000006
:2008E0000000000000000000000000000000000004000000060000000000000000000000EE
:200900000000000000000000000000000000000000000000000000000000020001000000D4
:200920000000000000000000000000000000010000000000000000000000000000000000B6
:200940000000000000000000000001000000020000000000000000001004000000D052015D
:200960003EFFFFFF00A00004180000002700000004000404066600004000C0004040C000A1
:20098000C000C000C000C0000000000000000000000000000000000000000000000000FF58
:2009A00000FF000000000000000000000000000000FF000000000000000000000000000039
:2009C00000FF00000000000000000000000000000000000000000000000000000000000018
:2009E0000000000000000000000000000F00001F0F0000000000000000000000000000FFBB
:200A0000000000000000000000000000000000FF000000000000000000000000000000FFD8
:200A20000000000000000000000000000000000000000000000000000000000000000000B6
:200A4000000000000000000000000000000074383874002F0000000000000000000000000F
:200A6000000000000000000000000000000000000000000000000000000000000000000076
:200A80000000000084000000000100000000000000000000000000000000000000000000D1
:200AA000000000000000000000000000000000000000000000000000000000000000000036
:200AC000000000000100000000000000000000000000000000000000000000000000000015
:200AE0000000000000000000000000000000000000000000000000000000000000000000F6
:200B0000000000000000000000000000800000000000000000000000000000000000000055
:200B2000000000000000000000000000000000000000000000000080000000000000000035
:200B4000000000000000000000000000000000000000000000000000000000800000000015
:200B6000000000000000000000000000000100000000000000000000000000000400000070
:200B8000000000000000000000000000000000000000000000000000000000000000000055
:200BA00000000000040000000000000000000400000000000000000000000000000000002D
:200BC000000000000000000000000000000000000000000000000000000000000000000015
:200BE0000000000000000000000000000000000000000000000000000000000000000000F5
:200C0000000000000000000000000000000000008000000000000000000000000000000054
:200C20000000000000000000000000000000000000000000000000000000000000000000B4
:200C4000000000000000000000000000000000000000000000000000400000000000040050
:200C600000000000000000000000040000010000000000000000000000000000040000006B
:200C80000000000000008000000000000000000000000000000000000000000000000000D4
:200CA00000000000000008000000000000000000000000000000000000000000000000002C
:200CC000000000000000000000000000000000000000000000000000000000000000000014
:200CE0000000040000000000000000000000000000000000000000000000000000000000F0
:200D0000000080000000000000000000000000000000000000000000000000000000000053
:200D20000000000000000000000000000000000000000000000000000000000000000000B3
:200D4000000000000000000000000000000000000000000000010000000000000000000092
:200D600000000000000000000000000000000000000000000000000000000000040000006F
:200D80000000000000000000800000000000000000000000000000000000020000000000D1
:200DA00000000800000000000000000000000000000000000000010000000000000000002A
:200DC00004000000000000000000000000000000000000000000000000000000000000000F
:200DE00000000000000000000000000000000000000000008000000000000000040000006F
:200E00000000000000000000000000000000000000000000000000000000000000000000D2
:200E20000000000000000000000000000000000000000000000000000000000000000000B2
:200E4000000000000000000000000000000000000000000000000000000000000000000092
:200E6000000000000000000000000000000000000000000000000000000000000000000072
:200E80000000000000000000000000000000000000000000000000000000000080000000D2
:200EA000000000000000000000000000000000000000000000000000000000000000000032
:200EC00000000000000000000000000004000000000000000000000000000000000000000E
:200EE0000000000000000000000000000000000000000000000000000000000000000000F2
:200F00000000000000000000000000000000000000000000000000000000000000000000D1
:200F20000000000000000000010000000000000000000000000004000000000000000000AC
:200F4000000000000000000000000000000000000000000000000000100200000802000075
:200F6000000100000000002028000000000000001880800000802000000000000000000070
:200F8000000000000000000000000000000000000000000000000000000000000080400091
:200FA0000000000000010000000000006801401800000000008124000000000000000008C2
:200FC00000000000000000000000000000020000000000000000000000000000000000000F
:200FE00040000400000040000000000800000000000000000002000000000000000100085A
:201000000010804000005000840000010000000000000000000000003A00280006000000C3
:201020000000000000000000900000000000F0002000000000000000000010000000000000
:2010400000000000A2000000000000000000000000000000000000000000000000100010CE
:20106000008002000080200800000000004000000000000000900000000400000000000072
:20108000000000000000000000000000000000000000000000000000000000000000000050
:2010A000000800100000000000020000000000000000000000000000000000000000000016
:2010C000000000000000000000000000000000000008000000000000000000000000000008
:2010E000000000000000000000400010000802000000001000080000000010040002000068
:201100000000000400200100200008000000000000000000000000006000E00080000000C2
:20112000000000000000000000000400000000000000000000000200000010000000000099
:201140000A00000003000000000000000000000000000000000000002040100000000040D2
:201160000008020000201000801020000040001840680002002010101884030100002482FD
:20118000800810024000201200A4000000008001200802801800400140A00000000000003B
:2011A0008010020000000000000800000000000000000080000000020000000000600000B3
:2011C0001050001800000000100402000000000000000000000080400000000000000000C1
:2011E00000000000040044000000000804000000400020000002400100008000000100086F
:2012000020002300400800004020000420000400000000000000000017006500EE00000051
:201220000000FF009E00FF000D000C000000880030000000000000000100400040000000C0
:20124000C0000000A0001000000000000000000000000000000000000008000A0000950077
:2012600000820000004840080120000006000004040011010088480440600400001008810A
:201280000004000400004804000000100480040A08600000008480202001000000A08C0877
:2012A0002400000400000100100000000000000A0000000100200090040000020000000034
:2012C000000000000440201000000000000011040008000000000000000010000204010066
:2012E000000000003000000000220010600008040184000200000000044000100000000045
:20130000040000004100000010080020000A00000000000000000000F700F900E300000073
:2013200000007600D4007E00F3001400000011000C000000000002000100000000000000BE
:201340000400020000000800000000000000000000000000000000000000000004810008F2
:201360000000000002080A00000000000010010500000000084202040000000000000000F3
:201380000000000000000000000000000000000000000000000000000022000000004008E3
:2013A0002400000000190000000800008000020001000000600100040000020000000000FE
:2013C0000000000000000000000000000000000000000040000000000000020401000000C6
:2013E000000000000000004040100000000000000081000800420200420080008001000845
:20140000000000000000000000000400000000000000000000000000F000F000F0000000F8
:201420000000000000000000C50024000000F100010000000000010001000200400000008D
:201440000000020000002000000000000000000000000000000000001400008008000001CD
:20146000000061060020110020100040000000060418608010A01801280140000800802286
:2014800080104800400000000002500800009200A0100004000000000020000000A00000D4
:2014A0000800100000000000080002000000001000000000000000000000000000000000FA
:2014C000000000002000000500010040008000000000040000000000400000800000000062
:2014E0000000000000010000002000104000880080044800000000000040000800A000003F
:20150000000000008400000000400000000000000000000000000000AE00EF003700000033
:2015200000008F00BF000E0034000400000000000000000000000400000001000000000012
:201540000000020000000000000000000000000000000000000000008000000001400000C8
:201560000000000080020000000000000010010801800000000244040000000040000019AC
:2015800000000000009000040000000000400008000000000000420000000000000000101D
:2015A0000000000000000000000000004200010000000000000000000000000000000000E8
:2015C00000000000000000000000000000000000000000000000000000000000000000010A
:2015E00000008000000000000000000000000000000100000002000000000000000100085F
:2016000000000000000000000000000000000000000000000000000091009000E0000000C9
:201620000000300050009000200000000000000000000000000000008000000000000000FA
:20164000200000000000000000000000000000000000000000000000180000000000000052
:201660000100800000000000700040820000000010804018000000000A0100900000000034
:2016800081000000000000004000000000000000900A0800000000005000000000A00000F7
:2016A00024000000000000004010000000000000108008010000000000000000000000001D
:2016C00000000000000000000000000000000000000000000000000000000000000000000A
:2016E00001100001000000100008000000004000000400020000000000000000000000007A
:20170000000000000000000000000000000000000000000000000000060008000D000000AE
:201720000000090008000F003300040000000F000000000000000000000012000000000031
:20174000200000000000000000000000000000000000000000000000000000000042000027
:20176000000000000000010800000000040000090000000000610044000000000000802905
:201780000000000004000048000000000002800800000000000201800000000000000020D0
:2017A0000000000000000008000000000000004000000000000000000000000000000000E1
:2017C0000000000000000000000000000000000000000000000000000000000000200000E9
:2017E0000000000000000000000000000000000800000000000000000000000000000000E1
:201800000000000000000000000000000000000000000000000000009000C0007000000008
:201820000000A000D000900020000000000000000000000000000000000000000000000088
:20184000000000000000000000000000000000000000000000000000000000000000000088
:20186000000000000000000000000000000000000000000000000000000000000000000266
:20188000000000000000000000000000000400000000000000000000000040000000000004
:2018A000000400000000000000040000000000000000000000000000000000000000000020
:2018C000000000000000000000000000000000000000000000000000000000000000000008
:2018E0000000000000000000000000000000000000000000000000000000000000000000E8
:201900000000000000000000000000000000000000000000000000000000000000000000C7
:2019200000000000400000000100000000000000000000000000000000000800000000005E
:20194000000000000000000000000000000000000000000000000000000000000000000483
:20196000000000000000000000000000000000000000000000000000000000000000000067
:20198000000000000000000000000000000000000000000000000000000000000000000047
:2019A000000000000000000000000000000000000000000000000000000000000000000027
:2019C000000000000000000000000000000000000000000000000000000000000000000007
:2019E0000000000000000000000000000000000000000000000000000000000000000000E7
:201A00000000000000000000000000000000000000000000000000000000000000000000C6
:201A200000000000000000000000000000000000000000000000000000000000000008009E
:201A4000000000000000000000000000000000000000000000000000000000000000000086
:201A6000000000000000000000000000000000000000000000000000000000000000000066
:201A8000000000000000000000000000000000000000000000000000000000000000000046
:201AA000000000000000000000000004000000000000000000000002000000000000000020
:201AC000000000000000000000000000000000000000000000000000000000000000000006
:201AE0000000000000000002000000080000000000000000000000000000000000000000DC
:201B0000400000400000100000000000000000000000000000000000000000000000000035
:201B2000000000000000000000000000200080000000000000000000000000000000000005
:201B400040000000A000000000000000000000000000000000000000400010400000000015
:201B6000000000000000000000000000000000000000000000000000000000000000000065
:201B8000000000000000000000000000000000000000000000000000000000000000000045
:201BA00000000000000000000010000000000008000000000000000000000000000000000D
:201BC000000000000000000000000000000000000000000000000000000000000000000005
:201BE0000000000000000000002000080000000000000000000000000000000800000000B5
:201C0000000000000000000000000000000000000000000000000000500000000000000074
:201C2000000000000000000000000000600000000000000000000000000000000000000044
:201C4000000000000000000000000000000000000000000000000000000000000000000084
:201C6000000000000000000000000000000000000000000000000000000000000000000064
:201C800000000000000000000000000008000000000000000000000000000000000000003C
:201CA000000000000000000000000000000000000000000000000000000000000000000024
:201CC0000000000000000000000000000000000000000000000000000800000000000000FC
:201CE0000000000000000000002000080000000000000000000000000000000800000000B4
:201D0000000000000000008000000000000000000000000000000000000010000000000033
:201D2000000000008000000000000000000000000000000000000000000000000000200003
:201D4000000040000000000000000000000000000000000000000000000000000000000043
:201D6000000000000000000000000000000000000000000000000000000000000000000063
:201D80000000000000000000000000000000008000000000000000000000000000000000C3
:201DA000000000000000000000000000000000000000000000000000000000000000000023
:201DC0000000000000000000000000000000000000000000000000000000000000100000F3
:201DE0000000000000000008000000080000000000000000000000000000000000000000D3
:201E00000000000000000000100000000000000000000000000000000000000000000000B2
:201E2000000000002000000000000000000000000000000000000000000040000000000042
:201E4000000000000000000000000000000000000000000000000000000000000000000082
:201E600000000000000000000000000010000800000000000000000000000000000000004A
:201E800000000000000000000020000000000000000000000000080000000000000000001A
:201EA000000000000000000000000000000000000000000000000000000000000000000022
:201EC0000000000000000000000000000000000000000000000000000000000000200000E2
:201EE0000000000000000000000000080000000000000000000000000000000000000000DA
:201F000000000000000000000000000000000000000000000000000000000000A000000021
:201F2000000000001000800000000000000000000000000000000000000010000000000001
:201F4000000000000000000000000000000000000000000000000000000000000000000081
:201F6000000000000000000000000000000000000000000000000000000000000000000061
:201F80000000000000000000000000800000000000000000000000000000000000000000C1
:201FA000000000000000000000000000000000000000000000000000000000000000000021
:201FC00000000000000000000000000000000000000000000000000000000000000000847D
:201FE0000000000000000000000000000000000000000000000000000000000000000000E1
:202000000000000000000000000000000000000000000000000000000000000000000000C0
:20202000000000001000000000000000000000000000000000000000000000000000100080
:202040000000000000000000000000000000000000000000000000007500100000000000FB
:20206000000025005000000074001000000000001000140024004000000000000000C2001D
:202080000014140014000000007F7F00000000000000000000001800000040000000870027
:2020A0000A00050A0A000A00000000000100000504000400080000001000000000000000CD
:2020C000000000000000400002000000050000000404000001000000000019010C00180171
:00000001FF
