:2000000000800000000000000000000000000021300000F0000030000000000000000000EF
:200020000000000000000000000000000000000000000000000000000000000000000000C0
:20004000000000000000000000000000000000000000000000000000000500000400000B8C
:2000600010FFFFFFEF5510481C000000000000000000040000060000000800080008000891
:20008000500A40A8C00040A800000000000000000000000000000000000000000000000076
:2000A000000000000000000000000000000000000000000000000000000000000000000040
:2000C000000000000000000000000000000000000000000000000000000400000500000017
:2000E00000FFFFFFEF5512481C00000000000000000004040006000000080008000800081B
:20010000500A40A8C00040A8000000000000000000000000000000000000000000000000F5
:200120000000000000000000000000000000000000000000000000000000000000000000BF
:20014000000000000000000000000000000000000000000000000000000400000500000096
:2001600000FFFFFFEF5512481C00000000000000000004000006000000080008000800089E
:20018000500A40A8C00040A800000000000000000000000000000000010000000000000074
:2001A00000000000000000000000000000000000000000000000000000000000000000003F
:2001C0000000000000000000000000000000010000000000000000000005000004C0DE0F68
:2001E0001EFFFFFFEA5592481C000000000000000400040404660000000800080008000819
:20020000500A40A8C00040A8000000000000000000000000000000000904F00100040000F2
:2002200000000030009000000C087100000100024030100000010306DC0002071000ACB09B
:200240001400004000200080E008007000C01F0720000A8000001015020000000005010095
:2002600005FF07FF4020F0050800000000000000040404004404000040A84020000000007B
:200280000000000000000000000000000000000000000000000000000000005E0000000000
:2002A0000000000000030014007300040073000C0000000000290010008000000000000078
:2002C000000000000000000000800060000F00100008002000000045630400000000BC0E81
:2002E0001CFFFFFF0000F0440C000000010000000004040440440000000000000000C00054
:200300000000400200000000000000000000000000000000000000000000000000F30004A4
:20032000003100080100000000C200080000020008A0005300000200045000A30100000CB6
:200340000100000000000000010004F0080F0200000000200000540000000000000000001A
:20036000000000000000000000000000000000000404000055000000000000000000000020
:2003800000000000000000000000000000000000000000000000000004000008000004004D
:2003A000FF0200053C00C2010008E3100007000040010000E70218051000001008000000C7
:2003C000180700005C00A1003801980258181F040080A800000000146403050002C00E0023
:2003E00006FFFFFF62A0F0410C0000000000021204040404555500000000000000004002AB
:2004000000103010001010120000000000000000000000000000000004080000FF1000003F
:2004200008180000400200055C00A100180700000000E30100000018000004003C07C20034
:20044000E70218051001000098021F045818380100082A000000001101000000000000518A
:2004600030FF07FF4020F0050800000018000000040404044445000040A8402000000000F1
:200480000000000000000000000000000000000000000000000000005000A308A00153006D
:2004A0000001000000000C000001000000000000000200000000000800000000F30004002D
:2004C00031000804C200080000040002F0010F0800008000000000446203010005000EC00A
:2004E00024FFFFFF62A0F0410C0000000000021004040404444400000000000000004002B0
:2005000000103010001010120000000000000000000000000000000000E900160004001046
:2005200000F7000800DF002000010080007E008100000060000000000000006000FF00007E
:2005400000000000000200100030000F00400080000000000000000025030000000600203C
:20056000210000000000000000000000000008000004040C20220000000CF00C000C000CDC
:20058000404C404C9058000C0000000000000000000000000000000004030114F800005EDD
:2005A0000100020028008000000000000173060CD00000000080F800002918107873000482
:2005C000000007000400000060101880800F076000808020000015453206000000E000CBB5
:2005E00032FFFFFF0000F0440C000000010000000404040455550000000000000000C00011
:20060000000040020000000000000000000000000000000000000000DC00020000000000BA
:200620001000AC0000000000000000000900F0000C00710000000300000000000000000085
:20064000140000004000100000000000E0001F0000002200000000003504000000000026B6
:20066000300000000000000000000000000000000400040005020000000CF00C000C000C1B
:20068000404C404C9058000C000000000000000000000000000000000400890089702008A0
:2006A00000000000021140803500080089801022008000443C800200007000873C0000003A
:2006C000000000000008000080807C70000F03802880000000000445030000000020000080
:2006E00002FFFFFF00A000000800000000000000040404006606000080004040400040005B
:200700004000400040004000000000000000000000000000000000000000000C00000000CD
:200720000000000000000000000000000003000000010000000000000000000000030000B2
:20074000000000000000000400010002000400080000000000000000000000000000000086
:20076000000000000000000000000000000000000004000460000000000000000000000011
:20078000000000000000000000000000000000000000000000000000000002000000000057
:2007A000000000000100000000000000000000000000000000000100000000000000000037
:2007C0000000000000000000020001000000000000800000000000004001000000D0025132
:2007E0003EFFFFFF00A00004180000002700000004040404066600004000C0004040C0001F
:20080000C000C000C000C000000000000000000000000000000000000000040000000000D4
:200820000000000000000200000002000800000000000000000004010000000001000000A6
:2008400001020000000000000100020204010800020000000000540002000000000000012A
:2008600011FFFFFF0220F00000000000180000000F040F0450500000000048ADC000C00005
:20088000000000000000000000000000000000000000000000000000000400000000000054
:2008A0000D001200000005000000000017000802000020001E000100200000001000020082
:2008C0000001000000010000200004011804030200080000000000100403000000000000B1
:2008E00000FFFFFF020CF80000000000000000000404040422020000000048A100000000D8
:20090000F000F000F000F00000000000000000000000000000000000000000000000000017
:200920000000000000000000000000000000000000000000000000000000000000000000B7
:2009400000000000000000000000000000000000000000000000000004030000000A000086
:2009600000FFFFFF030CF40000000000000000000000040000020000000048A10000000088
:20098000F000F000F000F00000000000000000000000000000000000000000000000000097
:2009A000000000000000000000000000000000000000000000000000000000000000000037
:2009C00000000000000000000000000000000000000000000000000053000000000002457D
:2009E00034FFFFFF0220000500100000000002000000040400220A00404080008000800059
:200A00000000000000000000000000000000000000000000000000000000000000000000D6
:200A2000000000FF00FF00000000000000000000000000FF00FF00000000000000000000BA
:200A4000000000FF00FF000000000000000000000000000000000000000000000000000098
:200A6000000000000000000000000000000F0074387400000F000000000000000000000038
:200A8000000000FF0000000000000000000000000000000000000000000000000000000057
:200AA000000000000000000000000000000000000000000000000000000000000000000036
:200AC00000000000000000000000000000002F380000001F00000000000000000000000090
:200AE0000000000000000000000000000000000000000000000000000000000000000000F6
:200B00000000000000000000000000000000002000000000000000000000000000000000B5
:200B20000000000000000000040000000000000000000000000000000000000000000000B1
:200B4000000000000000000000000000000000000000000000000000000000000000000095
:200B6000000000200400000000000000000000000000000000000020000000000000000031
:200B80000000000000000000000000000000008000000000000000000000000000000000D5
:200BA000000000000400000000000000040000000000000000000000080000000400000021
:200BC000020000000000000000000000000000000000000000000000000000000000000013
:200BE0000000000000000000000000000000000000000000000000000000000000000000F5
:200C00000000000000000000000000000000000000000010000000000000000000000000C4
:200C20000000000000000000000000000000000000000000000000000000000000000000B4
:200C4000000000000000000000000000000000000000000000000000000000000000000094
:200C60000000000000000000000000100000000000000000000000200000000000000080C4
:200C8000000000000000200000000000000000010000000000000000000000000000000033
:200CA00000000000000008000000000000000000000000000000000000000000000000002C
:200CC000000002000000000000000000000000000000000000000000000000000000000012
:200CE0000000000200000000000000000000000000000000000000000000000000000000F2
:200D00000000200000000000000000000000000000000000000000000000000000000000B3
:200D20000000000000000000000000000000000000000000000000000000000000000000B3
:200D4000000000000000000000000000000000000000000000000080000000000000001003
:200D6000000000000000000000000000000000000000000000000020000000000000000053
:200D80000000000000000000800000000000000000000000000000000000020000000000D1
:200DA00000000800000000000000000000000000000000000000010000000000000000002A
:200DC00004000000000000000000000000000000000000000000000000000000000000000F
:200DE000000000000000000000000000000000000000000080000020000000000000000053
:200E00000000000000000000000000000000000000000000000000000000000000000000D2
:200E20000000000000000000000000000000000000000000000000000000000000000000B2
:200E4000000000000000000000000000000000000000000000000000000000000000000092
:200E6000000000000000000000000000000000000000000000000000000000000000000072
:200E80000000000000000000000000000000000000000000000000000000000080000000D2
:200EA000000000000000000000000000000000000000000000000000000000000000000032
:200EC0000000000000000000000000000000002000000000000000000000000000000000F2
:200EE0000000000000000000000000000000000000000000000000000000000000000000F2
:200F00000000000000000000000000000000000000000000000000000000000000000000D1
:200F20000000000000000000010000000000000000000000000004000000000000000000AC
:200F4000000000000000000000000000000000000000000000000000000000000000000091
:200F6000000000000000000000000000000000000000000000000000000000000000000071
:200F800000000000000000000000000000000000000000000000000000000000000C000045
:200FA000000000000000008000000000080000420000000000000000000000000000000067
:200FC0000000000000000000000000000001000000000000000800000000000010000000F8
:200FE0000000000000000000000000000000000000000000100100000008000008000002CE
:201000000000000000021080400000000004000000000000000000000000000000000000FA
:20102000000000000000000040001000000000000000000000004000000000000000000020
:2010400000000000400020000000000000000000000000000000000082000022000000008C
:20106000000841000000000000000008000000000022518000000000240180084000002619
:201080000002000200008020000C00A0000400200400400000000002000010000000000086
:2010A0004000000000000000000000000000000000000000000000000000000000000000F0
:2010C0000000000000000000000000000100C000000000000000000000000000102000001F
:2010E0000000000000008000000000004002000000000000000040060008002100000000BF
:201100000000008000000000000002000000080000000000000000000D000D000400000027
:20112000000059006E008A000200000000000000000000000000000000004000020000001A
:20114000020000000800000000000000000000000000000000000000000000000010000174
:201160000000000000080900000000000000000600000000001A0110000000000000040A1F
:20118000000000000800000200000000000004000000000000010000000A0000000A00002C
:2011A000000000080000000000000000000000000000000000000000000000000000000027
:2011C0000000000000000015000000004000000000000000000000000000000000000000BA
:2011E0000400000000000400000100000000012800000000140310980000000000040000FA
:20120000002000000004000000000800000000000000000000000000C000E00030000000D2
:201220000000300040008000C300000000000000000000000000000010004000A00000000B
:2012400040000000000080000000000000000000000000000000000080008000000040028C
:20126000080040010000000228000000000000000488800000022000000028000000400065
:20128000080000000000000000000080000000000000000000000000000004000042000080
:2012A0002000000000010000080000000048002100000200400120040440000004000000ED
:2012C00000000000000000000000000000000000000040000000000000000000004000048A
:2012E00000C804000000420000004601000200000C00000000000204400080000000228023
:2013000000100101040000000000010010001100000000000000000099008D000600000069
:201320000000040008000000940000000000F1002C000000000001000000000000000000EF
:201340000000080001000000000000000000000000000000000000000482000000840880F2
:2013600000000000002050002A000000080222000480000000C04808002520010100084480
:201380002004102000802028124000000800A400021400000020400620A0000000400000B7
:2013A000008004000000000001000040000001040000004001000000000000000020000101
:2013C0002A1400000000000000001A000000000000000000000000000000000000000000B5
:2013E00000000044000000040001000400000120000000000401011C005080210004000068
:20140000000000000080000000001000300000000000000000000000FD007000F7000000A8
:20142000000074007D00F7001E000C000000880030000000000000000000C00000008000A2
:2014400000008800000040000000000000000000000000000000000000802088000000019B
:201460000022000200000118A80001000000402820D04000000A0A00000015010020001094
:2014800040100000000000A0006002080000001120008200000450400022802800000000E1
:2014A000401000400000000000008000000000000000080000000000000000000000000014
:2014C0000004102900000000A8000000000000000000000000000000000000000000000027
:2014E0004000001008000000000004000002000000004000000000040000000C0008040032
:201500000800000100001880080000000000000200000000000000008F00EB007F00000027
:201520000000C500AF006D0007000C000000020000000000000000000000000000000000B5
:20154000000008000000020000000000000000000000000000000000000000000000000081
:201560000000000000000000000000000000000000000000000000000000000049909800FA
:2015800000000000000001120000000000010A100000000041200004000000000020000494
:2015A000000000001000004400000000000002030000000020000000000000000000200092
:2015C0000000000000000000000000000000000000000000000002000000000001002000E8
:2015E000000000624000000000010000080000040000000004002308006000000184000028
:20160000000040000000000000100001000004000000000000000000000000000000000075
:201620000000D000E000F00060001000000020002000000000001000A800400000008000E2
:20164000200040000000000000000000000000000000000000000000020000000000000028
:20166000400082080000000000218008000000000009860000000000080284000801401879
:2016800008000A0240000000002442000005800A00011088020003800000001000080002C9
:2016A000000000080400000000004000081000C4000000000000A801000000000000000059
:2016C0000000000000000000000000000000000000000000000000000000020400200400E0
:2016E000040800400003000000000100000200000000100000004000000000080000000040
:2017000000000008000000000000000000000000000000000000000008000B000E000000A0
:2017200000008F00DF009F00C40020000000F0000000000000000000000058000800100058
:20174000200040000000010000000000000000000000000000000000000000840900020495
:2017600000040A0000800014000005000002290000408A20012840800000000000400484FC
:2017800000000000000000A000000000004000040000000000080802000840000400000403
:2017A00001000000000104100801000000000401000000000011008800000000000000006C
:2017C000000000000000000000000000000000000000000000000000000000000000000009
:2017E0000800000000000000000000000000000000000000000000000000000000000000E1
:20180000000000000000000000000000000000000000000000000000FA00E700F3000000F4
:201820000000C0005000C000630028000000F000000000000000000000000000000020003D
:20184000000000000000000000000000000000000000000000000000000040000000000048
:20186000000000000000000000000000000000000000010000000000000000000000000067
:20188000000000000000000000000000000000000000000000000000000100000000000146
:2018A000020100000000008000288000000000000001000000000000002880000000000054
:2018C000000000000000000000000000000000000000000000000000000000000000000008
:2018E000000010000000000000000000000200000000000100000000020000400000000093
:201900000000000000000000000000000000000000000000000000000800000000000000BF
:20192000000000000000000081001800000001000E000000000000000000000000000000FF
:20194000000000000000000000000000000000000000000000000000000000000000000087
:20196000000000000000000000000000000000000000000000000000000000000000000067
:20198000000000000000000000000000000000000000000000000000000100000000000145
:2019A00002000000000000800008000000000000000000000000000000000000000000009D
:2019C0000000000002000001000000000000000000020040000000000000000000080000BA
:2019E0000000000000000000000000000000000000000000000000000000000000000000E7
:201A00000000000000000000000000000000000000000000000000000000000000000000C6
:201A200000000000000000008100180000000000000000000000000000000000000000000D
:201A4000000000000000000000000000000000000000000000000000000000000000000086
:201A6000000000000000000000000000000000000000000000000000000000000000000066
:201A80000000000000000000800000000000000000000000000000000000000000000000C6
:201AA0000000000000000000000000000000008000000000010000000000000000000000A5
:201AC000000000000000000000000000000000000000000000000000000000008000000086
:201AE000000000000000008001000000000000000000000000000000000000000000000065
:201B0000400000000000102000000000000000000000000000000000000000000000000055
:201B20000000000010000000000000004000800000000000000000000000100000000000C5
:201B40004000000030000000000000000000000000000000000000004000102000000000A5
:201B6000000000000000000000000000000000000000000000000000000000000000000065
:201B8000000000000000000000000000000000000000000000000000000000000000000045
:201BA000000000000000000000008000008000000000000000000000000000000000000025
:201BC000000000000000000000000000000000000000000000000000000000000000000005
:201BE0000000000000000000010000000000000000000000000000000080800000000000E4
:201C0000000000000000000000000000000000000000000000000000500000000000000074
:201C2000000000000000000000000000600000000000000000000000000000000000000044
:201C4000000000000000000000000000000000000000000000000000000000000000000084
:201C6000000000000000000001000000000000000000000000000000008080000000000063
:201C8000000000000000001000000000000000000000000000000000000010000000000024
:201CA000000000000000000000000000000000000000000000000000000000000000000024
:201CC0000000100000000000000000000000000000000000000000000000000000000000F4
:201CE0000000000000000000000000000000000000000000000000000000000000000000E4
:201D0000000000000000000000000000000000004000000000000010000000000000000073
:201D20000000000000000000000000000000000000000000000000000000000000000000A3
:201D4000000000000000000000000000000000000000000000000000000000000000000083
:201D6000000000004180000000000000000000000000000000000000000080000000000022
:201D80000000000000000000100000000000800000000000000000000000000000000000B3
:201DA0000000000000003000000000000000000000000000000000000000000000000000F3
:201DC000000000000000000000000000000000000000000000000000000000000000000003
:201DE000000000000000000000000000100000400000000000000000000000000000000093
:201E0000000000000000000000000000000000000000000000000000000000400000000082
:201E20000000000000000000000000000000000000000000000000000000000000000000A2
:201E4000000000000000000000000000000000000000000000000000000000000000000082
:201E6000000000000000000000000000000000000000000000000000000000000000000062
:201E800000000000000000000000000000000000000000000000000000000000A0000000A2
:201EA000000000000000000010000000000000000000000000000000000000000000000012
:201EC000000000000000000000000000000000000000000000000000000000000000000002
:201EE0000000000000000000000000000000000000000000000000000000000000000000E2
:201F00000000000000000000000000010000000000000000000000000000000000000000C0
:201F20000000000000000000000000000000000000000000000000000000000000000000A1
:201F4000000000000000000000000000000000000000000000000000000000000000000180
:201F6000000000000000000000000000000000000000000000000000000000000000000061
:201F8000000000000000000000000000000000000000000000000000000000000000000041
:201FA0000000000040000000000000000000000000000000000000000000400000000000A1
:201FC00000000000000000000000000000000000000000000000000065001000000000008C
:201FE000000061000400000074001000000000005000300034002400000000000000C2005E
:202000000014140014000000007F7F000000000000000000000018000000400000008700A7
:202020000A00050A0A000A00000000000100000D0C00040000000000140000000000000041
:20204000000000000000400002000000050000000000000001000000000019010C001801F9
:00000001FF
