:20000000AFAA0F000000000000000000000000210000000000000000000000000000000057
:200020000100000000000000000000000100000000000000000000000000000000000000BE
:2000400001000000000000000200000000000000030000000000010006FFFFFF0220F00084
:2000600000000000000000000E000E0001010000000048ADC000C0000000000000000000ED
:2000800000000000000000000000000000000000000000010000000000000000000000005F
:2000A000000002000000000000000200000000000100000001000001000000000000000039
:2000C00001010000020000000220000000001011060000000001000003FFFFFF0220F000C0
:2000E00000000000180000000F040F0401310000000048ADC000C00000000000000000001B
:200100000000000000000000000000000000000000000000000000000000000000000000DF
:200120000000000000000000000000000000000000000000010000000100000000000000BD
:2001400000000000010000002000000000000000060000000001000011FFFFFF0220F00057
:2001600000000000000008000F000F0401910000000048ADC000C00000000000000000004E
:2001800000000000000000000000000000000000000000000000000000000000000000005F
:2001A00000000000000000000000000000000000000000000000000000000000000000003F
:2001C000000000000000000000A0000000000000000000000000000000000000000000007F
:2001E0000000000000000000000400041000000000000000000000000000000000000000E7
:200200000000000000000000000000000000000000000000000000000000000000000000DE
:200220000000000000000000000000000000000000000000000000000000000000000000BE
:2002400000000000000000000000000000000000010000000020000002FFFFFF00A00000DE
:20026000080000000000080000000404009500008000404040004000400040004000400051
:2002800000000000000000000000000000000000000200C500C40008045E0000011E00004A
:2002A0000000000002000000011A004400C4001001000000000002000000000000000020E6
:2002C000040100400280013E08800000000001445002000000D520011FFFFFFF00A0000443
:2002E000180000002700000004040404555500004000C0004040C000C000C000C000C000C5
:2003000000000000000000000000000000000000650E02216429100644002880647F008055
:20032000009000400227000824D040000800205003024400002F4400000428000201012004
:20034000030F0420601018C000000000000040003104000000000026300000000000000054
:2003600000000000000008000404040C22220000000CF00C000C000C404C404C9058000CED
:2003800000000000000000000000000000000000000000000000000000000000000000005D
:2003A00000000000000000000000000000000000000000000000000000000000000001003C
:2003C00001000000000000000000000000000000000000000000000000000000000000001C
:2003E00000000000000002000400000403200A0000000000000000000000000000000000C6
:20040000000000000000000000000000000000008000000033114C02030004003311C406B5
:200420000000000000000017990400110004000000000000000000100008EE0000000000ED
:20044000C80830080F07001008002220000004412504000000E00B0C16FFFFFF0000F04478
:200460000C000000010000000404040444440000000000000000C0000000400200000000D5
:2004800000000000000000000000000000000000012500000E00006F00000E0000000000AB
:2004A000006F0000006300100000000C0400020000000000004A00000A0000600000000094
:2004C0000C00021C01600003000000000000155432040000000600021100000000000000D6
:2004E00000000000000008000404040400920000000CF00C000C000C404C404C9058000C26
:200500000000000000000000000000000000000000000000199F2600199F62004C00010096
:200520000080770000000000000A00510001002600000000000000001800200004140049A9
:2005400007604680781800070000AA0000000001620504000100CE000CFFFFFF62A0F041B6
:200560000C0000000000000004040400330300000000000000004002001030100010101269
:200580000000000000000000000000000000000020000010400003800CE011001C0002C08D
:2005A0000900100310090C10001C0002001400000020008014E000000010000C000C1011DB
:2005C000201F00601F804000000800000000401403000000005010000AFF07FF4020F0057A
:2005E0000800000000000000040404004304000040A8402000000000000000000000000058
:200600000000000000000000000000000000000000000000000000000000000001010000D8
:200620000000000000000000000000000200000000000000000000000000000000000000B8
:20064000000001000001020000000000000044106203000000EB000C13FFFFFF0000F044A2
:200660000C000000010000000404040400330000000000000000C000000040020000000028
:2006800000000000000000000000000000000000004040000020B300046000000364001B21
:2006A0004F7F90004C00A31301010000FF03000042000000F31F0C600C74000B0802000081
:2006C0008C087C030F04007000022A0000000010030000000000015024FF07FF4020F00576
:2006E0000800000000000211040404043333000040A8402000000000000000000000000021
:200700000000000000000000000000000000000000000400000000000008000000080804B9
:2007200001000000000000000007070800010008080000000008000200000200000700007E
:200740000F000000000800070020000000000050000400000600000B10FFFFFFEF5510484D
:200760001C0000000000000004040400050500000008000800080008500A40A8C00040A83D
:20078000000000000000000000000000000000000000000000000000000000000000000059
:2007A000000000000000000000000000000000000000000000000000000000000000000039
:2007C00000000000000000000000000000000000000400000600000000FFFFFFEF55124874
:2007E0001C0000000000000000000404000500000008000800080008500A40A8C00040A8C6
:200800000000000000000000000000000000000000000000000000000000000000000000D8
:200820000000000000000000000000000000000000000000000000000000000000000000B8
:2008400000000000000000000000000000000000000400000600000000FFFFFFEF551248F3
:200860001C0000000000080000000404009500000008000800080008500A40A8C00040A8AD
:2008800000000000000000000000000000000000020000000000000000000002000800004C
:2008A000000000000000000400010100000100000000000500010000020000000002000027
:2008C000020001030008000400000000000000100004000006CD0E0F17FFFFFFEA559248D5
:2008E0001C0000000000000004040404555500000008000800080008500A40A8C00040A818
:2009000000000000000000000000000000000000001432490C0000000400000000000080B8
:20092000000140267E0A00514E0020004000010008000080001F00004C1F120072000C0026
:20094000016000187C800E0700002000000000115403010002E00C0006FFFFFF62A0F04160
:200960000C00000000000800040404044494000000000000000040020010301000101012B7
:2009800000000000000000000000000000000000000200040200000000000000010000004E
:2009A00000000000000000000000020300000000000000000100000000000000000000042D
:2009C00002060000010100002000000000000001620000000054000213FFFFFF02200005FD
:2009E0000010000000000000040404002202000040408000800080000000000000000000B7
:200A00000000000000000000000000000000000000000000000000000000000000000000D6
:200A20000000000000000000000000000000000000000100000000000000010000000000B4
:200A400000000000010000000000000000001000040200000000000000FFFFFF020CF8007C
:200A600000000000180000000400040400420000000048A100000000F000F000F000F00067
:200A80000000000000000000000000000000000002800C000C40000004C00000083300007D
:200AA000000000330EF4000B0C110200003F02C00100000001C4003B0CFF020001220000A5
:200AC00001F000080E040003000828020000001004020000000000A000FFFFFF030CF40020
:200AE00000000000000002110404040444420000000048A100000000F000F000F000F000A4
:200B0000000000000000000000000000000000000000000000000000FF0000FF00000000D7
:200B20000000000000000000FF0000FF000000000000000000000000FF0000FF00000000B9
:200B4000000000000000000000000000000000000000000000000000000000000000000095
:200B6000000000380000002F001F0F0000000F72000000000000000000FF00000000000060
:200B8000000000000000000000000000000000000000000000000000000000000000000055
:200BA000000000000000000000000000000000000000000000000000000000000000000035
:200BC000000000000000000000003872000000000000000000000000000000000400000067
:200BE0000000000000000000000000000000000000000000000000000000000000000000F5
:200C00000000000000000000000000000000000000000000000000000000000000000000D4
:200C20000000000000000000000000000000080000000000000000000000000000000000AC
:200C4000000000000000000000000000000000000000000000000000040000000000000090
:200C6000000000000000000000000000000000000000040000000000000000000000000070
:200C8000000000000000000000000000000000000000040000000000000000000000000050
:200CA000000000000000010000000000000000000000000000000100000000000000000032
:200CC000000000000000000000000000000000000000000000000000000000000000000014
:200CE0000000000000000000000000000000000000000000000000000000000000000000F4
:200D0000000000000080000000000000000000000000000000000000000000000000000053
:200D20000000000000000000000000000002000000000000000000000000000000000000B1
:200D4000000000000000000000000000000000000000000000000000000000000000000093
:200D60000000000000000000008200000000000000000400000000000000000000000000ED
:200D80000000001000000080000000000000000000000000000000000000000004000000BF
:200DA00000000000000001000000000000000000000000000000000004000200000000002C
:200DC000000000000000000000000000000000000000000000000000000000000000000013
:200DE000000000000000000000000000000000800000000000000000000000000000000073
:200E00000000000000000000000000200000000000000000000000000000000000000000B2
:200E20000000000000000000000000000000000000000000000000000000000000000000B2
:200E4000000000000000000000000000000000000000000000000000000000000000000092
:200E60000000000000000000008200000000000000000400000000000000000000002000CC
:200E8000000000000000000000000000000000000000000000000100000000000000080049
:200EA000000000000000000000000000000000000000000000000000000000000000000032
:200EC000000000000000000000000000000000000000000000000000000000000000000012
:200EE0000000000000000000000000000000000000000000000000000000200000000000D2
:200F00000000000000000000000000000000000000000000000000000000000000000000D1
:200F20000000000000000000000000000000000000000000000000000000000000000000B1
:200F400000000000000000000000000000000010000200000000000000000010000000006F
:200F60000000000000000000008000000000000000000400000000000000000000000000ED
:200F8000000000000000000000000000000000000000000000000000000008000000000049
:200FA00000000000000000000000000000000100040000000000000000000000000000002C
:200FC000000000000000000000000000000000000000000000000000000000000008040005
:200FE0000000000000000000008000000000000000000000000800000080200000000000C9
:201000000000000000000000000000000000000000000000000000000000000000000000D0
:201020000000000000000000000000000000000002000000080000000000000000000000A6
:20104000000000000000000000000000000000000000000000000000000000000000000090
:20106000000000000000000000000000000000000000000000000000000000000000000070
:20108000000000000000000000000000000000000000000000080000000000000000000048
:2010A000000000000000000000000000000000000000000000000000000000000000000030
:2010C0000000000000002000000000000000000000000000000000000000000000000000F0
:2010E0000000000000000000000000000000000000000000000000000000000000000000F0
:201100000000000000000000000000000000000000000000000000000000000000000000CF
:201120000100000000000000000000000000040000000000000000000000000000000000AA
:20114000000000000000000000000000000000000000000000040842000000001008020027
:20116000800008004440000400100000000B08040000000000001A410000000010000015B8
:2011800000000000040105600000000000802A0044208000002080000000000000000000B7
:2011A000000000000000000100000001000020000210000000000000000000000040002C8F
:2011C0000000000000042A02000000000000000000000000400000200080000000000000FF
:2011E0004400002200000000020000200484084280400000000A02290000000000000000A0
:2012000080000000400004000000000000000000F000E000FA00000000007000F000F000F0
:20122000A5000000000021000C0000000000000000000000000000002000000000000000BC
:20124000000000000000000000000000000000000000C002000000000020C00000000000EC
:20126000800004000000000080000002000000000800000200000000000004020000000058
:2012800000204000000000000000401000000000000000010000000100000800000008008C
:2012A000080000000000000000000000000000000000000000000000000000000000000125
:2012C0000000000000000000000000000000000000400002000000080000000000000000C4
:2012E00000004010804000000000040000000009802088000C000000000000002400000079
:201300000010000000000000000000000000000009000A000A00000000000A000C000C007E
:20132000810024000000000000000000000000000000000000000000A00000000000000068
:20134000000000000000000000000000000000008800000000044800000004000008480164
:2013600020000000040000424010040000004850080000408040282100000001000002685F
:201380000010000000000801000001000000008104000000000A4600680000008000020074
:2013A000080000000000004000000000800000000000000000000003000000000000000062
:2013C0000000000000000000000000000000000000000000000000000200200000000000EB
:2013E000040000000000004000000100008000000000000000000000000000000000000028
:20140000020000004000204000000000000000007500F200D40000000000E800C4009100B2
:20142000F40014000000100010000000000000000000000000000000000000000000000084
:20144000000000000000000000000000000000000000800000000000000008000000000004
:201460000000040000000000400010000000000004400010000000000000060100000000BD
:201480000024840000000000008000100000000000000001000000010001080400000800FD
:2014A0000088000000000000000100002242000000880004020010000000000000000000A1
:2014C000000000000000000000000000000000000400008001001000000000000000100067
:2014E00000004000C0103010000406000102008880208801080000000400000200000000D0
:2015000000000100000040000000000000000000080002000200000000000B000E000C0059
:2015200081002400000031003E0000000000000040000000000000001000000080000000C7
:201540000000000000000000000000000000000000000000A00500000000000000002802BC
:201560000100000000040842000200000085481000000000A4052002000000000000821AD6
:20158000000000000004600200000000000A500000000000008A0000000000000000000001
:2015A0000000000000000A0900000000400000000000000002000000000000000004B00022
:2015C000000080000000010000002000000000020000000000000000000000000000000068
:2015E00000000000200000400100000002860800000A0000000404010000000000000000E7
:2016000000000000000000000000000000000000F000E000F10000000000F000F000F00039
:20162000D000000000001000100000000000120000000000000000000000080000000000A0
:20164000000000000000000000000000000000005000000000000000000010080000000022
:201660002000800000000000106000020000000000A00A000000000000000001004000016C
:201680000020800000000000820002180000000008100000008000002005020080000002CD
:2016A0000010840400000000086100000010018804000000800000260000000000000000E6
:2016C000000000000000000000000000000000000800000000000000000000000000000002
:2016E000020040000040A02400000000810200000000000000000000802000000000000081
:2017000000000000000000000000000000000000030006000C000000000008000C000F0091
:20172000140008000000FF00F4000000000000000000000000000000000008000000000092
:2017400000000000000000000000000000000000440084002005000000200000000000027A
:20176000000008000000080054200002000A040000204A000000002910001400000008080E
:2017800000208800020420004400000000080002440000000000002900010200000020009D
:2017A000800004000000000810018400008000000000000001008000000000000000000007
:2017C0000000000000000000000000000000000000000000000000000000004000000000C9
:2017E000000000001000000000001000002280000000800080200C020000004000000000B9
:20180000000000000000040000000000000000007F0082004200000000006600EE00CA0063
:20182000E500080000001F0010000000000000000000000004000000000040000000000048
:20184000000000000000000000000000000000000000000000000000000000000000000088
:201860002800000000000000000004000000000000000000000060000000000000000000DC
:201880000000000020100000000000000000000000000000000000002400000000000000F4
:2018A00008000000000000000000A0002040000500100001012200200000000000000000C7
:2018C000010040000000000000004000000000000000000100000000000004000000000082
:2018E000000000020000000000000000000000000400000000006000002000000000000260
:201900000000000000000000000000000000000000000000060000000000000000000000C1
:20192000000004000000FC00FC000000000001000000000004002000000044000000000042
:20194000000000000000000000000000000000004400400840140000000040200000400007
:20196000200001000000051084004080401502180808010000006060002500020000800006
:201980008020090010006001880004210000140010000000040100600000814100000060D5
:2019A0000000100000000060000000000000000000000000000000000000000000000000B7
:2019C0000000000000000000000000000000000000000020000000008400000000000080E3
:2019E00008001400000002000000410194128010200100100008410810008000000000003F
:201A000000000000000000000000000000000000EF001C00C500000000001F00BF006F00A9
:201A2000B200300000000000000000000000000000000000100000000400000000000000B0
:201A40000000000000000000000000000000000000000000000000000021000000000082E3
:201A6000A0000000000000000400000200000001080000480000000020000000000000004F
:201A8000000000000000000002004040000000000000000000000008A40000000000000216
:201AA0000000000000000040000000020000000004004000000000000000000000000000A0
:201AC0000000000000000000000040000000200001000000000000000000000000000000A5
:201AE0000000000000000000200000020000000800010000000000002000000A0000000091
:201B00000000000000000000000000000000000000009A000C00000000000200000001001C
:201B200040000400000001000C0000000000410000000000100004000400000000000500F6
:201B40000000000000000000000000000000000080000000004A000400000200180042005B
:201B60000002800000048220000400400000402404000000100090400000003008048024D1
:201B800000000000144841000000400000006A000400000800080000601100000000000079
:201BA000040000000000410080050010000020000000000000000000000000000000140116
:201BC0000000000000002A2400000000000000000000004000000000000000000000004037
:201BE0000000000000000000000000000000000000000000000000000000000000000000E5
:201C000000000000000000000000000000000000F100F100F000000000007000F000F8009A
:201C20004600040000002F000000000000000000000010000000000000000000000000001B
:201C4000000000000000000000000000000000000000000000000000000000000001000083
:201C6000000000000000000000000000000000000000000000000000000000000000000064
:201C8000000000000000000000000000000000000000000000000000000000000000000044
:201CA000000000000000000000000000000000000000040000000000000000000000000020
:201CC0000000000000000000000000000000000000000000000000000000000200200000E2
:201CE0000000000000000000000000000000000040000000000000480080000001000000DB
:201D00000000000000000000000000000000000000000000000000000000000000000000C3
:201D20000000000000000000000000000000000000000000000000000000000000000000A3
:201D400000000000000000000000000000000000000400010020000000000000000000005E
:201D6000000000004000000000000000018400480000000000000000000000004080000096
:201D8000002010000000000000000000000000000000C00000000000E00030000000000043
:201DA000000000000000000000000000000000001000000020008000000000001000400023
:201DC0000000000000000000000000000000000000000000002000000200000200002001BE
:201DE0000000000000000000000000000000000000000800000000000000000000000000DB
:201E00000000000000000000000000000000000000000000000000000000000000000000C2
:201E2000100000000000000000000000000000000000000000000000000000000000000092
:201E4000000000000000000000000000000000000000004100000000000000000000000140
:201E600020000000400000004000000003840048000000000080084000000000000000002B
:201E8000002000000200000000000000000000008000F00000000000400000000000000070
:201EA000000000002000000000000000000000008000200000000000000000000000000062
:201EC0000000000000000000000000000000000000400000000000000000000000000000C2
:201EE00020000000408000004000000001840048002000000080084000000000800000008D
:201F00000000000000000000000000000000000000000000000000000000000000000000C1
:201F2000000000000000000000000000000000000000800000000000000010000000000011
:201F4000000000000000000000000000000000000000000000000000002000004000000021
:201F6000000000000000000000000000000000000000000000000000000000000000000061
:201F8000000000000000000000000000000000000000000000000000000000000000000041
:201FA00000800000000000000000010000000000000002000000000000000000000000009E
:201FC0000000000000000000000000000000000000000000000000000000020000000000FF
:201FE00020000100408000000000000001840048000000008000084000000000000001006A
:20200000000000000010000000000000000000000000C000000000000000000000000000F0
:202020000000000020004000400000000000000000000000000000000000100000000000F0
:20204000000000000000000000000000000000000000000000000000000000000000000080
:2020600000000001000000000000000000000000000000000000000000000000000000005F
:202080000000084000840000008000000000000000000000000000000000000000000000F4
:2020A000000000000000000000000000000000000000000000000000000000000000000020
:2020C0000000000000000000000000000000000000000000000000000000000000000001FF
:2020E0002000000040000000000000000110000800000000800000400000000000000000A7
:2021000000000000000000000000000000000000000000001000000000000000F0001000AF
:2021200000000000000000000000000000000000000000000000000000000000000000009F
:2021400000000000000000000000000000000000000000000000000000000000000000007F
:2021600000000000000000000000000000000000000000000000000000000000000000005F
:20218000810000000010000840000000000000000000000000000000000000000000000066
:2021A0000000000000000040000000000000000000000000000000000000000000000000DF
:2021C0000000000000000000000000000000000010000000000000000000000000000000EF
:2021E0000000000000000000000000000000000000000000000000000000000000000000DF
:2022000000000000000000000000000000000000000000000000000000000000F0001000BE
:2022200000000000400000000000000000000000000020000000000000000000000000003E
:20224000000000000000000000000000000000003401100000000000000020011401000003
:202260003E011000000000000A0022011C011800000030000000C200E40000E400000000F3
:2022800000000000C10000F031003100000000000000000000000000C000000040002040CB
:2022A000400040000000000001000000010001001C0000000000000000000200F40008F78A
:2022C0000700040000000000A050500010000300000000000000300000000000240000004C
:2022E0004000000000000000010000000000000010000000A00000000010000000000000DD
:202300000A0018011000180100000000000000000000000000000000000000000000000071
:00000001FF
