:20000000000000000000020000000000000000210A00300C0000B8B23C00C201E70018000F
:20002000000000100007E30000000408400100000802000504000000100200055C00A10052
:2000400018070000FF0800103801980258181F040080A800000000140406000000000000BE
:2000600000FFFFFF020CF80000000000000002120404040444420000000048A100000000EA
:20008000F000F000F000F000000000000000000000000000000000000000000000F30004A9
:2000A000003100080000000000C20008005000A30000000C0000000000000000000000003E
:2000C0000000000000A000530000000F00F000000000000800000000040600000000A0007C
:2000E00000FFFFFF030CF40000000000000000000004040040020000000048A100000000CD
:20010000F000F000F000F0000000000000000000000000000000000000000000000000001F
:200120000000000000000000000000000000000000000000000001000000000000000000BE
:200140000200000000000000010002000000000000000000000000005600000000040250EE
:2001600025FFFFFF022000050010000000000800040004040492000040408000800080007C
:20018000000000000000000000000000000000000000000000000000000000000D0112003F
:2001A000000000001E000100000020022000000017000800000000040001000000080000B2
:2001C0001000020000000504200118020404030800020000000000502501040006C00E0066
:2001E00006FFFFFF62A0F0410C0000001800000004040404224400000000000000004002ED
:200200000010301000101012000000000000000000000000000000000000F8000100026001
:20022000017E068104010180F8DF002000F70708D0FF000028E98016000200100004181081
:20024000780000000400006080300740600F188000000800000051004206000000260000FD
:20026000030000000000000000000000000002000404040424220A00000CF00C000C000CF9
:20028000404C404C9058000C00000000000000000000000000000000000000000000000052
:2002A00000000000000000000000000000000000000000000000000000000000000000003E
:2002C000000000000000000000000000000000000000000000000000510600000000006265
:2002E000300000000000000000000000000008000000040400920000000CF00C000C000C0C
:20030000404C404C9058000C00000000000000000000000000000000000000000029001098
:200320000000005E0000000000000000000300140073000C000000000080000000730004D2
:20034000000000000000000000100080000F00600080002000000045010000000000005167
:2003600030FF07FF4020F0050800000000000800000404044094000040A8402000000000BB
:20038000000000000000000000000000000000000000000000000000000000001000AC00A1
:2003A0000C00710040001000000000000900F000000000000000030014000000DC00020082
:2003C000000000000000000000000000E0001F000000220000000000250600000000EB0CDA
:2003E0001CFFFFFF0000F0440C000000010000000400040404440000000000000000C0008F
:20040000000040020000000000000000000000000000000000000000000700000200001879
:20042000000200050007000000020005011800000100000000100000000104000008080068
:200440000000080101000000080201040418020100080000000041110200000000000010F8
:2004600030FFFFFF0220F000000000001800000004040D0433300000000048ADC000C00034
:20048000000000000000000000000000000000000000000000000000A01053000018000041
:2004A000003C00C200FF0000005C00A1000000E35008A30000040C0000400000F30004001D
:2004C00031000804C2E708180098001FF0380F580000808A0000000053040200010000EC80
:2004E00030FFFFFF62A0F0410C0000000000021004040404333300000000000000004002C6
:20050000001030100010101200000000000000000000000000000000000000000000000059
:200520000000000000000000000000000000000000000000000000000000000000000000BB
:2005400001000000000000000100000000000000000800000000000002000000000000107F
:2005600024FFFFFF0220F000000000000000000004040E0003000000000048ADC000C000BA
:20058000000000000000000000000000000000000000000000000000000040009004000087
:2005A000010002080000070004020100010006000000B00808040000200280003000000085
:2005C0000401000000013000070808027004C00100A8020000005401020000000010000086
:2005E00003FFFFFF0220F0000000000000000800040D0D0E03200000000048ADC000C0001D
:2006000000000000000000000000000000000000000000000000000000000200000C00715B
:20062000001002AC00140000080900F000000003010000000000000001000000044000108E
:200640000100000000DC0002010004E0081F020000020088000054016302000000000BEC72
:2006600034FFFFFF0000F0440C000000000000000404040034030000000000000000C00006
:20068000000040020000000000000000000000000000000000000000000000000000000018
:2006A00073000C0000005E000000000073000400800000002900100000000000000000002D
:2006C000030014000000000080000F00600010002000080000005100020000000000500138
:2006E00018FF07FF4020F0050800000001000000040004040333000040A8402000000000F5
:200700000000000000000000000000000000000000000000000000000000000000000000D9
:200720000104000000000000000004020000000000000C000300000000000000030000009C
:200740000000000100010000080002040401010200000000000000041005000000D0102563
:200760003EFFFFFF00A00004180000002700000004040404555500004000C0004040C00061
:20078000C000C000C000C00000000000000000000000000000000000000000000000000059
:2007A000000000000000000000000000000000000000000000000000000000000000000039
:2007C00000000000000000000000000000000000000000000000000000060000020000B061
:2007E00020FFFFFFEF5510481C00000000000800000004040095000000080008000800085F
:20080000500A40A8C00040A8000000000000000000000000000000000000000000000000EE
:200820000000000000000000000000000000000000000000000000000000000000000000B8
:20084000000000000000000000000000000000000000000000000000000600000200000090
:2008600000FFFFFFEF5512481C000000000000000000040400050000000800080008000894
:20088000500A40A8C00040A80000000000000000000000000000000000000000000000006E
:2008A000000000000000000000000000000000000000000000000000000000000000000038
:2008C000000000000000000000000000000000000000000000000000000600000200000010
:2008E00000FFFFFFEF5512481C00000000000800000004040095000000080008000800087C
:20090000500A40A8C00040A8000000000000000000000000000000000000000000000000ED
:200920000000000000000000000000000000000000000000000000000000000000000000B7
:200940000000000000000000000000000000000000000000000000000005000003ED0C0F87
:2009600017FFFFFFEA5592481C0000000000000000000404005500000008000800080008B1
:20098000500A40A8C00040A80000000000000000000000000000000000000000000000006D
:2009A000000000000000000000000000000000000000000000000000000000000000000037
:2009C000000000000000000000000000000000000000000000000000000000000000000017
:2009E00000000000000000000000000000000800000000040090000000000000000000005B
:200A00000000000000000000000000000000000000000000000000007035080880044489D0
:200A2000803C000270008700003C0000000000000889001000000000000000001102804051
:200A400080892220000000000F7C800080037080200A00000000540101000000000000024B
:200A600010FFFFFF00A00000080000000000000004040404550500008000404040004000D7
:200A80004000400040004000000000000000000000000000000000000000FF00FFFF000059
:200AA000000000000000000000000000FFFF0000000000000000000000000000FFFF00003A
:200AC000000000000000000000000000000000000000000000000000000000000000000016
:200AE0000000000000000000740000381F00000F38740000000F0000000000000000000061
:200B00000000000000000000000000002F00000000000000000000000000000000000000A6
:200B2000400000000000000000000000000000000000000000000000000000000000000075
:200B4000000000000000000000000000000000000000000000000000000000000000000095
:200B600000000000000000000000000000000000000000000000000800000000000000006D
:200B8000000000000000000000000000000000000000000000000000000000000000000055
:200BA0004000000000000000000000000000000000000008000000000000000000000000ED
:200BC000000000000000000000000000000000000000000000000000000002000000000013
:200BE0000000000000000000000000000000010000000000000000000000010000000000F3
:200C00000000000000000000000000000000000000000000000000000000000000000000D4
:200C20000000000000000000000000000000000000000000000000000000000000000000B4
:200C4000000000000000000000000000000000800000000000000000000000000000000014
:200C6000000000000000000000000000000000000000000000000000000004000000000070
:200C8000000000000000000000000000000000000000000000000000000000000000000054
:200CA0000000000000000000000000000000000000000488000000000000000000000000A8
:200CC000000000800000400000000000000000000000000000000000000000000000000054
:200CE0000000000004000000000000000000000002000000000000000000000000000000EE
:200D00000000000000000000000000000000000000000000000000000000000000000000D3
:200D20000000000000000000000000000000000000000000001000000000000000000000A3
:200D4000000000000000000000000000000000000000400000000000000000000000000053
:200D6000000000000000000000000000000000000000000000000000000000000000000073
:200D800000000000000000000000000000000000000000000000000000000008000000004B
:200DA00000000000001000000000000000000000000004800000000000000000000000009F
:200DC000000000000000000000000000000000000000000000000000000000000000010012
:200DE0000000000000000800000000000000000000000000000000000000020000000000E9
:200E00000000000000000000000000000000000000000000000000000000000000000000D2
:200E20000000000000000000000000000000000000000000000000000000000000000000B2
:200E4000020000000000000000000000000000000000000000000000000000000000000090
:200E6000000000000000000000000000000000000000000000000000000000000000000072
:200E8000000000000000000000000000000000000000000000000010020000000000000040
:200EA00000000000000004000000002000000000000000800000000000000000000000008E
:200EC00000000000000000000000000000000000000000000000000000000400000000000E
:200EE0000000080000000000000000000000000000000000000001000000000008000000E1
:200F00000000000000000000000000000000000000000000000000000000000000020000CF
:200F200000000000000000800000002000000000000000000000008000000000000200008F
:200F4000000000000000001000000000000000000000000000000000000000000000000081
:200F6000000000000000000000000000000000000000000000000000000000000800000069
:200F8000000000000000000000000000000000000000000000000000000000000000000051
:200FA000000000000000000000000000000000000000000000000000000000000000000031
:200FC00000000000000000000000000000000000000000000000000000000000000200000F
:200FE0000000000000000000000000000000000000000000000000000000000000000000F1
:20100000000000000000000000000000000000800000000000000000000000000000000050
:201020000000000000000000000000000000000000000000000000000000000000000000B0
:20104000000000000000000000000000000000000000000000000000000000000000000090
:2010600000000000000000000100000000000000000000000000040000000000000000006B
:20108000000000000000000000000000000000000000000000000000000000000801000641
:2010A000000000000000000800000000000010200000000000A900000000000001100056E8
:2010C000000000000020080000000000000100200000000001200004000000000000004062
:2010E000000000000000000000000000000008040040000000000000000080000000000024
:20110000000000000200000000000000000000000000000000000000000800000080100431
:2011200002400020042000000000000000000000000000000000001000000000022880006F
:20114000000001000000000000000000000000000000000000000000F000400060000000FE
:2011600000006000A000E000100000000000080008000000000000001000000020008000BF
:2011800000000000000000000000000000000000000000000000000010000000000000003F
:2011A000008200080000000020000000000000001840000200000000010014000000000016
:2011C0000000000A00000000000200000000000000200000000000000100000000000400DE
:2011E00000020200000000102080020C01000000004220040008100200200000000010A0DC
:201200000000000000000000000200000000000000000000000000000008040201020000BB
:20122000200000100080020400201000080008B000000000000014000020000000000000D4
:2012400004000000000000001000108000004000000000000000000002000B000400000099
:2012600000000C0001000400280028000000EF00E400000000000000020001000000020035
:201280002000000041000000000000000000000000000000000000000000000000000000ED
:2012A00000000000000000000000000000000000000000000000000000000000000000002E
:2012C000000200800000000000000000000000000000000000000000000000000008000084
:2012E000000000000200000500000000000008800000000000020000000000000000080550
:2013000000000000000000000000000000000000000000000000000000000000000000408D
:2013200000000000002000000000008000000000000000000000001000000000000081007C
:20134000001000000000300000000000000000040000000000000000000000000000000049
:201360000000000000000000400010000000800070000000000000000000000000004000ED
:20138000080001000000100000000000000000000000000000000000000000000000000034
:2013A0000000000000000000000000004000400000000000000000000000000000000000AD
:2013C0000000000000000000000000002010000000000000000000000000080000000C00C9
:2013E00000000010000000100000000000000000100000002002008400100000000060A007
:20140000000000000000000000000000000000000000000000000000000010000120000497
:201420000000000000000000002000000000480041022000000000000000000000000000E1
:20144000000008100200000000100001080000000000000000000000000000000000000059
:201460000000000000000000240024000000F400F4000000000000000000080000004000F4
:201480000000000000000800000000000000000000000000000000000000800000000010B4
:2014A00000000500001400002A0000004040040800000540001410412600020820000086DD
:2014C00000900040000811004024820080000A000810820022908008040091000010080032
:2014E0000180000000000000010004000000000A0000008000000002000000000000000AD0
:201500002A68000000000000042002000000000000000000000004000000400000000000CF
:20152000000000002000000000004808220000008008200020000800004018040000010AE2
:2015400000980000000048000100005480000004000000000000000028006300F700000050
:201560000000ED00DF00FF002F00080000008800300000000000200004000000000000008D
:20158000700000000000800000000000000000000000000000000000042000020000000035
:2015A000000011000000000080040000000000008020012000000000000000000468104019
:2015C000000000000000012000000000000018000000000000041008002000000040000056
:2015E00001200000000000008010080000000502000008510200400000000000010200008D
:201600000000000000000000000000000000000000000000000000000000000000000000CA
:2016200000000000000800000000100084000000400020000020050001000004080000007C
:20164000000002001000006000200040000480000000000000000000070005000C0000001C
:201660000000C0006000600014000C0000009F00900000000000000000000000000010008B
:201680000800010000000500000000000000000000000000000000000000000050084000A4
:2016A00000000000040082080800000080202200400000000010A04100040400008900040C
:2016C000000000008000000A000000001000820000000000200000040000080000000800BA
:2016E0000000000000008004800002000000000000000000200000000000000000002000A4
:20170000000000000000000000000000000000000008000000000410000820000000020083
:20172000000000000000000410204000620000021400000000000000194000000001000063
:20174000000300000000000000000000000000000000000000000000F000F000F2000000B4
:201760000000B000B0006000240000000000200020000000000062000000000000000100E2
:20178000000000000000000000000000000000000000000000000000046080000000000065
:2017A00000001086000000000008090000000000400008440000000020188100000000003D
:2017C000008500000000000000089100000000000024004000000000402000000000020025
:2017E0000805000600000480000000000004000100000000000000220000000040002000CB
:2018000000000000000000000000004000000000000000200000000000000801000001015D
:20182000000000020040000400043000800000000080000000000400010000200000000009
:201840000200020000000080000000000000000000000000000000000F000F0007000000DF
:2018600000000B000F000E00150034000000A000A000000000000200200004000C00010084
:2018800000000100000001000000000000000000000000000000000050000A0022000000CA
:2018A0000414000203000004000004200008801014404000020A04000000000080540004CF
:2018C000000000000000002100000000000002040000000010080080040000000408000039
:2018E0000000000000000800081400200200044001400420000000000000000000000000F9
:201900000000000000000000000000000000000000000000000000000000000010000000B7
:201920000000000040000000000000040000000000008010000000001000000000000000C3
:2019400000000000000000001000000000000000000000000000000053005700720000005B
:2019600000005000C00070006400200000000F000000000000000000020000000000000052
:2019800000000000820000000000000000000000000000000000000000880000000000003D
:2019A000000A0400000000010A0000000000040040A8242000005000060A0000000000007E
:2019C0000000450000000000000280000000000080800004000000000840000200000000F2
:2019E0000000460000200084000040000000014000000200000000800600000000000003F1
:201A00000A0400000000000000400000000000000000000000000000000000000000400038
:201A2000000000000000000000000200C000400208000000006000000000840200020200B0
:201A400000000000040000000000000200000000000000000000000005008E0043000000AA
:201A600000000B00090002000D003C00000011001C000000000000000200000002000000D6
:201A80000000000002000000000000000000000000000000000000000000800000000000C4
:201AA000000000040000001000000000000000000000000000000000000000000000000012
:201AC000000000000000000000000000000000000000000000000000000000000000000006
:201AE000000000000000000000000000000000000000000000000000000000006000000086
:201B000000000000000000000000000000000000000000000000000004000380000000003E
:201B20000028400200000000804020100000000004102082000000000800850000080428D4
:201B40000850008000000001000A30000000002A8040110000001400400000010000000121
:201B600000200000002000000000000000001000000008000000000000000000000000000D
:201B800002001402000000008020001000000000000000000000000000001000000000006D
:201BA00000000400020000000000000000000000000000000000000000000000000000001F
:201BC0000000000000000000000000000000000000000000000000000D000F000F000000DA
:201BE00000001D00E7006D00810024000000020000000000000000000100000000000000CC
:201C00000000000000000000000000000000000000000000000000000000000000000000C4
:201C2000008000000000080000000000000000000000000000000000000008000000808014
:201C40000000800000000001100008000000800000100000000080000000000000000000DB
:201C600000000000000000000000000000000000000000000000000000000000000000085C
:201C80000000000000000000000000000000000000000000000000000080040010100000A0
:201CA00000000000000000000000000800000002000000000000008000000000000000009A
:201CC0000000000000000000800000000000004000000000000000000000C0000000000084
:201CE000E0003000700030000000000000000000800000000000000000000000A0005000C4
:201D00000000000000000000000000000000000000000000000000000000000000000001C2
:201D2000800000200000008100000000000000000000000000000000000000100000000072
:201D4000000000000000000000000000000000000000001000000000000000000000000073
:201D6000000000000000000000000000001000000000000000000000000000000000000053
:201D8000000000000000000000000000000000000000000000000000000000010000000042
:201DA000000000000000000200000008000000220000000000000081001000000000000264
:201DC0000000000000000014000000000000000000000000000000008000F000000000007F
:201DE0004000000000001000000000004000000000000000000000008000000000000000D3
:201E0000000000004000100000000000000000000000000000000000000000000000000072
:201E200000000000001000000000000000000002000000000000008100000000000000020D
:201E400010000004000000040000000000000000000000000000000000001000000000005A
:201E6000000000000000000000000000000000000000000000000000000000000000000062
:201E8000400080000000800000000000000000000000000000000000000000000000000002
:201EA00000000004100000000000000000000000000000000000000000000000000000000E
:201EC0000000000000000000000040000000000200000000000000000000000000000000C0
:201EE0000000000000000000000000000000000200000004000000001000000000000000CC
:201F000000000000000000000000000000000000000000000000000000004000000000027F
:201F200010000000000000000000000000000002000000000000008100000000000000000E
:201F40000000000000000001000000000000000000000000000000000000C00000000000C0
:201F6000000000009000000000000000000060004000000000000000000000000000C00071
:201F8000400000000000000000000000000000000000000000000000000000000000000001
:201FA000000000000000000000000000000010000000000000000000000000000000000011
:201FC000000000000000000000000000000000000000000000000000000000000000000001
:201FE00080000002000000000000000000000000000000000000000000000000000000005F
:202000000000000000000000000000000000000000000000000000000000000000001000B0
:202020000000000000000000000000000000000000000000000000800000000080000000A0
:20204000000000000000000000000000000000000000000000000000000000002000100050
:20206000000000000000000000000000000000000000000000000000400000000000000020
:20208000000000000000000000000000000000000000000000000000000000000000000040
:2020A000000000000000000000000000000000000000000000000000000000000000000020
:2020C000000000000000000080000000000000800000000000000000000000000000000000
:2020E0000000000000000000000000000000000000000000000000000000000000000000E0
:202100000000000000000000000000000000000000000000000000000000000000000000BF
:2021200000000000000000000000000000000000000000000000000000000000000000009F
:2021400000000000000000000000000000000000000000000000000000000000000000007F
:2021600000000000300000000000000000000000000000000000000000000000000000002F
:2021800000000000000000000000000000000000000000000000000020011000000000000E
:2021A00000002001200100001D01100000000000140114010D001800000030000000C2006E
:2021C000F40000E41000100000000000C10000F031003100000000000000000000000000F4
:2021E000C00000002000402020002000000000000000000000001C00000000000000020041
:20220000F40008F70700040000000000A0505000100003000000000000003000101000001D
:20222000240000002000000000000000040000000000000000100000A00000000111000094
:202240000000000000000000400000000700190110001801000000000000000000000000F4
:00000001FF
