:20000000000200000000000000000000000002000000000000000021030030000380B2A2B1
:200020000073000C0003001400000000000000000080000000000000000000000073000433
:2000400000000000000000000000005E00290010001000800060000F002000800000001555
:200060004501000000EC00B023FFFFFF0000F0440C000000010000000004040440440000AD
:20008000000000000000C0000000400200000000000000000000000000000000000000005E
:2000A0000000020001F30004015000A304C200080000020000310008000000000000000C3D
:2000C00008000000000000000100000000A000530100080002F0040F000000800000540042
:2000E000000000000000000000000000000000000000000018000000040400044540000057
:200100000000000000000000000000000000000000000000000000000000000000000000DF
:20012000400000083C01C2005C01A100040100000000E3001802000008000000E700180071
:2001400010000008FF0000000000040000000004380198041F0258080000A8000000005032
:200160001406020005000EC024FFFFFF62A0F0410C00000000000211040404044444000085
:2001800000000000000040020010301000101012000000000000000000000000000000009B
:2001A000001400000040001000000000001000AC000000030000000000000000000C00719F
:2001C0000000000000000000000900F001DC000200E001000000001F0020000A000000100D
:2001E000030000000000001530FF07FF4020F0050800000000000000040404004404000001
:2002000040A840200000000000000000000000000000000000000000000000000000000096
:2002200001000200000007000000400090000000040001003000000004000000000030007B
:2002400008000000200080000000B000010006000700C000700008000000020000005400AA
:200260004306000000006020280000000000000000000000000008000400040404920000E3
:20028000000CF00C000C000C404C404C9058000C0000000000000000000000000000000032
:2002A000000000000000000002000500080000000000010002000500100000000700000010
:2002C000180000000700000000001800010000000100020018000400800000000000140033
:2002E0000000000000000000000000000000000000000000000000000400000404000000F2
:200300000000000000000000000000000000000000000000000000000000000000000000DD
:2003200001040210D000000001020610F801008004F70008007E07810400016000DF1820BF
:2003400078FF000028E980160000F8000000006060408080070F18300000200000004500C4
:200360001504000000200060220000000000000000000000000008000404040C252200005B
:20038000000CF00C000C000C404C404C9058000C0000000000000000000000000000000031
:2003A0001E0001001700080000000000000020000000000000000000200000000D001200A0
:2003C0000000000000000000100002000000050003002000040018000000000000000000C7
:2003E000060000000000010014FFFFFF0220F000000000000000020004000D0402200A0090
:20040000000048ADC000C00000000000000000000000000000000000000000000000000067
:200420000000000000000000000000000001000000000002000000000008000000000004AD
:20044000000100000000000000000000000000040001000200040008000200000000005036
:20046000320000000050040216FFFFFF02200005001000000100000000040404205200002B
:2004800040408000800080000000000000000000000000000000000000000000000000005C
:2004A00073100CAC00DC0002291410000000000000000000000C5E71000900F003001403E8
:2004C000800000007300040000000000004000101000800060E00F1F2000802800001500FA
:2004E00054030000000CB0CE39FFFFFF0000F0440C000000180000000404040455550000D3
:20050000000000000000C000000040020000000000000000000000000000000000000000D9
:200520000010000000080C0000E70018003C00C200000004A0FF5300505CA3A100000000B4
:200540000040000031040800F3180400C20008E300380F58F098001F000008A8000000006C
:200560002506040003000E0C14FFFFFF62A0F0410C00000000000211040404045555000012
:20058000000000000000400200103010001010120000000000000000000000000000000097
:2005A000000000000000000007000000080010000000080001000000020005000200050005
:2005C000000000000000010007000000000010000100180002000400800000000000140050
:2005E000030200000000000000FFFFFF020CF80000000000000000000400040005020000E4
:20060000000048A100000000F000F000F000F0000000000000000000000000000000000031
:200620000000000000000000000000000000000000000000000000000000000000000000BA
:2006400000000000000000000000000000000000000000000000000000000000000000009A
:2006600003020000000000A000FFFFFF030CF40000000000000000000000040000020000CF
:20068000000048A100000000F000F000F000F00000000000000000000000000000000000B1
:2006A000000000000000000000000000000000000000000000000100020000000000000037
:2006C000000000000000000000000000000000000000020000000100000000000000000017
:2006E00002000000000015000CFF07FF4020F0050800000000000000040004000505000063
:2007000040A840200000000000000000000000000000000000000000000000000000000091
:200720000000000000000000000000000000000000000000000000000000000000000000B9
:20074000000000000000000000000000000000000000000000000000000000000000000099
:2007600000040000060000B020FFFFFFEF5510481C000000000000000000040000060000E0
:200780000008000800080008500A40A8C00040A8000000000000000000000000000000004F
:2007A000000000000000000000000000000000000000000000000000000000000000000039
:2007C000000000000000000000000000000000000000000000000000000000000000000019
:2007E000000400000200000000FFFFFFEF5512481C00000000000000000004000006000032
:200800000008000800080008500A40A8C00040A800000000000000000000000000000000CE
:200820000000000000000000000000000000000000000000000000000000000000000000B8
:20084000000000000000000000000000000000000000000000000000000000000000000098
:20086000000400000600000000FFFFFFEF5512481C00000000000000000004040066000049
:200880000008000800080008500A40A8C00040A8000000000000000000000000000000004E
:2008A000000000000000000000000000000000000000000000000000000000000000000038
:2008C000000000000000000000000000000000000000000000000000000000000000000018
:2008E0000004000006C0DE0F1EFFFFFFEA5592481C0000000000080000000404009600004B
:200900000008000800080008500A40A8C00040A800000000000000000000000000000000CD
:200920000100000000000000000008000000000004000000020000000000000000000000A8
:20094000020000000400000001000000000008000800010004000200A808000000000100C8
:2009600006000000000010000CFFFFFF0220F00000000000000008000D040D04009000008C
:20098000000048ADC000C000000000000000000000000000000000000000000000000000E2
:2009A0000001000004000000000000000000000C000001000003000001030000000000001E
:2009C0000000000000000000000000000000020400020404010802010000000000000400F7
:2009E00006000000000010000AFFFFFF0220F000000000002700000004040D0466600000C2
:200A0000000048ADC000C00000000000000000000000000000000000000000000000000061
:200A2000000000000000000080004400800000000000000070000800800022000000000058
:200A40000800000070008700000000001100800080000F0070008000020000000000510034
:200A60001004000000D0052137FFFFFF00A000041800000000000000040004000606000068
:200A80004000C0004040C000C000C000C000C0000000000000000000000000000000000016
:200AA00000000000003C00000089002000020040003C000200350008000000000004008907
:200AC00000000000000000000089001000000000007C00800000000300220000000000015B
:200AE000010000000020020006FFFFFF00A0000008000000000000000004040460060000B6
:200B0000800040404000400040004000400040000000000000000000000000000000000055
:200B2000000000000000FF00FF00FF0000000000000000000000FF00FF00000000000000BA
:200B4000000000000000FF00FF000000000000000000000000000000000000000000000097
:200B60000000000000000000000000000000000000000F3874000000001F0F3874000000E0
:200B8000000000000000000000000000000000000000000000000000002F00000000000026
:200BA000000000000000000000000000000000000000000000000000000000000000000035
:200BC00000000000000000000000008020000000000000010800004000000000000000002C
:200BE0000000000000000000000000000000000000000000000000000000000000000000F5
:200C00000000000000000000090002000000000000000000000000000000000000000000C9
:200C200000000000000000002800000000000000000000000000000000000000000000008C
:200C4000000000000000000000000000000000000000000000000040000000000000000054
:200C60000000000000000000000000000000000000000000000000814000000000000000B3
:200C800004000000040000000000000000000000000000000000000000000000000000004C
:200CA0000000000040000000000000000000000004000000000000000400000000000000EC
:200CC0000000000000000000000000000000400004000000000000000000000000000000D0
:200CE00000000A0000000000000000000400000000000000030004000300000000000000DC
:200D00000000000000000000000004000000000000000000000000000000000000000000CF
:200D20000000000000000000000000000000000000000000000000000000000008000000AB
:200D4000000000000000000000000000000000000000000000000000000040000000000053
:200D6000000000000000000000000000000000000000000000000000000000000000000073
:200D8000000000000000000000000000000000000000000000000000000000000000000053
:200DA00000000000000000000000000000000000040000000000000004000000000000002B
:200DC00000000000000000000000000400000000040000000000000000000000000000000B
:200DE0000000000000000100000000000000080000000000000000000000000000000000EA
:200E00000000000000000000000000000100000000000000000000000000000000000000D1
:200E20000000000000000000000000000000000000000000000000000000000000000000B2
:200E400000000000000000000000000400000000000000000000000000000000000000008E
:200E6000000000000000000000000000000000000000000000000000000000000000000072
:200E8000000000000000000000000000000000000000000000000000000000000000002032
:200EA0000000004000000000000000000000000004000000000000000000000000000040AE
:200EC00000000020000000000400002000000000800000000000000000000000000000004E
:200EE0000000040000000000000008000000000000000000000000000000000000000100E5
:200F00000000000000000000040000000000000000000000000000000000000000000000CD
:200F20000000000000000000000000000000000000000000000000000000000080000040F1
:200F4000000000000000000000000000000000000000000000000000000000000000000091
:200F6000000000000000000000000000000000000000000000000000000000000000000071
:200F8000000000000000000000000000000000000000000000000000000000000000000051
:200FA000000000000000000000000000000000000000000000000000000000000000000031
:200FC000000000000000000000000000000000000000000000000000000000000000000011
:200FE000000000008000000000000000000000000000000000000000000000000000000071
:20100000000000000000000000000000000000000000000000000040000000000000000090
:201020000000000000000000000000000000000000000000000000000000000000000000B0
:20104000000000000000000000000000000000000000000000000000000000000000000090
:2010600000000000000000000000000000000000010000000000000000000000000004006B
:20108000000000000000000000000000000000000000000000000000000000000000000050
:2010A00020000001000000000000100800000000800800800000000000101085000000004A
:2010C00000000000000404490000000000000008000000000000048100000000200000888A
:2010E000010200000000004030020000800000000002004C0000004000000000000000006D
:201100000000000000000000000000000000000000000000000080800000000000000000CF
:20112000001000000000000100020400000000880100000000000480000000000002808089
:2011400000000000200000080000040008000000000010002000001000000000000000001B
:20116000030006000D00000000002000D000700019000000000000000000000000000000E0
:201180000000400000004000000000000400080000000000000000000000000000000000C3
:2011A00000000000000000000000000000000000000000000000000000000000000000002F
:2011C00000000000000000000000000000000000000000000000000000000000000000000F
:2011E0000000000108000001001000000000000000000100000000000000000000000000D4
:201200000000000000000000000000000000000000000000000000000000000000000000CE
:2012200000000100000000000000000008100800000000000000000000000001001000007C
:201240000000000000000800000000000000000014020000400040000000000000000000F0
:2012600000000000000000000000000000000000A1000400000000000000000000000000C9
:201280000000000000000C00E0000000C000000000000000000000000000000000000000A2
:2012A00008000000000104000000008400040080000000800020604001140000000028811B
:2012C000200140040000080000008000000000002000000800000000000200800000000077
:2012E00000000000000000000801000008000020001000000000204000128400280000008F
:20130000000010000400001000000000000000000000000000000000000008000000080099
:20132000000000000000008004000000000000000008000000000012000054400004000077
:201340000400001010000800000822000000004402000000000000000000000000000000F1
:2013600054003A00F100000000000800060009000000240000006F006400000000002400BC
:201380000000000008008000080000000000000000000000000000000000000000000000BD
:2013A00000000000000000000000000000000000000000000000000000000000000000002D
:2013C00000000000000000000000000000000000000000000000000000000000000000000D
:2013E00000000001000000010810000108000000000054000000000014024000000000011F
:20140000000022120000540000000001000000000000000000000000000000000000000043
:201420000000120000300010008000000000000000000000401010000000000000800000FA
:20144000000000000020280102002022440000008100080000000002000000000000000030
:20146000000000000000000000000000000000008100240000008F007F00000000000000B9
:201480000000000000000000140088000400080000000000000000000000000000000000A4
:2014A000840200008208000400000900010028020A0000008000282004021122009208043B
:2014C000000000008008812800000000000009020000000000008118000000000080A20015
:2014E000000000000082000000200000000000820004400000010000000000000200000081
:201500000000000080000080000000000A0000100000800000000100000008200080000088
:20152000000801000000900010000000000100400200080004001012012004440014010013
:2015400044001010000000000000000000000000180000010000000000000000000000000E
:20156000FD00F300730000000000D000F000B00090001400000080008000000000001600DE
:20158000000010004000800000000000000004000000000000000000000000000000000077
:2015A0000000000A002482000012012004004204000A06000001144000012090060840009A
:2015C00000000000000000000000000000000000000000000000000000004040000020105B
:2015E00000000000400800000000000000000020000000000010122202401800401800028B
:20160000802040100040284000000000000000000000000000000000000000000000000032
:20162000002904000010000000010401040001000020012400006000000480400081000078
:201640000006020800000880000000000000000000000000000000000000000000000000F2
:20166000F300FF00FF0000000000000000000000C00020000000FF00FF000000000000009B
:2016800002000100000009000000000000000400000000000000000000000000000000003A
:2016A000000000000310080000000000000020020000000040000004000000002120400028
:2016C000800204060000880400014000010080002042000040009004800000000100280051
:2016E00004040000000000060001000001001000400400000C0020010004600100000001F3
:201700000000000000000006000000000000000000000000000000000000000000000000C3
:201720000020001000000000000000000000000000000001040010100040C440000001000F
:2017400020001000002208000000100000000000000000000000000000000000000000001F
:201760005000A00030000000000019007D00E800C600100000008F00300000000000000036
:20178000000000000100000024000000040000000000000000000000000000000000000020
:2017A0000280002800000000000A05000000000080080010000001000002012800040004A4
:2017C0000012801000042441008200000000403400000800000000410254000008008006DB
:2017E000080201000000000801000600000000000100004004000100000020000000000069
:201800000000000000000000005400040000000080080400000000000000000000000000E4
:20182000080220000000000000000000000000000000000000444088000080080081014523
:20184000010000010000808000000010000000000000000000000000000000000000000076
:201860000F000F008E000000000039009200DF004D000C00000004000000000000000000B5
:20188000000000000100000024000000000000000000000000000000000000000000000023
:2018A0001000010000040000105A000000000413020808000040001400602001000C040497
:2018C0000000000010510060000000000080209000000000100009000000003010800A0034
:2018E0000400100000090020000000000000088000000000000044000000000000200000BF
:20190000000000000000000000000000004400160000000000002A00000000000000000043
:201920000000000400040002000000840084004000000000040010100000800000000000B1
:20194000220011000020000000000000000000000000000000000000000000000000000034
:2019600023006F00E70000000000F000E000F000E6003000000020000000000000000000F8
:20198000000000004000000000000000000000000000000000000000000000000000000007
:2019A00028000180000000002000008400000000802000000000000006080002000000002A
:2019C000029000004100001A00800000000040040080000400000041006400000100000428
:2019E000000000000000804200000000810000050000000000000001000100006008000134
:201A0000040080000000000000000000000000000000000000000000000000000000000042
:201A2000001000001400000000000000000000020000000000000000000000000000000080
:201A4000000000000000000000000000000000000000000000000000000000000000000086
:201A60000F0008000A000000000038009A00CE00900010000000F1000C0000000000000008
:201A800000000900000002000000000000000000000000000000000000000000000000003B
:201AA0000000000000000000000000002000001000000000000000000000000000002200D4
:201AC000000000000000000000000000000000000000000000000000000000000000000006
:201AE000040010000020000000000000000000000200000020008000000000000000000010
:201B00000000000000000000000000000000000000000000000000000000000000000000C5
:201B20000000000000000000000000000000000000000000000000000000000000000000A5
:201B4000000000000000000000000000000000000000000000000000000000000000000085
:201B60000000600000000000000000000000000026000000000000000000000000000000DF
:201B8000000000000000000000000000000000000000000000000000000000000000000045
:201BA000000000000000000000000000000000000000000000000000000000000000000025
:201BC0000000080080000004008000000000800000000014008000008000000000008000E5
:201BE0000000000000000000000000000000000000000000000000200000000000000000C5
:201C00000000000200000000000000000000000000000000000000000000000000000000C2
:201C20000000801000000020000000000000000000000000000000000000000000000000F4
:201C400000000001000088000000000000000000002C0000008000800000000000000000CF
:201C60000000000000000000E0003000700030000000000040004000000000000000000034
:201C80000000200000003000000000000000000000000000000000000000000000000000F4
:201CA0000080008000280000220000000004080000000000000000000000000000000000CE
:201CC0000000020000000000000000000000000000000200000008000000000000000000F8
:201CE0000000000000000000000000000000000000000000000000000000000000000000E4
:201D00000000000000000000000000000000000000000000000000000000000000000000C3
:201D2000000000002000000000000000000000000000000000000000000000000200000081
:201D40000000000100008400000000000000000000000001020000000000000000000000FB
:201D6000F000F0000000000040000000C00000000000000000000000000000000000000083
:201D8000000000001000000000000000000000000000000000000000000000000000000033
:201DA000000000000000000000000000000000000000000000000000000000000000000023
:201DC0000000000000000000000000000000000000000020000000000000000000000000E3
:201DE0000000000000000000000000000000000000000000000000000000000000000000E3
:201E00000000000000000000000000000000000000000000000000000000000000000000C2
:201E200000000400000000200000000000000000000000000000000000000000000000007E
:201E40000000000000008000000000200000000000000000000000000000000000000000E2
:201E6000000010000000000000000000100000000000000000000000000000000000000042
:201E80000000000020001000000000000000200000000000000000000000000000000000F2
:201EA000000000000000000000000000000000000000000000000000000000000000000022
:201EC0000000000000000000000000000000000000000020000000000000000000000000E2
:201EE0000000000000000000000000000000000000000000000000000000000000000000E2
:201F00000000000000000000000000000000000000000000000000000000000000000000C1
:201F20000000000000000000000000000000000000000000000000000000000000000000A1
:201F40000000000000008000000000000000000010000000000000000000000000000000F1
:201F6000000000000000000000000000100000000000000000000000000000000000000051
:201F8000000000000000000000000000000000000000000000000000000000000000000041
:201FA0000000000000000000000000000000000000000000104000000000000000000000D1
:201FC0000000000000000000000000000000000000000000000000000000000000400000C1
:201FE0000000000000000000000000000000000000000000000000000000000000000000E1
:202000000000000000000000000000000000000000000000000000000000000000000000C0
:202020000000000000000000000000000000000000000000000000000000000000000000A0
:20204000000000000000800000000000000000000000000000000000000000000000000000
:2020600000000000A000100000000000000020000000000000000000000000000000000090
:20208000000000000000000000000000000000000000000000000000000000000000000040
:2020A000000000000000000000000000000000000000000000000000000000000000000020
:2020C000000000000000000000000000000000000000800000000000000000000000000080
:2020E0000000000000000000000000000000000000000000000000000000000000000000E0
:202100000000000000000000000000000000000000000000000000000000000000000000BF
:2021200000000000000000000000000000000000000000000000000000000000000000009F
:2021400000000000000000000000000000000000000000000000000000000000000000007F
:2021600000000000000000000000000010000000000000000000000000000000000000004F
:2021800000000000000000000000000000000000000000000000000000000000000000003F
:2021A000410110000000000000004001410100003501100000000000300014012500240076
:2021C000000000000000C2001400000014001400000000000000000000000000C000000041
:2021E000007F7F000000000000000000000018000000400000008700FF0000FF0000000004
:2022000000000000A00050AFAF00A700000000000400000000000000000000000000400085
:2022200085A6000000000000000000004000000007001901100018010000000000000000E9
:00000001FF
