:20000000AFAA0F0000000000000000000000002100000040000C0000000400000242008043
:20002000004F0010010300000273000C007F00000208000001010000024C002300000033AD
:200040000000027C000F01808000002800000400050000000001000011FFFFFF0220F000C0
:2000600000000000000002120D040D0434340000000048ADC000C00000000000000000006D
:20008000000000000000000000000000000000000000010000000000060001000700000051
:2000A000060001000000000001000600000000000000000002000000060000000400000026
:2000C000070000000000000000000280000000000000000000000000000000000000000097
:2000E0000000000000000000040400003300000000000000000000000000000000000000C5
:200100000000000000000000000000000000000000000100000000000700000007000000D0
:200120000000000000000000010006000000000006000100020000000600000004000000A5
:20014000070000000000000000000000000000002104050006C000E022FFFFFF62A0F04176
:200160000C00000000000000040004000303000000000000000040020010301000101012A1
:200180000000000000000000000000000000000004001200010F0000020F1400000800000C
:2001A0000000003000310006003008000000003000300000061200010600003000240001CC
:2001C0000008060718300100000000000000500025060000000E0CB025FFFFFF0000F04426
:2001E0000C000000000000000404040033030000000000000000C0000000400200000000AF
:200200000000000000000000000000000000000000000000000000000001000000000000DD
:200220000000000001010000000000000000000000000000000100000100000000000000BA
:20024000000001000000000100000000000000000004000002B0000002FFFFFFEF5510484B
:200260001C0000000000080004040404559500000008000800080008500A40A8C00040A856
:2002800000000000000000000000000000000000000003100200000700040800000008002E
:2002A0000001000608000000000405010000000808000000000107020600001000000008ED
:2002C00007080807001000000800020800000011000100000200000000FFFFFFEF5512482F
:2002E0001C0000001800000004040404333500000008000800080008500A40A8C00040A848
:200300000000000000000000000000000000000000000000000000000000000000000000DD
:200320000000000000000000000000000000000000000000000000000000000000000000BD
:2003400000000000000000000800000000000000000500000200000000FFFFFFEF551248F3
:200360001C0000000000000004000404045500000008000800080008500A40A8C00040A8F2
:20038000000000000000000000000000000000000002000000010000200400000000000432
:2003A0000700000000040200070800000000100800000002080000000000040001041000E6
:2003C000200110000702080C00080000000051010004000002C0DE0F1EFFFFFFEA5592488E
:2003E0001C0000002700000004040404555500000008000800080008500A40A8C00040A8F6
:2004000000000000000000000000000000000000000A01100000002416002800000000005F
:200420000024001B2E001000003F01003A14042000000024203408000001001800340600BA
:200440000108020330040C300000000000000105530600000000006230000000000000002D
:2004600000000000180000000404040411210000000CF00C000C000C404C404C9058000CF6
:200480000000000000000000000000000000000000000000000E0000000000000000001737
:2004A000001800030018000500020000000000000000000000000000000000000000000002
:2004C00000070018000000000008000200000004030000000005000111FF07FF4020F0057B
:2004E00008000000000008000004040F2012000040A840200000000000000000000000005B
:200500000000000000000000000000000000000001000000120000020000000200001C02A6
:2005200006020800000100000600180000000000000000000000000006020800000000007C
:20054000000101001E00000200002000000004400000000000000000000000000000000015
:2005600000000000010000000404000422200000000000000000000000000000000000002C
:2005800000000000000000000000000000000000080004033F0040187C0000002200000017
:2005A000701B0C0000000000111800044C0033007C00003B000000000029000003120020E3
:2005C00078180007032404000000000000001015530200000062000003000000000000007A
:2005E00000000000000000000404040001010000000CF00C000C000C404C404C9058000CC1
:2006000000000000000000000000000000000000000800000007000000001C0000000001AE
:2006200006000800060018050107000000000000000000001200000006020801000000005E
:2006400000001E06010800010008080000000054020000000000005130FF07FF4020F0052B
:200660000800000001000000040404040333000040A84020000000000000000000000000E3
:2006800000000000000000000000000000000000000100061C0402012000030009001007ED
:2006A0000C0011000000000010040C00000000001400000000001000400100020000000096
:2006C00020001F004007000000000020000011002604000000E0CB000EFFFFFF0000F0444F
:2006E0000C000000000000000404040022020000000000000000C0000000400200000000BC
:200700000000000000000000000000000000000000000000000000000000000000000000D9
:200720000000000000000000000000000000000000000000000000000000000000000000B9
:200740000000000000000000008000000000004000000000000000000000000000000000D9
:20076000000000000000000000040000000000000000000000000000000000000000000075
:2007800000000000000000000000000000000000000000000000000800000002000100004E
:2007A000000001100100000400080000010000000000000000000000010000000000010711
:2007C00000100100000F000008000000000004003005000000D012503EFFFFFF00A00004A7
:2007E000180000000000000004040400500500004000C0004040C000C000C000C000C00040
:200800000000000000000000000000000000000000000000000000000000000000000000D8
:200820000000000001000000000000000100000000000000000000000000000000000000B6
:200840000000000000000100800000000000000001000000001000000AFFFFFF0220F000ED
:2008600000000000000008000D000D0404940000000048ADC000C000000000000000000045
:20088000000000000000000000000000000000000000000000010000000000000000000057
:2008A000000000000000000000000000000000000000000000000000000000000001000037
:2008C00000010000000000000002000000000000010000000001000021FFFFFF0220F000E3
:2008E0000000000000000000000D0D0440040000000048ADC000C000000000000000000021
:20090000000000000000000000000000000000000000000000000010000080030000000044
:2009200068001200130C2011781C00027A00000000140000000900101310400C0800170022
:2009400001000400021FF8008000000000005000010000000002000001FFFFFF00A0000008
:2009600008000000000008000404040435950000800040404000400040004000400040000D
:20098000000000000000000000000000000000000010B300FF08000003180000000040042E
:2009A000F31E0C004C01A3004F1E90004201000001000000040100000C1A00040806001894
:2009C0000F008C1C00027C0100008A0000000010020300000000000000FFFFFF020CF8003F
:2009E00000000000000002110404040422210000000048A100000000F000F000F000F000E8
:200A00000000000000000000000000000000000000000000000000000000000000000000D6
:200A200000040000000000000000000200000000000100020000000D0000000000000000A0
:200A400000080003000400000000000000000004020300000000A00000FFFFFF030CF400DE
:200A600000000000000002000004040410110900000048A100000000F000F000F000F00095
:200A8000000000000000000000000000000000000100000000000000000000000000000055
:200AA000000000000000000000000000000000000000000001000000000000000000000035
:200AC00000000100000000000800000000000000630000000004050215FFFFFF0220000566
:200AE0000010000000000000040004000101000040408000800080000000000000000000DC
:200B00000000000000000000000000000000000000080306030C0000130060002100101001
:200B20000004030A000C03000010080000000800030000107000000170000000421014001B
:200B4000041008037000030C000200200000040445060300020E0C0005FFFFFF62A0F0412E
:200B60000C00000000000800040404042292000000000000000040020010301000101012D9
:200B8000000000000000000000000000000000000000000000000000FF0000FF0000000057
:200BA0000000000000000000FF0000FF000000000000000000000000FF0000FF0000000039
:200BC000000000000000000000000000000000000000000000000000000000000000000015
:200BE000720000000038002F38000F000F00000000000000000000000000FF0000000000C7
:200C00000000000000000000000000000000000000000000000000000000000000000000D4
:200C20000000000000000000000000000000000000000000000000000000000000000000B4
:200C40000000000000000000721F00000000000000000000000000000000000004000000FF
:200C6000000000000000000000000000000000000000000000000000000000000000000074
:200C8000000000000000000000000000000000000000000000000000000000000000000054
:200CA000000000000000000000000000000000001000000000000000000000000000000024
:200CC000000000000000000000000000000000000000000000000000040000000000000010
:200CE0001000000000000000000000000000000000000000000000000000400000000000A4
:200D000000000080010000000000000000000000000004000000000000000000000000004E
:200D20000000000000000000020000000000000000000000000001000000000008000400A4
:200D4000000000000000000000000000000000000000000000000000000000000000000093
:200D6000000000000000000000000000000000000000000000000000000000000000000073
:200D80000000000000000080000000000000000000000000000000000000000000000000D3
:200DA000000000000000000000000000010000000000000000000000000000000000000032
:200DC000000000000000000000000000000000000000000000000000000000000000000013
:200DE0001000000000008000000000800000000000000000000000000000000000000000E3
:200E00000100001000000000000000000000000000000000000000000000000004000000BD
:200E20000000000000000100000000000000000000000000000000000400010000000000AC
:200E4000000000000000000000000000000000000000000000000000000000000000000092
:200E6000000000000000000000000000020000000000000000000000000000000000000070
:200E8000000000000000000000000020000000000000000000000000000000000000000032
:200EA000000000000000000000000000000000000000000000000000000000000000000032
:200EC000000000000000000000000000000000000000000000000000000000000000000012
:200EE0001000000000008000000000800000000000000000000000000000000400000000DE
:200F00000000000000000000000000000000000000000000000001000000000000000800C8
:200F20000000000000000000000000000000000000000000000000000000000000000000B1
:200F4000000000000000000000000000000000000000000000000000000000000000000091
:200F600000000000000000000000000000000000000000000000000000000004000000006D
:200F8000000000000000000000000000000000000000000000000000000000000000000051
:200FA000000000000000000000000000000000000000000000000000000000000000000031
:200FC0000000000000000000000000000000400000000000000000000000000000000000D1
:200FE000100000000000000000000080000000000000000000000000100000000000000051
:201000000000000000000000000000000000000000000000000000000000080000000000C8
:201020000000000000000000000000000000010000000000000000000000000000000000AF
:20104000000000000000000000000000000000000000000000000000000000000000000090
:201060000000000000000000000000800000000000000000000000002000000000000000D0
:201080000000108000000000000000000000000000000000000000000000000000000000C0
:2010A00000000000000000000000000000000000000000000000000000000000040000002C
:2010C000000000000000000000000000000000000000000000000000000000000000000010
:2010E0000000000000000000000000000000000000000000000000000000000000000000F0
:201100000000000000000000000000000000000000000000200000000000000000000000AF
:201120000000000000000000000000000000000000000000000000000000000000000000AF
:2011400000000000000010000000000000000000000000000000000000000000000000007F
:2011600000000000000000000000000000000000000000000000000000000000000000006F
:2011800000000000000000000000000000000000000000000000000000000000000000004F
:2011A00001000000000000000000000000000400000000000000000000000000000000002A
:2011C00000000000000000000000000000000000000080000A100001000000000004024826
:2011E0002000000002008814000800004010011400000000080021210000000000008050AA
:2012000000000000000020050000000000000841000800000004802028000000050000087F
:20122000080080000000400000000000008000000000000002000001000000000000000063
:2012400000000000000000000000000000000000000000000000000000800000000000000E
:20126000020800C0480001090000801400184001000C000000002000100000000000000029
:2012800000040040000000000000000000000000F800F000F40000000000D000E000D000AE
:2012A000E200340000001000100000000000000000000000000000000000000011002000C7
:2012C00000000000000000000000000000000000000000000000000000800060000000220C
:2012E0000900000000000000000400000000010000010004000000000100000000000000DA
:2013000028000002000000000000006400000000000010000040000000010080000000026C
:20132000080000530000001000000000000880120000000000104600000000000000000052
:201340000000000000000000000000000000000800080000000041010000001040140000D7
:2013600000001040400200A6010000020001460120C000080800000000001401804008001D
:20138000006000100000024000000000000000000000AD00030000000000080007000E00CE
:2013A000120008000000F000F0000000000020000000100080000000100000000000000073
:2013C00000000000000000000000000000000000000000004A10000000000000100440015E
:2013E0000000000000000229000000000000424A1022000002441400000801000000840A13
:2014000000020020000061040000000000802A00202800000028000000000000000000002B
:201420000000002000000000000000000000200000000000000000000000000000008414D4
:201440000001000000002A28200000000000000000000000000000001000004800000000C1
:20146000000000000000010800000100000140000008000000000400000000000000000015
:2014800042000000000000000000000000000000F000F000F000000000007300F500F000E2
:2014A0006600000000002000000000000000040000000000000000000000000000000000A2
:2014C000000000000000000000000000000000002000000000000000018040240000000007
:2014E0004A00400000000000010054000000000000102000000002002800010000000002B0
:2015000000000810000000000420000000000008010000000040000030000000000000080E
:201520000000000000000002004020054204001082200020400008090000000000000000DB
:20154000020000400000000000040010000000080000000400000000000002040000000023
:2015600004000000000204E6280001120101004000800808280020004010000000000001D5
:201580000080000200000000000000000000000002000F0003000000000017000600460052
:2015A000180000000000FF00FF000000000020000000000000000000200000000000800055
:2015C00000000000000000000000000000000000000000000010400000000000008808002B
:2015E00000000000004000040000000000980051100200000800AA01000000000000405861
:20160000200204000000A100440000000000060010000000000000082000000000000A0077
:20162000080000000000020E4101000000000100020000000000000A0000000000400404FB
:20164000000000000000010001000000000000000000000000000000000000000000000088
:2016600044004800080000000000000802110201000001002802200E00000000000000005F
:20168000000000000004000000000000000000005000E000A00000000000F000B700CA0005
:2016A0004200300000008800380000000000010000000000000000000000000040000400B3
:2016C000000000000000000000000000000000001000000000000000410000260000000093
:2016E0000800204000000000188000010000000840841000000000004100000000000000CC
:201700002880000000000000000A00600000000000004C0000000800000000010040000022
:2017200000005400000000000001A008000000010010000000005400000000000000000047
:2017400000000000000000000000000000000000040000000000004800000000000000003D
:201760000440C00000000420280001100000004000000800080000080000000000000000B0
:201780000000000000010800000000000000000002000F0007000000000009000E000F0002
:2017A0002500100000008F00740000000000000000000000000000000000000000000400ED
:2017C000000000000000000000000000000000004402000008110200000204000000420858
:2017E000001000200200000100240C00002042404000400000080208002000000000004AE8
:201800000802000002002000641000000000000500000000002800000000000000000205F4
:20182000000000000000000000068020000000000000000000000000000000000000000002
:20184000000000000000000000000000000000000000200000000001000000000000040063
:2018600024000000400004000002000000202000000004002806000000004100000010003B
:2018800000010000000000000000000000000000FD00DA00920000000000B400A300CE00B9
:2018A0006000100000000F00000000000000000000004000000000000000000081000000E8
:2018C0000000000000000000000000000000000000000000040124010000002014000000AA
:2018E0000800000060000010000800000001000400004000002002100008000010000025B4
:201900000830000000018010000000200000200A00004C000040080080400200000000005E
:201920000000000000000000000000400000020000004000005000000000000000C04000D5
:201940000000000000000000000000000000000000000010800000000000000020000004D3
:2019600004000002000000004C0005010000400000008121000008080400210008000020D0
:2019800010000000000000000000000000000000F00064007200000000007200B200E40069
:2019A000350000000000880038000000000000000400020000000000000004000000080020
:2019C000000000000000000000000000000000005400000000000004000204000000208801
:2019E000A800000000002800101080000000280004000000000040180020000000002000B3
:201A000020000000000014044402000000490880000304000000001000120000000000004E
:201A2000900000000000010C00000000200180080000000000000000000000000000000060
:201A40000000000000000000000000000000000000000000000000080000000020400040DE
:201A6000000000000000000000000000000000000000000000000000000000000000000066
:201A80000000000100000000000000000000000047007A006E000000000024006400DB00B3
:201AA000250004000000F000000000000000000000000000400000000000000004002000A9
:201AC0000000000000000000000000000000000018004000001004820000080000200000F0
:201AE000001400000000022910880010000000010000248000000000401840000040000181
:201B00000021044100000000009400000000000008000000452000C2108008000040802024
:201B2000800001000000000100000000000000000000000000000000000000000000000023
:201B4000000000000000000000000000000000000000000004000000000000008000000001
:201B600000940000000008000001062A0108408000200000000000080000000000000000A7
:201B800000000300000000000000000000000000DE004200F600000000000F000F000E0000
:201BA000B4003C00000000000000000000000000000000000000020000002000040000000F
:201BC000000000000000000000000000000000000000000000000000000000000000000005
:201BE0000000000000000000000000000000000000000000000000010000000000000000E4
:201C00000000000000000000000000000000000000000000000000000000000000000000C4
:201C20000000000000000000000000000000000000000000000000000000000000000000A4
:201C40000000000000000000000000000000000080000000000004820028000000204000F6
:201C600024000C020000022800040200800140000020080100008002050802000000000087
:201C8000002184000000000028004001000000000000000000000000200002000000000014
:201CA000000800000000000000040000000000000000000000000000009400000000000084
:201CC0001400022800000000000000080000000000000000000000000000000000000000BE
:201CE0000000000000000000000000000000000000000000000000000000000000000000E4
:201D000000000000000000000000000000000000D1005600EE00000000000F000F000F0081
:201D2000000008000000020000000000000004000000000000000000000000000000000095
:201D400000000000000000000000000000000000000000000000000000000200000000047D
:201D600000000000000000000000000000000000000000400000004800800000010000005A
:201D8000000000000000000000000000000000000000000000000000000000000000000043
:201DA000000000000000000000000000000000000000000000000000000000000000000023
:201DC0000000000000000000000000000000000000000400040001040000010004000000F1
:201DE0000000010008000040000000000580004800000400000000000000000108000000C0
:201E0000000000000020000000000000000000000000C00000000000E000300000000000D2
:201E20000000000000000000000000000000000040001000600000000000000030000000C2
:201E400000000000000000000000000000000000000000000020000008000002080001004F
:201E600000000000000000000000000000000000000008000000000000000000000000005A
:201E8000000000000000000000000000000000000000000000000000000000000000000042
:201EA000000000000020000000000000000000000000000000000000000000000000000002
:201EC0000000000000000000000000000000000008000000000000000000000000000000FA
:201EE000000000000800004000000000058000480020040000000800000000000000008021
:201F0000102000000000000000000000000000008000F000000000004000000000000000E1
:201F20000000000040000000000000000000000080000000000000000000000000001000D1
:201F4000000000000000000000000000000000000000010000000000000000000000000080
:201F600000000000080000401000000005800048000004000000098000000020000000008F
:201F8000000000000000000000000000000000000000000000000000000000000000000041
:201FA000000000000000000000000000000000000000000000008000000000000000200081
:201FC0000000000000000000000000000000000000000000000000001000000000000800E9
:201FE0000000000000000000000000000000000000000000000000000000000000000000E1
:202000000000000000000000000000000000000000000000000000000000000000000000C0
:20202000040000000000000000000000000000020000000004000000000000000000000096
:20204000000000000000000000000000000000000000000000000060000000000000000020
:2020600000000000000000C0000000020180006800000000000009A000000000000000000C
:20208000000000000000000000000000000000000000C00000000000000000000000000080
:2020A0000000000020008000800000000000000000005000000000000000000000000000B0
:2020C000000000000000000000000000000000000000000000000000000000000000000000
:2020E000000080000000000000000000000000000000000000000000000000000000000060
:20210000000008400080010000000080000000000000000000000000000000000000000076
:2021200000000000000000000000000000000000000000000000000000000000000000009F
:2021400000000000000000000000000000000000000000000000000000000000000000007F
:202160000000000000000040000000020100002800000000000080A0000080000000000054
:2021800000000002000000000000000000000000000000001000000000000000F00010002D
:2021A0000000000000000000000000000000000000000000000000000000000020000000FF
:2021C0000000000000000000000000000000000000000000000000000000000000000000FF
:2021E0000000000000000000000000000000000000000000000000000000000000000000DF
:20220000010000200000002800000040000000000000000000000000000000000000000035
:2022200000000080000000000000000000000000000000000000000000000000000000001E
:2022400000000000000000000000000000000000000000000000000000000000000000007E
:2022600000000000000000000000000000000000000000000000000000000000000000005E
:2022800000000000000000000000000000000000000000000000000000000000F00010003E
:2022A0000000000020000000000000000000000000000000000000000000000000000000FE
:2022C000000000000000000000000000000000003E0110000000000000003801060100006F
:2022E0003E011000000000001800380106000C00000030000000C200E40000E40000000072
:2023000000000000C10000F031003100000000000000000000000000C0000000400020404A
:20232000400040000000000001000000010001001C0000000000000000000200F40008F709
:202340000700040000000000A05050001000030000000000000030000000000024000000CB
:202360000040000000000000040000000000000010000000A0000000302000000000000019
:202380000A00180110001801000000000000000000000000000000000000000000000000F1
:00000001FF
